:020000040800F2
:10000000F8490020B53E000801010008030100087E
:10001000070100080B0100080F01000800000000A4
:1000200000000000000000000000000013010008B4
:100030001501000800000000170100081901000860
:10004000CF3E0008CF3E0008CF3E0008AF29000891
:10005000CF3E0008CF3E0008CF3E0008CF3E00084C
:10006000CF3E0008CF3E0008CF3E0008CF3E00083C
:10007000CF3E0008CF3E0008CF3E0008CF3E00082C
:10008000CF3E0008CF3E0008CF3E0008CF3E00081C
:10009000CF3E0008CF3E0008CF3E00088772000820
:1000A000CF3E0008CF3E0008CF3E0008CF3E0008FC
:1000B000CF3E0008CF3E0008CF3E0008CF3E0008EC
:1000C000CF3E0008CF3E0008CF3E0008CF3E0008DC
:1000D000CF3E0008F17D0008CD7F0008CF3E00082C
:1000E000CF3E000895290008CF3E0008DFF80CD06D
:1000F00008F05AFD0048004757040008F84900205E
:10010000704700BFFEE700BFFEE700BFFEE700BF8D
:10011000FEE7704770477047704700002DE9F043D5
:1001200089B00546284601F0ECFB04462946FDA0AF
:1001300008F054FF1CB9002009B0BDE8F083FDA110
:10014000204601F070FE064637690722FAA13846BC
:1001500007F0EEFF60B90120F9490870F94801681D
:10016000F948006802F037FB02F038FCF7490860F4
:100170000922F7A1384607F0DBFF40B90120F0491A
:100180000870F0480168F048006802F01BFB082284
:10019000F2A1384607F0CCFF10B90320E8490870F7
:1001A0000922F1A1384607F0C3FF10B90220E44943
:1001B00008700722EFA1384607F0BAFF10B90220F5
:1001C000DF4908700522EDA1384607F0B1FF78B984
:1001D000ECA1204601F027FED0F810802422EAA1ED
:1001E000684607F063FF6946404602F002FB00BF25
:1001F0000322EEA1384607F09BFF00283ED102F013
:10020000EDFBEB490968401A0A2837D9E9A12046D5
:1002100001F009FED0F81080DAA1204601F003FEBB
:10022000D0F8109002F0DAFBE14908600422E2A164
:10023000404607F07DFF58B9E1A207CA06AB07C3E5
:100240000020E249086006A9484602F0D2FA14E00C
:100250000422DFA1404607F06BFF70B9DEA2D2E9AD
:1002600000109268CDE9070206910120D749086085
:1002700006A9484602F0BDFA00BF00BF14B12046EF
:1002800000F0DCFC012057E710B500F033FB4FF421
:10029000E13007F05BFD4FF4E13007F01BFE07F0A3
:1002A0003BFD06E0CFA008F099FE4FF4FA6000F0A5
:1002B0004AFB07F0E7FA0028F4D10122CEA1CF488B
:1002C00005F0B6F806F0D3FF02F002FB10BD30B522
:1002D000ADF52B7D05467C22C94901A807F0E6FE55
:1002E0001222294620A805F0CEF8044654B129462A
:1002F000C4A008F073FE20A805F0A5FB20460DF56C
:100300002B7D30BD002120A805F0AFFB0446AAAB31
:100310007B2201A920A805F049FA20A805F093FB4B
:100320002146BCA008F05AFE2046E8E730B5ADF5FE
:100330002D7D05468822BC49684607F0B7FE12228B
:10034000294622A805F09FF8044654B12946ADA0DD
:1003500008F044FE22A805F076FB20460DF52D7D21
:1003600030BD002122A805F080FB0446ACAB8522FD
:10037000694622A805F01AFA22A805F064FB214676
:10038000AAA008F02BFE2046E8E72DE9F04BADF5DA
:10039000236D06468846012241460DF6080005F009
:1003A00072F807465FB13946A5A008F017FE0DF6B2
:1003B000080005F048FB0DF5236DBDE8F08B0DF648
:1003C000040301A9181DDDF8142805F00EF90DF637
:1003D000080005F038FB01A99EA008F0FFFD01A868
:1003E00001F08FFA0546284601F07FFC8346594606
:1003F0009BA008F0F3FD33466EA29BA1504608F087
:10040000FDFD51469AA008F0E9FD9DA1284601F0A6
:100410000AFD814647A1484601F005FD044699A022
:10042000216908F0DBFD042299A1206907F080FE14
:1004300010B999A008F0D2FD032299A1206907F014
:1004400077FE10B997A008F0C9FD15B1284600F055
:10045000F5FB00BFAFE70024FFF716FF93A0FFF7FF
:1004600036FF94A0FFF762FF95A008F0B7FD99A0B2
:1004700008F0B4FD9CA008F0B1FD9FA008F0AEFD0F
:100480000020A1490870A1A006F0B5FFD3E12C48D7
:100490000078012812D12D48006878B102F09EFA48
:1004A0002A490968401AC82808D9264801682648F8
:1004B000006802F087F900202449086002F08EFAF3
:1004C00096490968401A4EF66021884208D8934838
:1004D000006858B902F082FA41F28831884205D9A1
:1004E00002F082F902F07AFA8C4908608C480088A0
:1004F00000F4004080B18A480088C0F30D05294609
:1005000088A008F06BFD00208A4948550846FFF78F
:1005100005FE00208249088087480078012800D124
:1005200089E10BE1CDF8C2E7BDD3CAD5A3BA2573E3
:10053000000000004D00000057454C434F4D450062
:10054000100000201C0000201800002004000020E3
:10055000636F6E6E65637465640000006368656355
:100560006B6F757400000000636865636B696E6F84
:100570006B000000636865636B6564006C6F67699E
:100580006E00000049440000446561722066726993
:10059000656E642C2077656C636F6D6520746F20C9
:1005A000424947494F5420210000000073617900FF
:1005B0000800002043000000706C6179000000001A
:1005C0006C656420706C61796564000084812142EF
:1005D00073746F70000000006C65642073746F703A
:1005E000656400005344BFA8B3F5CABCBBAFB4ED0B
:1005F000CEF30D0A00000000303A00009000002009
:10060000649B0008B4F2BFAACAA7B0DC3A25730DF8
:100610000A00000077726974652066696C65204F76
:100620004B2125640D0A0000E09B00087772697475
:10063000652066696C6532204F4B2125640D0A00E8
:1006400032B8C3CEC4BCFEB2BBB4E6D4DA3A256439
:100650000D0A000066696C653A25730D0A000000FA
:1006600025730D0A000000002573256400000000BA
:10067000635F6E5F7374723A25730D0A00000000A9
:1006800043310000635F6E5F6D3A25730D0A000011
:1006900057414B450000000077616B65640D0A000F
:1006A0004C4544004C454465640D0A006173722E4C
:1006B00074787400636F6E6669672E7478740000D6
:1006C00020BFDAC1EE31A3BAD6D8C6F4CFB5CDB3C8
:1006D0000D0A200020BFDAC1EE32A3BABDB2B8F6CF
:1006E000D0A6BBB00D0A200020BFDAC1EE33A3BAFA
:1006F000B4F2BFAA0D0A200020BFDAC1EE34A3BABB
:10070000B9D8B1D50D0A20005C000020CFB5CDB31B
:10071000D7BCB1B82E6D703300000000000000207F
:1007200084000020CAD5B5BDB3A4B6C8A3BA256459
:100730000D0A0000F42100207400002002F04EF9A0
:100740003D490968401A42F6F821884209D93A48D9
:10075000006830B10020394908603749086003F06B
:10076000C0FD3748007810281ED003DC60B1012896
:100770005BD104E0112851D0312856D100E058E077
:1007800030A008F02BFC54E001202D490870AFF296
:10079000E401FF2003F019FD28B932A008F01EFC87
:1007A00031202749087044E0C52006F06DFC04465E
:1007B000AFF200112046FFF7E8FD012C0DD101201A
:1007C0001E49086002F00AF91B49086028A008F0D9
:1007D00005FC00201A4908702BE018480068012821
:1007E00006D029A008F0FAFB00201549087020E087
:1007F000022C02D127A008F0F1FB032C02D12BA080
:1008000008F0ECFB042C02D12DA008F0E7FB31A08E
:1008100008F0E4FB00200A4908700AE032A008F062
:10082000DDFB00200649087003E000200449087041
:1008300000BF00BF00BF2AE60C000020140000200B
:100840005C0000204C4433333230D0BEC6ACC4DA36
:10085000B2BFB3F6CFD6B2BBD5FDC8B7A1A30D0AC0
:10086000000000004153525F4552524F520D0A00A2
:10087000BDD3CAD5B5BDBFDAC1EEA3BAD6D8C6F4CA
:10088000CFB5CDB30D0A0000CEB4BBBDD0D1A1A36E
:100890000D0A0000BDD3CAD5B5BDBFDAC1EEA3BAFB
:1008A000BDB2B8F6D0A6BBB00D0A0000BDD3CAD504
:1008B000B5BDBFDAC1EEA3BAB4F2BFAA0D0A0000FB
:1008C000BDD3CAD5B5BDBFDAC1EEA3BAB9D8B1D5CB
:1008D0000D0A0000B2BBD4DABFDAC1EEBCAFD6AEAF
:1008E000C4DA0D0A00000000CEB4D6AABFDAC1EE09
:1008F0000D0A000010B56FF0040002F048FC10BDB6
:10090000014601EBC1024FF0E0235A6100229A61D7
:100910001A46126942F001021A6100BF4FF0E0224C
:10092000106900F001021AB100F48032002AF5D0FB
:100930004FF0E022126922F001024FF0E0231A6129
:1009400000229A61704710B50146B1F5E16F24D2DB
:1009500001EBC1034FF47A7463434FF0E024636109
:100960000023A36123461B6943F00103236100BFF9
:100970004FF0E023186900F001031BB100F480334D
:10098000002BF5D04FF0E0231B6923F001034FF05B
:10099000E02423610023A36152E0002220E02F4BDA
:1009A0004FF0E02463610023A36123461B6943F0F9
:1009B0000103236100BF4FF0E023186900F0010339
:1009C0001BB100F48033002BF5D04FF0E0231B69FE
:1009D00023F001034FF0E02423610023A361521CA4
:1009E0004FF4E163B1FBF3F39342D8D84FF4E163E2
:1009F000B1FBF3F403FB141303EBC3034FF47A745A
:100A000063434FF0E02463610023A36123461B6925
:100A100043F00103236100BF4FF0E023186900F0A9
:100A200001031BB100F48033002BF5D04FF0E0231D
:100A30001B6923F001034FF0E02423610023A3612D
:100A400010BD30B50446002504E04FF47A70FFF77E
:100A50007AFF6D1CA542F8D330BD00004031F7008D
:100A6000002007E00021304A02F8101002EB40029B
:100A70005170401C6428F5D37047F0B503466424D8
:100A8000002503F03F0018B1012000EB931100E0B6
:100A9000990900220CE0244810F8120010B91446FD
:100AA0006D1C01E0642400258D4200D102E0521C3F
:100AB000642AF0D300BF8D4201D00020F0BD621C3B
:100AC00005E00126501E184F07F81060521E601CEA
:100AD000401A9042F5D3601C401A134F07EB4000B8
:100AE0004170601C401A114E06EB8010E6E730B5ED
:100AF000024614460D4D601BC51700EB9565A91104
:100B00000B4604E00020084D05F813005B1C064866
:100B100000EB4100407808449842F3D80020024D91
:100B200005EB4105687030BDC01B0020C0020020ED
:100B3000FE480068FD4949680844704708B504202C
:100B400005230122FAA10090FC4808F057FAFB485F
:100B500008BD70B504460D4604B10DB9012070BD45
:100B6000AC4201D10020FAE705E0207808B9002066
:100B7000F5E7641C6D1C207807F08EFA064628788D
:100B800007F08AFA8642F0D0207807F085FA064608
:100B9000287807F081FA301AE1E72DE9F0410446A0
:100BA0000D460026002714B90020BDE8F08120463C
:100BB00007F0A0FA461C304629688847070000D194
:100BC000F3E732462146384607F070FA3846ECE73C
:100BD00038B9DB49DB4A1160DB495160DB49916080
:100BE0007047D749D74A1160016809B1016811609F
:100BF000D549D44A5160416809B14168516000212A
:100C0000D04A916011460968CD4A914207D1CD4939
:100C10004968CD4A914202D1CC49CA4A916000BF8D
:100C2000DEE770B5044628202168884705461DB1D7
:100C30002821284607F053FA284670BD70B50446AF
:100C4000002522E02568A08900F4807020B9A06802
:100C500010B1A068FFF7F2FFA08900F4807028B9F6
:100C6000206918B1B74A206951688847A08900F403
:100C7000007028B9206A18B1B24A206A51688847C2
:100C8000B0484168204688472C46002CDAD170BD18
:100C900010B507F007FA04462068007810BD2DE96A
:100CA000F04391B080460C4600BF00201090FFF743
:100CB000EFFF814600250CB1206818B9002011B063
:100CC000BDE8F08300253CE0A16820680844405D51
:100CD000342820D00ADCA0F12B0009282ED2DFE82E
:100CE00000F0202D212A2D1617181900382816D0AB
:100CF00006DC352810D036280FD037281ED10DE05D
:100D000039280DD045280FD0652817D10BE000BF3A
:100D100000BF00BF00BF00BF00BF00BF00BF00BFDB
:100D200000BF00BF00BF00BFA16820680844405D4D
:100D30000DF8050003E00DF8059000E00AE000BFA3
:100D40006D1C3F2D05D224B1A068284461688842FB
:100D5000BAD300BF00200DF8050010A9684608F0BE
:100D600099FE06460F4668461099884201D1002038
:100D7000A5E7C8E90667764A764B3046394607F05C
:100D80006DFC04D86FF00040C8F8140011E0002298
:100D9000714B3046394607F049FC04D84FF000400B
:100DA000C8F8140005E03046394607F00CFCC8F8D6
:100DB00014000820C8F80C00A0686A461099891A27
:100DC0000844A06001207AE770B5064614461D4627
:100DD0005F4A604B2046294607F040FC03D86FF07D
:100DE000004070610FE000225B4B2046294607F06F
:100DF0001DFC03D84FF00040706104E020462946F6
:100E000007F0E1FB706120462946C6E9064570BD42
:100E10002DE9F04104460D46002600270CB120685C
:100E200010B90020BDE8F081606828B1D4E9011054
:100E3000884201D30020F5E7B5F1004F01D300202F
:100E4000F0E7A068401C05446068A84203D3A1688D
:100E500020680844E6E7206908B10020E2E7B5F120
:100E6000804F07D3B5F1004F02D26FF0004702E088
:100E70000020D7E76F00206A28B13946226A20682F
:100E80009047064615E03846A1698847064636B9B8
:100E9000E16920688847002060602060C2E72EB1C9
:100EA000A068421C3046216807F000F9E16920681B
:100EB000884767602660A0683044B3E770B5044691
:100EC00000250CB1206800B970BDA16820684518E4
:100ED000284607F00FF9A1680844A06000BFF3E7B7
:100EE0002DE9F04F8BB082460D464FF00009DAE94C
:100EF000067800260024FFF7CBFE83461DB90020AC
:100F00000BB0BDE8F08F002213463846414607F08B
:100F1000D7FA00221346CDE9000107F087FB21D064
:100F20000EA104A808F06AF8064637E02000002069
:100F300025692E25692E256900000000881C0020E7
:100F4000A59000082800002049900008299A000870
:100F50000000C0FFFFFFDF410000E0C16E756C6C58
:100F6000000000003A464346FBA104A808F046F8FA
:100F7000064602AAFAA104A807F0EAF8012806D159
:100F80003A464346DDE9020107F050FB06D03A46F7
:100F90004346F4A104A808F031F80646002E01DB10
:100FA000192E01DD0020ABE731462846FFF730FF60
:100FB0008146B9F1000F01D10020A1E700240DE026
:100FC00004A8005D584503D12E2009F8040004E070
:100FD00004A8005D09F8040000BF641CB442EFD30C
:100FE000002009F80400A8683044A860012087E7C1
:100FF00002460023002100BF23E0505C302806DBBE
:10100000505C392803DC505C3038034415E0505CF8
:10101000412806DB505C462803DC505C373803442B
:101020000BE0505C612806DB505C662803DC505CFA
:101030005738034401E000207047032900D21B0108
:10104000491C0429D9D31846F6E72DE9FF5F8046ED
:101050008946154600240026C24600200390834698
:1010600002900190A9EB0A00062800DA81E00AF15B
:101070000200FFF7BDFF0646B6F55C4F03D3B6F599
:10108000604F00D275E0B6F5584F29D3B6F55C4FE6
:1010900026D20AF10607002000900C200290A9EB4E
:1010A0000700062800DA64E038785C2802D17878F6
:1010B000752800D05DE0B81CFFF79AFF00900098FB
:1010C000B0F55C4F03D30098B0F5604F00D350E00B
:1010D000C6F30901009861F39F2000F5803402E017
:1010E000062002903446802C02D20120039018E0A2
:1010F000B4F5006F04D202200390C020019010E0EC
:10110000B4F5803F04D203200390E020019008E072
:10111000B4F5881F04D204200390F020019000E071
:1011200027E00398401E00F0FF0B0BE004F0BF0027
:1011300040F08000296801F80B00A409ABF1010020
:1011400000F0FF0BBBF1000FF0DC0398012804DD79
:10115000019820432968087003E004F07F002968A3
:1011600008702968039808442860029804B0BDE814
:10117000F09F0020FAE72DE9F84F80460C46A16861
:1011800020680844461CA16820680844451C0020CB
:1011900000900027A1682068405C222800D0A6E0CB
:1011A0004FF0000AD1460DE028785C2809D1681C70
:1011B0002168401A6168884200D398E009F101096A
:1011C0006D1C6D1C2068281A6168884202D228783C
:1011D0002228E9D12068281A6168884202D228783A
:1011E000222800D083E0A16820680844281AA0EBD8
:1011F000090A0AF1010021698847074607B976E024
:10120000009761E030785C2807D016F8010B009950
:1012100008700098401C009056E04FF00209A81B8F
:10122000012800DA63E07078662819D008DC2228EB
:1012300032D02F2832D05C282FD0622840D108E04D
:101240006E2814D0722819D074281ED0752837D172
:101250002BE00820009908700098401C009030E0B6
:101260000C20009908700098401C009029E00A208A
:10127000009908700098401C009022E00D20009911
:1012800008700098401C00901BE00920009908702D
:101290000098401C009014E000BF00BF70780099D7
:1012A00008700098401C00900BE06A4629463046C2
:1012B000FFF7CBFE8146B9F1000F00D117E000E047
:1012C00015E000BF4E4400BFAE429BD30020009902
:1012D00008701020C8F80C00C8F810702068281A90
:1012E000A060A068401CA0600120BDE8F88F17B185
:1012F00038466169884716B12068301AA06000201E
:10130000F3E72DE9F04707468A460024002600252A
:10131000A046A146BAF1000F02D10020BDE8F08737
:101320006FB903215046FFF773FD06460EB9002042
:10133000F4E70EA1304606F0F2FE0120EEE73C464F
:101340002EE020780C281DD012DC082819D009289E
:101350001BD00A281CD116E025312E31356700003C
:10136000256C670025312E313767000022220000EE
:101370000D2809D0222802D05C2809D100E000BF46
:1013800000BF00BF00BF00BF00BF09F1010905E0B9
:101390002078202801DA09F1050900BF00BF641C8C
:1013A00020780028CDD1E01B00EB090808F10301EB
:1013B0005046FFF72DFD06460EB90020AEE7B9F105
:1013C000000F0FD12220307042463946701C06F0C3
:1013D0006DFE222108F1010031540021401C3154DE
:1013E00001209BE722203070751C3C463DE02078B0
:1013F0001F2808DD2078222805D020785C2802D01C
:10140000207828702FE05C2005F8010B20780C284C
:1014100015D006DC08280FD0092819D00A281AD1BF
:1014200010E00D2811D0222803D05C2813D1287099
:1014300018E02220287015E06220287012E0662053
:1014400028700FE06E2028700CE07220287009E0F0
:101450007420287006E02278F9A1284607F0CEFD16
:101460002D1D00BF00BF641C6D1C20780028BED15C
:10147000222108F1010031540021401C3154012087
:101480004CE770B504460D4629462069FFF739FF41
:1014900070BD014609B1086808B90020704702E034
:1014A0008868401C886041B1D1E90120904204D293
:1014B0008A680868805C2028F2DDD1E9012090422A
:1014C00002D18868401E88600846E7E72DE9F041B0
:1014D00080460C4600270025E068B0F57A7F02D3ED
:1014E0000020BDE8F081E068401CE06044B1D4E930
:1014F0000110884204D2A1682068405C7B2800D09B
:101500007BE0A068401CA0602046FFF7C2FF4CB102
:10151000D4E90110884205D2A1682068405C7D288A
:1015200000D15DE01CB1D4E90110884203D3A0686A
:10153000401EA06061E0A068401EA06000BF04F1F2
:101540001000FFF76EFB064606B956E017B937469E
:10155000354602E02E6075603546A068401CA060EC
:101560002046FFF796FF21462846FFF704FE00B904
:1015700043E02046FFF78DFF28692862002028619C
:1015800044B1D4E90110884204D2A1682068405CCB
:101590003A2800D031E0A068401CA0602046FFF748
:1015A00078FF2146284600F0A8F800B925E020463B
:1015B000FFF76FFF44B1D4E90110884204D2A1685B
:1015C0002068405C2C28BAD044B1D4E9011088428C
:1015D00004D2A1682068405C7D2800D00DE000BFE7
:1015E000E068401EE0604020C8F80C00C8F80870B1
:1015F000A068401CA060012073E717B13846FFF7D0
:101600001DFB00206DE72DE9F04107460C46002642
:10161000B046E068B0F57A7F02D30020BDE8F081E3
:10162000E068401CE060A1682068405C5B2800D056
:101630005DE0A068401CA0602046FFF72AFF4CB187
:10164000D4E90110884205D2A1682068405C5D2879
:1016500000D141E01CB1D4E90110884203D3A06855
:10166000401EA06043E0A068401EA06000BF04F1DF
:101670001000FFF7D6FA054605B938E016B92E4630
:10168000A84604E0C8F80050C5F80480A846A06841
:10169000401CA0602046FFF7FCFE2146404600F0BB
:1016A0002CF800B923E02046FFF7F3FE44B1D4E95B
:1016B0000110884204D2A1682068405C2C28D6D052
:1016C00044B1D4E90110884204D2A1682068405C8A
:1016D0005D2800D00BE000BFE068401EE0602020E5
:1016E000F860BE60A068401CA060012096E716B1BB
:1016F0003046FFF7A3FA002090E770B505460C4688
:101700000CB1206808B9002070BDA4B1A068001D0C
:10171000616888420FD8A268216888180422AFF255
:10172000C47106F005FD30B90420E860A068001D12
:10173000A0600120E8E79CB1A068401D6168884274
:101740000ED8A2682168881805223FA106F0F0FC97
:1017500030B90120E860A068401DA0600120D3E7F7
:10176000ACB1A068001D6168884210D8A2682168E9
:101770008818042236A106F0DBFC40B90220E8609C
:1017800001206861A068001DA0600120BCE76CB169
:10179000D4E90110884209D2A1682068405C22285F
:1017A00004D121462846FFF7E6FCADE7BCB1D4E9F9
:1017B0000110884213D2A1682068405C2D2809D00E
:1017C000A1682068405C302809DBA1682068405C83
:1017D000392804DC21462846FFF761FA94E76CB10A
:1017E000D4E90110884209D2A1682068405C5B28D6
:1017F00004D121462846FFF706FF85E76CB1D4E9FE
:101800000110884209D2A1682068405C7B2804D17D
:1018100021462846FFF75AFE76E7002074E72DE9B7
:10182000F0418AB004460D4617461C2103A806F075
:1018300056FC0026002008490860486074B93FE063
:10184000752530347800000066616C736500000017
:10185000747275650000000020000020039420468B
:1018600006F048FC401C049000200590FE4A07CA80
:1018700007AB07C3FC48FFF7D4F9064606B91FE0DB
:1018800003A8FFF706FE804641463046FFF735FFC6
:1018900000B915E05FB103A8FFF7FBFDDDE9041017
:1018A000884203D205990398405C00B108E01DB15D
:1018B000059903980844286030460AB0BDE8F081D5
:1018C00016B13046FFF7BAF9CCB10194002002906E
:1018D000DDE90410884202D20598029004E00498E1
:1018E00010B10498401E029025B1DDE901010844C1
:1018F000286003E0DD48DDE9011206C000BF0020DA
:10190000DBE710B50446002211462046FFF787FFAB
:1019100010BD2DE9F04781460C4600250026D9F878
:10192000087014B90020BDE8F087606908B1022092
:1019300000E001200646711C2046FFF769FA0546C3
:101940000DB90020EFE77B2005F8010BE068401C93
:10195000E060606910B10A2005F8010BA06830440E
:10196000A06069E06069B8B12046E168FFF750FA0D
:1019700005460DB90020D6E74FF0000804E0092025
:1019800005F8010B08F10108E0684045F7D8D4E9F3
:1019900002010844A06000BF2146386AFFF7B1FC8D
:1019A00008B90020BFE72046FFF788FA606908B150
:1019B000022000E00120064631462046FFF728FAC3
:1019C00005460DB90020AEE73A2005F8010B606925
:1019D00010B1092005F8010BA0683044A060214631
:1019E000384600F0A9F808B900209CE72046FFF728
:1019F00065FA606908B1012000E00020396809B18A
:101A0000012100E000214618711C2046FFF700FA72
:101A100005460DB9002086E7386810B12C2005F87E
:101A2000010B606910B10A2005F8010B0020287035
:101A3000A0683044A0603F68002F93D1606910B166
:101A4000E068401C00E0022001462046FFF7E0F974
:101A500005460DB9002066E7606950B1002003E03B
:101A6000092105F8011B401CE168491E8142F7D895
:101A700000BF7D2005F8010B00202870E068401EA3
:101A8000E06001204FE72DE9F04107460C460025B4
:101A9000A846BE6814B90020BDE8F08101212046A7
:101AA000FFF7B6F905460DB90020F5E75B20287071
:101AB000A068401CA060E068401CE06028E021466F
:101AC000304600F039F808B90020E5E72046FFF776
:101AD000F5F93068D8B1606908B1022000E0012052
:101AE000804608F101012046FFF792F905460DB93D
:101AF0000020D1E72C2005F8010B606910B12020EF
:101B000005F8010B00202870A0684044A0603668EA
:101B1000002ED4D102212046FFF77AF905460DB9EF
:101B20000020B9E75D2005F8010B00202870E0686F
:101B3000401EE0600120AFE72DE9F04104460D466C
:101B4000002604B115B90020BDE8F081207B1028E3
:101B50005FD008DC01281CD0022829D0042809D035
:101B6000082865D133E0202858D040285BD0802851
:101B70005ED131E005212846FFF74AF906460EB945
:101B80000020E1E7AFF62C41304606F0C8FA01200C
:101B9000DAE706212846FFF73BF906460EB9002092
:101BA000D2E7AFF25C31304606F0B9FA0120CBE75C
:101BB00005212846FFF72CF906460EB90020C3E799
:101BC000AFF27431304606F0AAFA0120BCE729468C
:101BD0002046FFF785F9B7E70027206930B9286963
:101BE00010B9E969286888470020ADE7206906F048
:101BF00081FA471C39462846FFF70AF906460EB90E
:101C00000020A1E73A463046216906F04FFA01204C
:101C10009AE729462046FFF734FC95E729462046F7
:101C2000FFF731FF90E729462046FFF772FE8BE76A
:101C3000002089E7F0B589B007460E461446002516
:101C40002421684606F04BFA4FF4807021688847DB
:101C500000900596D4E901022168CDE907020691BA
:101C6000009828B936E0000028000020200000205D
:101C700069463846FFF760FF00B92BE06846FFF77A
:101C80001DF9A06840B1DDE90001A2689047054652
:101C900000200090DDB91DE0029A501C21688847A1
:101CA000054605B916E0DDE90130401C834201D24A
:101CB000019801E00298401C02462846009906F06F
:101CC000F5F9002002996854009861688847284611
:101CD00009B0F0BD009810B100986168884715B14F
:101CE0002846616888470020F2E710B50446F74AA5
:101CF00001212046FFF79EFF10BD10B50446F34AB0
:101D000000212046FFF796FF10BD70B58AB0064649
:101D10000C461546242101A806F0E1F9002C02DA50
:101D200000200AB070BDE94801682046884701904C
:101D3000019808B90020F4E7029400200390059070
:101D40000695E24A07CA07AB07C301A93046FFF769
:101D5000F3FE08B90020E4E70198E2E7F0B589B0A6
:101D600007460D4614461E462421684606F0B7F97C
:101D7000002C02DA002009B0F0BD0095019400208B
:101D80000290012004900596D04A07CA06AB07C30B
:101D900069463846FFF7D0FEEDE701468A68002025
:101DA00001E0401C1268002AFBD1704702460B4636
:101DB00000210AB900207047916801E05B1E0968A4
:101DC00009B1002BFAD10846F5E770B505460C4677
:101DD000002C01DA002070BD21462846FFF7E6FFFF
:101DE000F9E72DE9F04105460E461746002405B1F6
:101DF00016B90020BDE8F081AC684FB100E024685E
:101E00007CB13046216A06F07CF90028F7D108E061
:101E100000E024682CB13046216AFEF79AFE0028C3
:101E2000F7D12046E6E770B504460D460022294664
:101E30002046FFF7D6FF70BD70B504460D4601225F
:101E400029462046FFF7CDFF70BD70B504460D460C
:101E500029462046FFF7E7FF08B1012070BD0020AA
:101E6000FCE701604860704770B505460E46304695
:101E7000FEF7D7FE04460CB9002070BD2822294683
:101E8000204606F013F900202062E06840F48070DC
:101E9000E0600020606020602046EEE770B50446F8
:101EA0000E46002506B104B970BDA5680DB9A6603F
:101EB00008E000E02D6828680028FBD1314628465C
:101EC000FFF7CFFF00BFEFE770B506460D4614469B
:101ED00004B970BDA08900F4007028B9206A18B157
:101EE0007A4A206A516888472562E06840F40070A9
:101EF000E06021463046FFF7D1FF00BFE9E72DE95A
:101F0000F04106460D46144670492846FEF745FE48
:101F10000746224639463046FFF7D6FFE06820F4F0
:101F20000070E060BDE8F08170B505460C46674979
:101F30002046FFF799FF064631462846FFF7AEFFD9
:101F400070BD2DE9F04105460E4614465F49204616
:101F5000FFF78AFF07463A4631462846FFF7CFFF8C
:101F6000BDE8F081024602B109B900207047486817
:101F700010B1D1E900031860086810B1D1E9003050
:101F800058609068884201D10868906000204860DD
:101F900008600846EAE770B505460C46002C01DAF1
:101FA000002070BD21462846FFF700FF0646314657
:101FB0002846FFF7D7FFF4E770B504460D462946DB
:101FC0002046FFF7E8FF0646FEF738FE70BD70B505
:101FD00004460D4629462046FFF725FF06463146B2
:101FE0002046FFF7BFFF70BD70B504460D46294679
:101FF0002046FFF721FF064631462046FFF7B2FF95
:1020000070BD70B504460D4629462046FFF7DFFF38
:102010000646FEF713FE70BD70B504460D46294610
:102020002046FFF7E1FF0646FEF708FE70BD2DE9EA
:10203000F04106460F4614460025002F01DABDE8A0
:10204000F08139463046FFF7B1FE054625B92146F5
:102050003046FFF723FFF2E72560686860606C6038
:10206000B068A84201D1B46001E06068046000BFBC
:10207000E5E770B506460D46144606B10CB90020DA
:1020800070BDAC4201D10120FAE728682060686881
:102090006060206808B120684460606808B16068CA
:1020A0000460B068A84200D1B46000202860686075
:1020B0002846FEF7C3FD0120E2E72DE9F041054681
:1020C0000C461646002C03DABDE8F08128000020FB
:1020D00021462846FFF76AFE07463246394628461B
:1020E000FFF7C7FF00BFEFE710B50446F7484168A8
:1020F0002046884710BD2DE9F04107460D4614469D
:102100001E4614B90020BDE8F081A08900F40070DB
:1021100020B9206A10B1206AFFF7E6FFEB49284694
:10212000FEF73BFD2062E06820F40070E06032467C
:1021300029463846FFF755FE804622464146384636
:10214000FFF797FF0120DEE770B504460D461646FF
:102150000023324629462046FFF7CDFF70BD70B5FB
:1021600004460D4616460123324629462046FFF70F
:10217000C2FF70BD10B5D548FEF753FD04460CB143
:102180000420E060204610BD10B5D048FEF749FDA0
:1021900004460CB10220E060204610BD10B5CB48CB
:1021A000FEF73FFD04460CB10120E060204610BD63
:1021B00070B50546C548FEF734FD044624B10DB19F
:1021C000022000E00120E060204670BD70B50546A9
:1021D0000E46BE48FEF725FD0446F4B10820E06037
:1021E000C4E90656BA4ABB4B2846314606F036FAD1
:1021F00003D86FF0004060610FE00022B64B284624
:10220000314606F013FA03D84FF00040606104E055
:102210002846314606F0D7F96061204670BD70B59A
:102220000546AA48FEF7FDFC04466CB11020E060AC
:10223000A6492846FEF7B1FC2061206920B9204656
:10224000FEF7FCFC002070BD2046FCE770B505469B
:102250009E48FEF7E6FC04466CB18020E0609B4996
:102260002846FEF79AFC2061206920B92046FEF737
:10227000E5FC002070BD2046FCE710B59348FEF752
:10228000D0FC04460CB12020E060204610BD10B503
:102290008E48FEF7C6FC04460CB14020E0602046A4
:1022A00010BD2DE9F05F82460E4600240025A346AE
:1022B000A146002E02DA0020BDE8F09FFFF7DDFF07
:1022C0008146002417E05AF8240006F06BF907460F
:1022D000FFF77CFF054625B94846FEF7AFFC002016
:1022E000EAE714B9C9F8085003E029465846FFF751
:1022F000B8FDAB46641CB9F1000F01D0B442E2D383
:102300004846D9E72DE9F05F82460E4600240025B5
:10231000A346A146002E02DA0020BDE8F09FFFF799
:10232000ACFF8146002417E05AF8240006F06AF951
:102330000746FFF74BFF054625B94846FEF77EFCEA
:102340000020EAE714B9C9F8085003E029465846C6
:10235000FFF787FDAB46641CB9F1000F01D0B44212
:10236000E2D34846D9E72DE9F04780460E460024DF
:102370000025A1460027002E02DA0020BDE8F087E4
:10238000FFF77BFF0746002416E008EBC400D0E906
:1023900000211046FFF71AFF054625B93846FEF71B
:1023A0004DFC0020EAE70CB9BD6003E02946484631
:1023B000FFF757FDA946641C0FB1B442E5D3384678
:1023C000DCE72DE9F04780460E4600240025A146B3
:1023D0000027002E02DA0020BDE8F087FFF74DFF4E
:1023E0000746002413E058F82400FFF718FF0546BD
:1023F00025B93846FEF722FC0020EDE70CB9BD6098
:1024000003E029464846FFF72CFDA946641C0FB19E
:10241000B442E8D33846DFE72DE9F0470446894661
:1024200000250027A846002604B948E02748FEF703
:10243000F8FB054605B942E0E06820F48070E860EA
:1024400060696861D4E90601C5E90601206938B10F
:102450001E492069FEF7A1FB2861286900B92EE01A
:10246000206A68B1A08900F4007008B1206A03E016
:102470001649206AFEF791FB2862286A00B91EE01F
:10248000B9F1000F02D12846BDE8F087A76812E035
:1024900001213846FFF7C0FF064606B90FE0B8F144
:1024A000000F05D0C8F80060C6F80480B04601E00F
:1024B000AE60B0463F68002FEAD12846E4E715B188
:1024C0002846FEF7BBFB0020DEE7000028000020C6
:1024D0000000C0FFFFFFDF410000E0C1014655E002
:1024E0000278202A01D1401C50E00278092A01D14B
:1024F000401C4BE002780D2A01D1401C46E00278D6
:102500000A2A01D1401C41E002782F2A0BD14278DF
:102510002F2A08D100E0401C0278002A36D0027829
:102520000A2A33D0F7E702782F2A0ED142782A2AD6
:102530000BD100E0401C02782AB102782A2AF9D196
:1025400042782F2AF6D1801C20E00278222A19D165
:1025500010F8012B01F8012B0AE002785C2A03D164
:1025600010F8012B01F8012B10F8012B01F8012BB9
:10257000027812B10278222AEFD110F8012B01F86B
:10258000012B03E010F8012B01F8012B0278002A3F
:10259000A6D10A707047014609B900207047087B30
:1025A00008B90120FAE70020F8E7014609B9002040
:1025B0007047087B012800D1FAE70020F8E70146C0
:1025C00009B900207047087B022801D10120F9E7F2
:1025D0000020F7E7014609B900207047087B00F0AA
:1025E000030008B10120F8E70020F6E7014609B929
:1025F00000207047087B042801D10120F9E7002062
:10260000F7E7014609B900207047087B082801D187
:102610000120F9E70020F7E7014609B900207047DB
:10262000087B102801D10120F9E70020F7E70146D7
:1026300009B900207047087B202801D10120F9E763
:102640000020F7E7014609B900207047087B4028C1
:1026500001D10120F9E70020F7E7014609B9002080
:102660007047087B802801D10120F9E70020F7E7B7
:102670002DE9F0470446894692465CB1B9F1000F56
:1026800008D0207B99F80C10884203D12046FFF730
:1026900082FF10B10020BDE8F087207B102814D005
:1026A00008DC01280DD002280CD004280BD0082803
:1026B0000FD109E020280AD0402809D0802808D16D
:1026C00004E000BF00BF00BF00BF00BF00BF00BFED
:1026D00001E00020DFE700BF4C4501D10120DAE72F
:1026E000207B102821D008DC01280DD002280CD036
:1026F00004280BD008285AD10AE0202827D04028E7
:1027000038D0802853D111E000BF00BF0120C2E7BC
:10271000D9E906532A46D4E90671384605F086FF02
:1027200001D10120B7E70020B5E700BF206910B153
:10273000D9F8100008B90020ADE7D9F810102069C9
:1027400005F0DFFC08B90120A5E70020A3E7A56894
:10275000D9F8086009E0524631462846FFF788FF5D
:1027600008B9002097E72D6836680DB1002EF2D128
:10277000012090E700250CB1A06800E0002005468C
:1027800011E052464846296AFFF72BFB06460EB970
:10279000002080E7524631462846FFF769FF08B916
:1027A000002078E72D68002DEBD1012073E7002091
:1027B00071E710B50446024801682046884710BDFD
:1027C0002800002070B504460D462A46214616A072
:1027D00005F02BFC70BD70B504460D462A46214617
:1027E0001AA005F022FC70BD10B522A005F01DFC5A
:1027F00010BD70B504460D462A46214621A005F0BD
:1028000014FC70BD2DE9FC4104460D46904640463F
:1028100005F0F8FE2A46CDE90001214621A005F089
:1028200004FCBDE8FC8100007B224D223A22636853
:1028300065636B696E222C224944223A2225732259
:102840002C224B223A222573227D0A007B224D2224
:102850003A22636865636B6F7574222C22494422A7
:102860003A222573222C224B223A222573227D0AFA
:10287000000000007B224D223A227374617475734C
:10288000227D0A007B224D223A22736179222C227A
:102890004944223A222573222C2243223A222573CC
:1028A000227D0A007B224D223A2275706461746594
:1028B000222C224944223A222573222C2256223AE3
:1028C0007B222573223A222566227D7D0A000000A4
:1028D0000EB50121084600F0F9F94FF4C06000F090
:1028E00007FC29208DF8080001208DF80900002040
:1028F0008DF80A0001208DF80B0002A800F0FDFB06
:102900004FF4003000F0E7FC4FF40030009000205E
:102910008DF8040008208DF8050001208DF80600D0
:10292000684600F061FC01214FF0C05000F0DBF977
:10293000012001F0D0F8012001F010F9012802D1A6
:1029400001F016F901E001F059F8012000F044F916
:1029500000BF612000F08FF80028FAD04FF400701B
:1029600000F03DF9012000F040F901F074F901F0A8
:1029700069F90121022001F009F901F063F9202031
:1029800001F03AF901F05EF9002001F028F901F0B8
:1029900059F90EBD10B5022001F082F930B14FF4A3
:1029A000003000F098FC022001F08AF910BD10B54B
:1029B000022001F075F9012808D1400400F08BFCD9
:1029C000022001F07DF901F03DF906E0012001F05F
:1029D00067F9012801D101F073F910BD034800889F
:1029E0000249091F098800EB014070471C2800407C
:1029F000DF48006840F00100DD4908600846406893
:102A0000DC490840DA49486008460068DA4908406D
:102A1000D74908600846006820F48020086008460E
:102A2000406820F4FE0048604FF41F008860704743
:102A3000CF49096821F48031CD4A116011460968F7
:102A400021F480211160B0F5803F03D0B0F5802FD4
:102A50000ED106E0C649096841F48031C44A1160CC
:102A600007E0C349096841F4A021C14A116000E0B0
:102A700000BF00BF704710B50146002200230020B0
:102A80004A11012A02D1BA4C236806E0022A02D177
:102A9000B74C236A01E0B64C636A01F01F020124BF
:102AA00094401C400CB1012000E0002010BD38B55E
:102AB000002000900024002500BF3120FFF7DBFF3D
:102AC00005460098401C00900098B0F5A06F01D01A
:102AD000002DF2D03120FFF7CEFF08B1012400E035
:102AE0000024204638BD01460020A14A106820F08D
:102AF000F80040EAC10010607047A04908607047C4
:102B0000024600209A4B586820F47C1042EA0103E8
:102B10001843974B586070479849086670470146BC
:102B20000020934A506820F003000843506070472B
:102B30008F48406800F00C007047014600208C4A26
:102B4000506820F0F00008435060704701460020B4
:102B5000874A506820F4E06008435060704701469F
:102B60000020834A506820F4605040EAC100506061
:102B7000704729B17E4A527A02437D4B5A7204E073
:102B80007B4A527A82437A4B5A7270477B49D831DA
:102B90000860704701460020754A506820F44040A4
:102BA0000843506070470021714A20321170704A0A
:102BB00082F82010012802D004280AD104E0012163
:102BC0006B4A2032117005E00521694A20321170EC
:102BD00000E000BF00BF7047694908607047644962
:102BE000096A0143624A11627047654944390860C5
:102BF000704730B500210022002400235C4D6D6831
:102C000005F00C0121B1042905D0082923D105E0E4
:102C10005C4D056022E05B4D05601FE0544D6D6822
:102C200005F47012524D6D6805F48034022505EBF1
:102C300092421CB9544D554305600BE04C4D6D68F4
:102C400005F400351DB1504D5543056002E04D4D72
:102C50005543056002E04B4D056000BF00BF444D89
:102C60006D6805F0F0010909484D6B5C0568DD40B1
:102C700045603F4D6D6805F4E061090A434D6B5CAA
:102C80004568DD4085603A4D6D6805F46051C90ABC
:102C90003E4D6B5C4568DD40C560354D6D6805F4A3
:102CA0004041890B3A4D6B5CC568B5FBF3F5056196
:102CB00030BD29B12E4A526902432D4B5A6104E0BE
:102CC0002B4A526982432A4B5A61704729B1284ADC
:102CD00092690243264B9A6104E0254A9269824335
:102CE000234B9A61704729B1214AD2690243204B94
:102CF000DA6104E01E4AD26982431D4BDA617047F3
:102D000029B11B4AD2680243194BDA6004E0184A21
:102D1000D2688243164BDA60704729B1144A1269AF
:102D20000243134B1A6104E0114A12698243104BAB
:102D30001A61704712494039086070470F49C864EA
:102D400070470B49C87170470948406A40F080706D
:102D500007494862704701460020054A92680A40C8
:102D60000AB1012000E000207047014988727047D5
:102D7000001002400000FFF8FFFFF6FE0000424294
:102D80008004424200127A0000093D003400002015
:102D90004400002010B50446CC48844208D10121EB
:102DA0000420FFF7ADFF00210420FFF7A9FF46E054
:102DB000C748844208D101210820FFF7A1FF002164
:102DC0000820FFF79DFF3AE0C248844208D1012164
:102DD0001020FFF795FF00211020FFF791FF2EE054
:102DE000BD48844208D101212020FFF789FF00213E
:102DF0002020FFF785FF22E0B848844208D1012156
:102E00004020FFF77DFF00214020FFF779FF16E00B
:102E1000B348844208D101218020FFF771FF0021CF
:102E20008020FFF76DFF0AE0AE48844207D1012100
:102E30008015FFF765FF0021A015FFF761FF10BDAA
:102E400010B501210846FFF75BFF00210120FFF7C5
:102E500057FF10BD2DE9F041024600250026002055
:102E600000230024002791F803C00CF00F0591F80F
:102E700003C00CF0100CBCF1000F03D091F802C09D
:102E80004CEA050591F800C0BCF1000F31D0146880
:102E900000202BE04FF0010C0CFA00F3B1F800C059
:102EA0000CEA03069E4220D183004FF00F0C0CFA6F
:102EB00003F7BC4305FA03FC4CEA040491F803C091
:102EC000BCF1280F06D14FF0010C0CFA00FCC2F83F
:102ED00014C00AE091F803C0BCF1480F05D14FF0CF
:102EE000010C0CFA00FCC2F810C0401C0828D1D319
:102EF0001460B1F800C0BCF1FF0F34DD546800204D
:102F00002EE000F1080C4FF0010808FA0CF3B1F8BC
:102F100000C00CEA03069E4221D183004FF00F0C43
:102F20000CFA03F7BC4305FA03FC4CEA040491F8DD
:102F300003C0BCF1280F05D100F1080C08FA0CF809
:102F4000C2F8148091F803C0BCF1480F07D100F11A
:102F5000080C4FF0010808FA0CF8C2F81080401C69
:102F60000828CED35460BDE8F0814FF6FF71018090
:102F7000022181700421C1707047024600209368CD
:102F80000B400BB1012000E000207047014688682B
:102F900080B2704702460020D3680B400BB101207D
:102FA00000E0002070470146C86880B270470161A8
:102FB0007047416170470AB1016100E041617047AB
:102FC000C16070474FF480320A438261816182613F
:102FD00082698269704702460020434B18684FF6A9
:102FE0008073184040EA021008433F4B1860704756
:102FF0003E49C8617047F0B50A460023002400210D
:10300000002500F00046B6F1004F02D1364EF169BE
:1030100001E0354E7168C0F3034583B200F44016F9
:10302000B6F5401F08D121F070612F4E766826F06A
:1030300070662D4F7E6012E000F48016B6F5801F9A
:1030400006D1032606FA05F4A14341F0706106E0BB
:10305000460D360103FA06F6B14341F0706122B124
:10306000460D360103FA06F6314300F00046B6F18C
:10307000004F02D11C4EF16101E01B4E7160F0BDAA
:1030800030B500228B071C0F0F2303FA04F2164BF6
:1030900008338C1053F824309343134C08348D10AC
:1030A00044F8253023468C1053F824308C07240F25
:1030B00000FA04F423430C4C08348D1044F82530F6
:1030C00030BD0A49DC31086070470000000801404B
:1030D000000C0140001001400014014000180140A4
:1030E000001C01400020014000000140000020427F
:1030F00031490143314A1160704770B50021002306
:103100000F22C47804B32D4C246804F4E064C4F5A1
:10311000E064210AC1F10403CA40447804FA03F1CF
:103120008478144021430901254C0678A155047880
:1031300004F01F050124AC4005786D11AD0005F1C8
:10314000E025C5F8004109E0047804F01F050124DA
:10315000AC401C4D0678761145F8264070BD1A4AE1
:103160000A400243154B1B1F1A60704739B1134ABE
:10317000121D12680243114B1B1D1A6006E00F4A14
:10318000121D126882430D4B1B1D1A6070470428E4
:1031900008D14FF0E021096941F004014FF0E0222D
:1031A000116107E04FF0E021096921F004014FF0BF
:1031B000E0221161704700000000FA050CED00E00C
:1031C00000E400E080E100E080FFFF1F00204449B0
:1031D0000860091D0860091D0860091D0860414854
:1031E0003F4914310860704700213D498279002A27
:1031F0003AD00A46126803689A430B461A600A1DC1
:10320000126803689A430B1D1A60027911440A6818
:1032100003681A430A60324A0832126803689A4304
:103220002F4B08331A601A1D126803689A432C4BFF
:103230000C331A604279102A0ED11A1F12680368E3
:103240001A43274B08331A601A1D126803681A4381
:10325000234B0C331A600DE02149427911440A686E
:1032600003681A430A6005E0027911440A6803689A
:103270009A430A6070470021016001710C2141717D
:103280000021817170471649103109680143144AC1
:1032900010321160704701460020114A1432126842
:1032A0000A400AB1012000E0002070470C491431A7
:1032B00008607047014600200022094B1B6803EAA2
:1032C0000102074B14331B680B4013B10AB10120F4
:1032D00000E0002070470249143108607047000088
:1032E00000040140FFFF0F0010B50446BE488442B1
:1032F00008D101218014FFF703FD0021A014FFF77E
:10330000FFFC16E0B948844208D101210014FFF700
:1033100004FD00212014FFF700FD0AE0B4488442B8
:1033200007D10121C013FFF7F8FC0021E013FFF7DC
:10333000F4FC10BD10B50022028802F441520B8843
:103340004C8823438C882343CC8823430C89234314
:103350004C8923438C892343CC8923431A4302801D
:10336000838B4FF2FF74234083830B8A038210BD4B
:103370002DE9F04F85B005460C464FF000090227B5
:103380004FF000084FF0010B0026B246A88B4FF219
:1033900040010840A88302202884B5F81C90A0684A
:1033A000022801D100BF38E0A08810B94FF0010B0E
:1033B00001E04FF0020B8D48854200D100E000BFD4
:1033C0006846FFF716FCDDF800A0E088B0F5007F46
:1033D0000AD14FEA1A2000EB80004000A168B0FB40
:1033E000F1F0401D86B20BE04FEA4B10BAFBF0F053
:1033F00000EB80004000A168B0FBF1F0401D86B2F8
:103400000A20B6FBF0F606F00108A6EB0800C0F3B0
:103410004F074FF6FF7000EA0828022F01DBFF2F4D
:1034200002DD02274FF00008E08840EA0800384338
:103430002884A088A189084361880843218808431B
:1034400040F4006040EA0909A5F81C9005B0BDE809
:10345000F08F0021018041808180C1800181418104
:103460008181C18107210182704700210180418053
:103470008180C1800221816000218181704721B15A
:10348000028842F04002028004E002884FF6BF73D7
:103490001A400280704721B1828B42F4806282839D
:1034A00004E0828B4FF6FF331A408283704730B5B9
:1034B000002400230C110125A540ABB21AB1858868
:1034C0001D43858002E085889D43858030BD1AB10B
:1034D00083880B43838002E083888B43838070471B
:1034E000818170470146888970474FF6FF6291429B
:1034F00004D0028842F48072028004E002884FF611
:10350000FF631A400280704721B1828842F00402B2
:10351000828004E082884FF6FB731A4082807047F5
:1035200002884FF2FF731A40028002880A43028029
:103530007047018841F480510180704721B10288B1
:1035400042F40052028004E002884DF6FF731A40F4
:103550000280704702460020012901D0108B00E054
:10356000908A70470146088A7047B1F5804F04D1B0
:10357000028842F48042028004E002884BF6FF7326
:103580001A40028070470246002013890B400BB19D
:10359000012000E000207047CA4302817047F0B567
:1035A0000246002000240023002501F00F07012619
:1035B000BE40B4B20B1101269E40B3B2968806EA13
:1035C00003051689264016B10DB1012000E0002048
:1035D000F0BD10B5002201F00F040123A3409AB200
:1035E000D343038110BD000000300140003800408B
:1035F000003C004010B50446FB48844209D101213B
:103600008803FFF77DFB00214FF48040FFF778FB34
:1036100032E0F648844209D101214804FFF77DFBDE
:1036200000214FF40030FFF778FB25E0F04884429A
:1036300009D101218804FFF770FB00214FF480209D
:10364000FFF76BFB18E0EB48844209D10121C80465
:10365000FFF763FB00214FF40020FFF75EFB0BE058
:10366000E548844208D101210805FFF756FB0021F7
:103670004FF48010FFF751FB10BD2DE9F04786B0E5
:1036800005460E460024A24600BFA1460027B08989
:1036900000B100BF2F462C8A4CF6FF700440F08822
:1036A00004432C82AC894EF6F3100440B088318973
:1036B0000843718908430443AC81AC8A4FF6FF404C
:1036C0000440B0890443AC8201A8FFF792FAC648CF
:1036D000874202D1DDF810A001E0DDF80CA0A88936
:1036E00000F4004040B10AEBCA0000EB0A10316858
:1036F0004900B0FBF1F807E00AEBCA0000EB0A1042
:1037000031688900B0FBF1F86420B8FBF0F00401E7
:103710002009642101FB1089A88900F4004040B110
:10372000322000EBC900B0FBF1F000F007000443C9
:1037300008E0322000EB09106421B0FBF1F000F04A
:103740000F0004432C8106B0BDE8F0874FF41651FA
:10375000016000218180C18001810C214181002113
:103760008181704710B502460020108A4FF2FF0396
:1037700018400B884C8823438C882343CC882343F0
:103780001843108210BD0021018041808180C180DA
:10379000704721B1828942F40052828104E082891B
:1037A0004DF6FF731A4082817047F0B5034600243E
:1037B00000260025002040F66A17B94200D100BF5C
:1037C0001846C1F3421401F01F06012707FA06F557
:1037D000012C01D10C3004E0022C01D1103000E0AA
:1037E00014301AB107682F43076002E00768AF433F
:1037F0000760F0BD1AB1838A0B43838202E0838A9B
:103800008B4383827047028A4FF6F0731A4002821C
:10381000028A0A430282704782894FF2FF731A407C
:10382000828182890A438281704721B1828942F074
:103830000202828104E082894FF6FD731A40828180
:103840007047028A4FF6DF731A400282028A0A43E7
:103850000282704721B1028A42F48042028204E06F
:10386000028A4BF6FF731A4002827047C1F30802C6
:103870008280704701468888C0F3080070478189BC
:1038800041F0010181817047028BD2B20283028B29
:1038900042EA012202837047028B02F47F420283D4
:1038A000028B0A430283704721B1828A42F02002D0
:1038B000828204E0828A4FF6DF731A408282704768
:1038C00021B1828A42F01002828204E0828A4FF69D
:1038D000EF731A408282704721B1828A42F0080257
:1038E000828204E0828A4FF6F7731A408282704720
:1038F00021B1828942F40042828103E08289C2F3CD
:103900000E028281704721B1828A42F40062828273
:1039100004E0828A4FF2FF731A4082827047828AE3
:103920004FF6FB731A408282828A0A438282704772
:1039300021B1828A42F00202828204E0828A4FF63A
:10394000FD731A408282704702460020B1F5007F65
:1039500000D100BF13880B400BB1012000E0002014
:10396000704701F40072B2F5007F00D100BFCA4376
:103970000280704770B50246002400230025002015
:1039800040F66A16B14200D100BFC1F3421501F002
:103990001F03012606FA03F3012D02D19689334055
:1039A00006E0022D02D1168A334001E0968A3340A8
:1039B0000C12012606FA04F41688344013B10CB137
:1039C000012000E0002070BD10B50022002340F669
:1039D0006A14A14200D100BF0A1201249440A3B28C
:1039E000DC43048010BD000000380140004400406A
:1039F00000480040004C00400050004010B501203D
:103A0000FFF798F90020FFF795F910BD2A490860E3
:103A100070472949091F08607047274984310860A9
:103A2000704701460020254A10884FF67F4210401B
:103A30000843224A10807047014600201F4A108820
:103A40004FF68072104008431C4A1080704708B53A
:103A500000220092194A2C3A0092009A02440092E5
:103A6000009A116008BD08B5014600200090134877
:103A70002C3800900098084400900098008808BDF9
:103A80000D489C300068C0B270470C480830008870
:103A900040F0010009490831088070470648A0300D
:103AA0000068C0B2704705480830008840F0020046
:103AB000024908310880704704860D422C6C004092
:103AC00010B501210807FFF728F900214FF08050B9
:103AD000FFF723F910BD2A49086270472849086199
:103AE000704701460020274A106820F0E000084394
:103AF000106070472249A0310860704710B5024637
:103B00000020204B186820F00300104318601E4B63
:103B10001B6843F004031C4C2360012901D130BF12
:103B200000E020BF184B1B6823F00403164C2360F1
:103B300010BD1448006840F00400124908600846AF
:103B4000006840F0020008600F48006840F0040080
:103B50000D49086000BF00BF30BF7047014600201C
:103B6000084A52680A400AB1012000E0002070476C
:103B70000449096841EA8001024A11607047000067
:103B800000000E420070004010ED00E029B1504AE4
:103B9000128802434E4B1A8004E04D4A1288824339
:103BA0004B4B1A8070474A48001D008840F01000B7
:103BB0004749091D088070474548001D00884FF699
:103BC000EF7108404249091D0880704700214048B4
:103BD0001C300188001F008841EA0040704700B592
:103BE0000246FFF7E0FF100C394918310880091D23
:103BF0000A80FFF7E1FF00BD00B50246FFF7D3FFE3
:103C0000C2F30340324908310880091D0A80FFF7DA
:103C1000D3FF00BD00B50246FFF7C5FF100C2C49CD
:103C200020310880091D0A80FFF7C6FF00BD002073
:103C30002749103109880907080B254914310988DB
:103C40000843704700BF2248001D008800F0200094
:103C50000028F8D070471E48001D00884FF6F77105
:103C600008401B49091D088000BF1948001D008835
:103C700000F008000028F8D0704701460020144AE0
:103C8000121D12880A400AB1012000E0002070478E
:103C90000F49091D098881430D4A121D1180704783
:103CA000014600200A4A121D12880A40D0B2084A72
:103CB00012880A4012B108B1012000E000207047CC
:103CC0000349091D09888143014A121D118070476B
:103CD000002800400CB50020019000906C4800685E
:103CE00040F480306A49086000BF6948006800F409
:103CF000003000900198401C0190009818B901987C
:103D0000B0F5A06FF1D16248006800F4003010B146
:103D10000120009001E0002000900098012843D18C
:103D20005C48006840F010005A4908600846006886
:103D300020F0030008600846006840F002000860B8
:103D40005348406852494860084640684860084601
:103D5000406840F4806048600846406820F47C1069
:103D600048600846406840F4A8104860084600686B
:103D700040F08070086000BF4548006800F00070A7
:103D80000028F9D04248406820F0030040494860CC
:103D90000846406840F00200486000BF3C48406868
:103DA00000F00C000828F9D10CBD10B5FFF792FF08
:103DB00010BD10B53648006840F001003449086075
:103DC0000846406834490840314948600846006860
:103DD000324908402E4908600846006820F48020D7
:103DE00008600846406820F4FE0048604FF41F0059
:103DF0008860FFF7DAFF4FF000602949086010BDC6
:103E000010B5002100200022214B5B6803F00C015B
:103E100021B1042906D0082928D107E0214B224CE2
:103E2000236027E01F4B204C236023E0184B5B6886
:103E300003F47010164B5B6803F48032022303EB2B
:103E4000904022B9194B4343174C23600DE0104BAF
:103E50005B6803F4003323B1144B4343124C2360DB
:103E600003E0104B4343104C236003E00D4B0E4C1A
:103E7000236000BF00BF064B5B68C3F303130C4C09
:103E8000E15C094B1B68CB40074C236010BD000070
:103E900000100240002002400000FFF8FFFFF6FE85
:103EA00008ED00E000127A004800002000093D0003
:103EB0004C0000200648804706480047FEE7FEE722
:103EC000FEE7FEE7FEE7FEE7FEE7FEE7FEE7FEE7CA
:103ED000B33D0008ED00000870B5002500240BE09C
:103EE000B22003F0D1F8212801D1012506E00A20F3
:103EF000FCF729FD601CC4B20A2CF1DB00BF284688
:103F000070BD10B54C21352003F0A8F809211C2004
:103F100003F0A4F82021BD2003F0A0F8012108201F
:103F200003F09CF80520FCF70EFD0021082003F0AB
:103F300095F80520FCF707FDFFF7CEFF08B9002034
:103F400010BDFF21B22003F089F80621372003F0CD
:103F500085F80621372003F081F80520FCF7F3FCF3
:103F60000B211C2003F07AF81021292003F076F8A9
:103F70000021BD2003F072F80120E1E72DE9F05F98
:103F8000ADF5C05D834601225946D94801F07BFA60
:103F90008146B9F1000F0BD04946D6A005F01EF8B6
:103FA000D34801F050FD48460DF5C05DBDE8F09FD7
:103FB000CF4809AB0AA9C26801F017FBCC4801F051
:103FC00042FD0AA9D0A005F009F80AA8FDF799FC5E
:103FD000804600253CE029464046FDF7F6FE089065
:103FE000CCA10898FDF71FFF0790CBA10898FDF71B
:103FF0001AFF06900698D0F810A00798017D41F2AC
:10400000C8726A44515500270AE01AF8070005EB08
:1040100085010DF6280202EB0111C855781CC7B2C4
:10402000504604F067F8B842EFD8002105EB850050
:104030000DF6280202EB0012D15507984169B7A08E
:1040400004F0CCFF5146B1A004F0C8FF681CC5B213
:104050004046FDF7A2FEA842BDDC002041F2C87137
:1040600069444855B8F1000F02D04046FCF7E6FD20
:1040700001200DF58051C1F8FC07002463E0FFF733
:104080002BFF28B900200DF58051C1F8FC075CE03A
:1040900041F2C8706844005D00B956E041F2C87052
:1040A0006844015D9FA004F099FF41F2C870684424
:1040B000015DC12002F0D2FF0021C32002F0CEFF3B
:1040C0000421082002F0CAFF0120FCF73CFC00217B
:1040D000082002F0C3FF0120FCF735FC00261EE09B
:1040E00004EB84000DF6280101EB0010805D00B99F
:1040F00017E004EB84000DF6280202EB0010815D4E
:10410000052002F0ABFF04EB84000DF6280202EB61
:104110000010815D84A004F061FF701CC6B2502EB7
:10412000DEDB00BF77A004F059FF3146B92002F072
:1041300095FFFF21B22002F091FF0421372002F009
:104140008DFF601CC4B2322C99DB00BF0DF580508E
:10415000D0F8FC0728E710B504460820734908701A
:1041600002F0A9FF0021BD2002F078FF48211720AE
:1041700002F074FF0520FCF7E6FB80213C2002F0F2
:104180006DFF07213E2002F069FFFF21382002F079
:1041900065FF07213A2002F061FF0021402002F074
:1041A0005DFF0821422002F059FF0021442002F067
:1041B00055FF0821462002F051FF2146B82002F0A9
:1041C0004DFF0120FCF7BFFB10BD2DE9F041064675
:1041D0000C460025002700BF1FE03046FFF7BBFF5D
:1041E0000520FCF7B0FB2046FFF7C8FE28B902F017
:1041F0000DFF0520FCF7A7FB0DE00A20FCF7A3FB51
:10420000FFF77FFE28B902F001FF0520FCF79BFBBA
:1042100001E0012703E0681CC5B2052DDDDB00BF0E
:104220003846BDE8F08110B5C52002F02DFF10BD65
:1042300010B500242B2002F027FF3D490870002113
:10424000292002F00BFF0021022002F007FF38486E
:10425000007800F01000C8B1B22002F015FF21284C
:1042600014D1BF2002F010FF35280FD1BA2002F080
:104270000BFF0446002C05DD042C03DC10202D4927
:10428000087006E011202B49087002E0112029492E
:10429000087000212B2002F0E1FE00211C2002F01A
:1042A000DDFE0021292002F0D9FE0021022002F0CB
:1042B000D5FE00212B2002F0D1FE0021BA2002F011
:1042C000CDFE0021BC2002F0C9FE0121082002F031
:1042D000C5FE0021082002F0C1FE0120FCF733FBDF
:1042E00010BD10B50821BC2002F0B8FE10BD0000C2
:1042F000981C002031B8C3CEC4BCFEB2BBB4E6D417
:10430000DA3A25640D0A00006275663A25730D0AD3
:10431000000000004E0000004300000025642D3E18
:104320000000000025643A002563000060000020C2
:10433000750000205C00002070B5044600255CB9C3
:1043400003F0A0FA054635B103F058F9FF2003F059
:104350004FF903F058F901E0012500BF00BF0DB18E
:10436000012070BD0020FCE70146002070472DE9C8
:10437000F04105460E4617461C464FF0000814B99A
:104380000420BDE8F08185B9E2B23946304603F039
:1043900036FB8046B8F1000F06D003F02FF9FF205E
:1043A00003F026F903F02FF902E04FF0010800BFF7
:1043B00000BFB8F1000F01D10020E2E70120E0E7E3
:1043C0002DE9F04105460E4617461C464FF0000801
:1043D00014B90420BDE8F08135B9E2B2394630465F
:1043E00003F04CFB804602E04FF0010800BF00BF25
:1043F000B8F1000F01D10020ECE70120EAE72DE938
:10440000F04106460F4615462EBB37B1012F1AD094
:10441000022F0FD0032F1BD111E000201749086095
:1044200003F019F908B9002400E001240120134920
:1044300008600FE04FF40070288000240AE0082094
:104440002880002406E003F0E2F92860002401E05F
:10445000042400BF00E001242046BDE8F0810020D4
:10446000704710B504462046FCF707FB10BD10B599
:1044700004462046FCF73BFB10BD000090012142A2
:1044800070B503460C4603E014F8015B03F8015BCA
:104490001500A2F10102F7D170BD30B5034601E06D
:1044A00003F8011B1400A2F10102F9D130BDF0B5EF
:1044B00003461C460D46002000BF1600A2F1010273
:1044C00007D014F8017B15F801CBA7EB0C063000E0
:1044D000F3D0F0BD024600E0521C107810B1107805
:1044E0008842F9D11078704770B504462079F8B148
:1044F000E56A607801232A4604F13001FFF760FF86
:1045000008B1012070BD00202071206A281AA1691D
:1045100088420DD2E67809E0A0690544607801235D
:104520002A4604F13001FFF74BFF761E022EF3D22C
:104530000020E7E770B504460D46E06AA84210D0B7
:104540002046FFF7D1FF08B1012070BD607801233C
:104550002A4604F13001FFF70AFF08B10120F4E711
:10456000E5620020F1E770B504462046FFF7BCFF86
:104570000546002D59D1207803284FD160790128B4
:104580004CD14202002104F13000FFF786FF552193
:1045900084F82E12AA2184F82F12522084F83000B9
:1045A0005221312001556121322001554121332012
:1045B0000155722184F8141284F81512412184F8EF
:1045C0001612612184F81712217C84F81812208AAF
:1045D000010A84F819122069010C84F81A12206962
:1045E000010E84F81B12217B84F81C12A089010A99
:1045F00084F81D12E068010C84F81E12E068010EB8
:1046000084F81F12E069401CE0626078012304F125
:104610003001E26AFFF7D4FE00206071607800226A
:104620001146FFF7ECFE00B10125284670BD024699
:10463000891E5069801E884201D8002070479378F7
:10464000906A01FB0300F9E72DE9F04105460C46AD
:10465000022C02D36869A04202D80120BDE8F08193
:104660002878012804D002282CD003285AD13DE014
:10467000274607EB5707286A00EB57212846FFF724
:1046800059FF00B150E0C7F3080105F1300010F800
:1046900001807F1C286A00EB57212846FFF74AFF5C
:1046A00000B141E0C7F3080105F13000405C48EA81
:1046B000002804F0010010B14FEA1810CEE7C8F34B
:1046C0000B00CBE7286A00EB14212846FFF732FFE6
:1046D00000B129E040F2FF1000EA440105F130008A
:1046E0000E183078717840EA0120B7E7286A00EBAD
:1046F000D4112846FFF71EFF00B115E040F2FF106D
:1047000000EA840105F130000E18F0780006B17857
:1047100040EA0140717840EA01203178084320F0F6
:1047200070409BE7012099E700BF4FF0FF3095E70D
:104730002DE9F04705460E461746022E02D368695A
:10474000B04202D84FF002088AE02878012804D04D
:10475000022841D003287DD154E0B14609EB590924
:10476000286A00EB59212846FFF7E4FE8046B8F19D
:10477000000F00D071E0C9F3080105F130000C18FA
:1047800006F0010020B1F9B2207861F31F1000E0BB
:104790003846207009F1010901202871286A00EBD0
:1047A00059212846FFF7C6FE8046B8F1000F00D019
:1047B00053E0C9F3080105F130000C1806F00100C0
:1047C00010B1C7F3071005E0207800F0F000C7F340
:1047D00003210843207040E0286A00EB1621284698
:1047E000FFF7A8FE8046B8F1000F00D035E040F298
:1047F000FF1000EA460105F130000C182770380A56
:1048000060702AE0286A00EBD6112846FFF792FE76
:104810008046B8F1000F00D01FE040F2FF1000EA20
:10482000860105F130000C18E0780006A17840EA16
:104830000140617840EA01202178084300F070408F
:1048400007432770380A6070380CA070380EE0708B
:1048500003E0FFE74FF0020800BF00BF012028710E
:104860004046BDE8F0872DE9F04104460E46022E91
:1048700002D36069B04201D8022727E0002721E077
:1048800031462046FFF7E0FE054605B91DE0012D43
:1048900001D1022719E0681C08B9012715E00022A0
:1048A00031462046FFF744FF074607B10DE0206977
:1048B000401C30B12069401C2061607940F001004B
:1048C00060712E466069B042DAD800BF3846BDE854
:1048D000F0812DE9F04704468946B9F1000F06D171
:1048E000E76817B16069B84215D8012713E0494657
:1048F0002046FFF7A9FE0646022E02D20120BDE89F
:10490000F087701C08B93046F9E76069B04201D9F8
:104910003046F4E74F463D4600BF6D1C6069A84233
:1049200004D80225BD4201D90020E8E729462046E7
:10493000FFF78AFE064606B909E0701C08B1012E91
:1049400001D13046DBE7BD42E7D10020D7E700BF09
:104950006FF0704229462046FFF7EAFE8046B8F124
:10496000000F08D1B9F1000F05D02A46494620466C
:10497000FFF7DEFE8046B8F1000F0BD1E56020693D
:10498000401C78B12069401E2061607940F0010030
:10499000607107E0B8F1010F02D14FF0FF3000E085
:1049A000012005462846AAE770B503460D46586A19
:1049B000021D680A1E68B678B0FBF6F400BF02CA92
:1049C00009B9002070BD8C4200D202E0641A121DA9
:1049D000F5E700BF10682044F4E72DE9F0410446F4
:1049E0000E46E680A568012D03D020684069A842E4
:1049F00002D80220BDE8F0812DB920680078032894
:104A000001D12068456A45B920680089B04201D8C3
:104A10000220EFE72068476A1EE0206880784FEAAE
:104A2000001812E029462068FFF70EFE0546681CB4
:104A300008B90120DEE7022D03D320684069A842AF
:104A400001D80220D6E7A6EB08064645EAD2294659
:104A50002068FFF7ECFD0746E5600FB90220C9E7C3
:104A600007EB161020612068303006F00F0100EBD4
:104A7000411060610020BDE72DE9F0410446884601
:104A8000E088461CB0B208B1206910B90420BDE826
:104A9000F08106F00F0000286CD12069401C2061D5
:104AA000E06828B920680089B04263D80420EEE7A6
:104AB00020688078401E00EA161000285AD1E1686C
:104AC0002068FFF7C1FD0546012D01D80220DEE771
:104AD000681C08B90120DAE720684069A84243D879
:104AE000B8F1000F01D10420D1E7E1682068FFF799
:104AF000F0FE05460DB90720C9E7012D01D10220BE
:104B0000C5E7681C08B90120C1E72068FFF7ECFC85
:104B100008B10120BBE7216801F130004FF40072B9
:104B20000021FFF7BAFC29462068FFF780FD2168C5
:104B3000C86200270EE00120216808712068FFF795
:104B4000D3FC08B10120A2E72068C06A401C21689C
:104B5000C8627F1C20688078B842ECD82068C06AA0
:104B6000C01B2168C86200BFE56029462068FFF7C6
:104B70005EFD2061E6802068303006F00F0100EB1A
:104B800041106061002082E72DE9F04104460E46A5
:104B900000212046FFF721FF0546EDB9002700BFA1
:104BA00021692068FFF7C6FC054605B113E060697E
:104BB0000078E52802D06069007820B9781C0746A3
:104BC000B04201D107E0002701212046FFF754FF42
:104BD0000546002DE4D000BF042D00D1072528464E
:104BE000BDE8F08110B502468C7ECB7E44EA0320FE
:104BF0001378032B05D10C7D4B7D44EA032340EA57
:104C0000034010BD81760B0AC3760A0C02750B0EA9
:104C1000437570472DE9F041044600212046FFF717
:104C2000DCFE054615B12846BDE8F08100BF2169CC
:104C30002068FFF77FFC054605B116E06669377806
:104C40000FB9042511E0F07A00F0080030B90B220A
:104C50003046A169FFF72BFC00B906E00021204691
:104C6000FFF70AFF0546002DE1D000BF2846DBE72D
:104C70002DE9F04704468946042526E0216920688D
:104C8000FFF758FC054605B122E0D4F8148098F8E7
:104C900000600EB904251BE098F80B0000F03F07F8
:104CA000E52E0BD02E2E09D00F2F07D0082F01D1C3
:104CB000012000E00020484500D109E00021204605
:104CC000FFF7DAFE054605B102E020690028D5D1DC
:104CD00000BF0DB1002020612846BDE8F08770B507
:104CE000044601212046FFF74FFF054695B921698B
:104CF0002068FFF71FFC054665B920220021606986
:104D0000FFF7CBFB0B22D4E90501FFF7B9FB01202C
:104D100021680871284670BD70B50446E1882046B8
:104D2000FFF75BFE054685B921692068FFF702FCA5
:104D3000054655B9202200216069FFF7AEFBE5204A
:104D400061690870012021680871284670BDF0B5BE
:104D5000044601F10902206900282DD06069002372
:104D600010E01E465B1C855D202D00D10AE0052D5C
:104D700000D1E525092B02D12E2602F8016B02F89D
:104D8000015B00BF0B2BECD3C67A0E72C67F3706D1
:104D9000867F47EA0647467F47EA0626077F3E4367
:104DA0000E60077E467E47EA06268E80877DC67D9A
:104DB00047EA0626CE8000BF00201070F0BD2DE926
:104DC000F35F0198D0F8009001E009F1010999F82A
:104DD00000002F28F9D099F800005C28F5D0009841
:104DE00086690B2220213046FFF757FB00252F460E
:104DF000AB464FF0080A00BF58460BF1010B19F8FB
:104E00000040202C03DD2F2C01D05C2C00D153E07E
:104E10002E2C01D057450DD3BAF1080F01D12E2CFD
:104E200002D00620BDE8FC9F08274FF00B0AA80619
:104E3000050EE1E7802C01DB45F00305812C20DB2A
:104E4000FE2C1EDC58460BF1010B19F80080B8F15E
:104E5000400F02DBB8F17E0F05DDB8F1800F06DBF5
:104E6000B8F1FE0F03DCAAF10100B84201D8062018
:104E7000D8E738467F1C345438467F1C06F800803B
:104E800019E02146FAA0FFF725FB08B10620C9E783
:104E9000412C04DB5A2C02DC45F0020508E0612CB1
:104EA00006DB7A2C04DC45F00105A4F12000C4B235
:104EB00038467F1C34549FE700BF09EB0B01019873
:104EC0000160202C01DC042000E0002004460FB922
:104ED0000620A7E73078E52801D105203070BAF127
:104EE000080F01D1A806050E05F00300012801D125
:104EF00044F0100405F00C00042801D144F008042B
:104F0000F47200208EE72DE9F34104460198007801
:104F10002F2803D0019800785C2802D10198401C0A
:104F200001900020A06001980078202807D200217D
:104F30002046FFF752FD05460020606128E000BFD3
:104F400001A92046FFF73BFF054605B11FE02046BB
:104F5000FFF760FE0546A069C67A3DB1042D04D175
:104F600000BF06F0040000B9052510E006F00400BB
:104F700000B10CE06769F87A00F0100008B9052567
:104F800005E039462068FFF72DFEA060D8E700BF96
:104F90002846BDE8FC8170B502464FF0FF30156829
:104FA000E5B1116800E0491C0D78212D02D30D7880
:104FB0003A2DF8D10D783A2D0FD1146814F8015B11
:104FC000A5F130030A2B07D28C4205D1032B03D263
:104FD00018464D1C2946156070BD002000BFFBE738
:104FE00070B504460D4600202071401EE06229463F
:104FF0002046FFF79FFA08B1032070BD94F82E12E7
:1050000094F82F0241EA00204AF65521884201D047
:105010000220F2E794F86900010694F8680041EA7A
:10502000004194F8670041EA002094F866100843B4
:1050300020F07F409249884201D10020DDE794F8BA
:105040008500010694F8840041EA004194F8830049
:1050500041EA002094F88210084320F07F408849FC
:10506000884201D10020C8E70120C6E72DE9F74FAB
:1050700088B00021089801600998FFF78CFF07901D
:105080000798002803DA0B200BB0BDE8F08F7D49AC
:10509000079851F820400CB90C20F5E708980460F7
:1050A000207878B16078FFF75FF9804608F001005A
:1050B00040B90A9820B108F0040008B10A20E3E7DB
:1050C0000020E1E700202070079860706078FFF70B
:1050D00033F9804608F0010008B10320D4E70A98AC
:1050E00020B108F0040008B10A20CDE700273946B6
:1050F0002046FFF775FF0546012D01D06DBB2CE062
:10510000002614E004F5F77101EB0610017951B1A6
:10511000C17A0A06817A42EA0142417A42EA0121D1
:10512000027A114300E000214DF82610761C042E6F
:10513000E8D3002606B1761E00BF5DF8267027B1C1
:1051400039462046FFF74CFF00E0022005461DB11E
:10515000701C06460428F0D300BF032D01D10120A6
:1051600092E70DB10D208FE73B20015D94F83C00E4
:1051700041EA0020B0F5007F01D00D2084E74620F1
:10518000015D94F8470041EA0029B9F1000F0ED102
:1051900094F85700010694F8560041EA004194F84B
:1051A000550041EA002094F8541040EA0109C4F87F
:1051B00018904020005DE070E078012804D0E0788D
:1051C000022801D00D205FE7E07809FB00F93D20BF
:1051D000005DA070A07818B1A078411E084008B109
:1051E0000D2051E74120015D94F8420041EA002082
:1051F0002081207A00F00F0008B10D2044E7432001
:10520000015D94F8440041EA002BBBF1000F0ED180
:1052100094F85300010694F8520041EA004194F8D2
:10522000510041EA002094F8501040EA010B3E2062
:10523000015D94F83F0041EA00200490049808B909
:105240000D2021E704984844218900EB11100690B5
:105250000698834501D20D2016E70698ABEB0000B7
:10526000A178B0FBF1FABAF1000F0DD10D200BE7D8
:10527000222A2B2C3A3B3C3D3E3F5B5D7C7F00006D
:1052800046415400C01E0020012540F6F6708245BC
:1052900000D302254FF6F670824500D303250AF1AC
:1052A00002006061E761049838442062069838443F
:1052B000A062032D16D1208908B10D20E4E694F8F0
:1052C0005F00010694F85E0041EA004194F85D0039
:1052D00041EA002094F85C10084360626069800035
:1052E000059014E0208908B90D20CDE6206A4844D5
:1052F0006062022D02D16069400007E0207D00F06D
:105300000100616901EB410100EB51000590A169C9
:10531000059800F2FF10B1EB502F01D20D20B3E63B
:105320004FF0FF302061E06080206071032D5AD182
:1053300094F8601094F8610041EA0020012852D1ED
:10534000791C2046FFF7F6F8E8BB0020607194F85E
:105350002E1294F82F0241EA00204AF65521884285
:1053600041D13320005D01063220005D41EA004159
:105370003120005D41EA002094F830100843FE49D6
:10538000884230D194F81702010694F8160241EAD7
:10539000004194F8150241EA002094F814120843E1
:1053A000F64988421FD194F81B02010694F81A02AC
:1053B00041EA004194F8190241EA002094F81812D9
:1053C0000843206100E00EE094F81F02010694F803
:1053D0001E0241EA004194F81D0241EA002094F8BF
:1053E0001C120843E0602570E5480088401C80B22C
:1053F000E3490880E080002046E670B505462C466B
:105400004CB1206838B12068007820B12068C0888D
:10541000A188884201D0092070BD21684878FEF734
:10542000A3FF00F0010008B10320F5E70020F3E737
:10543000F7B582B016460398019001A8FFF7ABFDBF
:105440000546002D02DA0B2005B0F0BDCD4850F81E
:1054500025400CB100202070029810B10020029964
:105460000870C849029841F82500029808B1012E39
:1054700001D00020E8E7002203A902A8FFF7F6FD0B
:1054800007463846E0E72DE9F7438AB00546164659
:105490001DB909200DB0BDE8F0830020286006F09A
:1054A0001F0626F001020BA903A8FFF7DFFD074640
:1054B000002F7DD1CDF824D003A80B99FFF723FD51
:1054C0000746089C0FB904B9062706F01C000028FF
:1054D00051D04FB1042F03D103A8FFF700FC0746BA
:1054E00046F00806089C09E0E07A00F0110008B1D7
:1054F000072703E006F0040000B10827002F39D188
:1055000006F00800002835D0FEF7A9FF804684F891
:105510000E804FEA1821E1734FEA184121744FEAD7
:10552000186161740020E072207700216177A17713
:10553000E17721460398FFF755FB8146002120467D
:10554000FFF760FB012003990871B9F1000F11D03A
:105550000398D0F82C8049460398FFF784F9074652
:1055600047B9A9F101000399C86041460398FEF7C5
:10557000E1FF07460EE06FB9E07A00F0100008B1D5
:10558000042707E006F0020020B1E07A00F00100F5
:1055900000B1072747B906F0080008B146F0200619
:1055A0000398C06AE8612C6217B9AE71002000E070
:1055B00019E0E87121460398FFF714FB2861E07FAA
:1055C0000106A07F41EA0041607F41EA0020217F7F
:1055D0000843E8600020A860A8616862039828601A
:1055E0002868C088A880384654E72DE9FF4F83B06B
:1055F000044615469A46DDF810B00020CAF80000AF
:105600002046FFF7FAFE0290029818B1029807B000
:10561000BDE8F08FE07908B1E079F8E7A07900F013
:10562000010008B90720F2E7D4E90210401A0090FF
:105630000098854200D9009DB3E02089C0F308009E
:10564000002876D120688078401EA16800EA5120A9
:1056500000F0FF09B9F1000F1FD1A06810B920694F
:1056600001900CE0606A28B12046A168FFF79CF920
:10567000019004E061692068FEF7E6FF019001985F
:10568000022802D20220E071C1E70198401C10B943
:105690000120E071BBE70198606161692068FEF755
:1056A000C6FF064616B90220E071B0E74E444FEA45
:1056B0005528B8F1000F29D009EB08002168897836
:1056C000884203D920688078A0EB090821684878CF
:1056D000434632465946FEF74AFE10B10120E071BA
:1056E00095E7A07900F0400068B1A069801B4045B3
:1056F00009D2A169891B0BEB41204FF4007204F120
:105700002801FEF7BDFE4FEA482740E0A069B042FD
:1057100020D0A07900F0400080B1216848780123B2
:1057200004F12801A269FEF74BFE18B10120E071D7
:105730006DE710E0A07920F04000A0712168487862
:105740000123324604F12801FEF711FE10B10120B9
:10575000E0715CE7A6612089C0F30800C0F500771E
:10576000AF4200D92F462089C0F3080204F1280077
:1057700011183A46584607E052526141727241612F
:105780005E000020C01E0020FEF77AFE00BFBB4472
:10579000A0683844A060DAF800003844CAF8000075
:1057A000ED1B002D7FF449AF002030E72DE9FF4FBE
:1057B00083B0044615469B46049801900020CBF820
:1057C00000002046FFF719FE0290029818B10298D7
:1057D00007B0BDE8F08FE07908B1E079F8E7A0798B
:1057E00000F0020008B90720F2E7A0682844A16889
:1057F000884200D20025BEE02089C0F308000028BE
:105800007DD120688078401EA16800EA512000F018
:10581000FF0ABAF1000F26D1A06838B9276997B9F5
:1058200000212068FFF755F807460CE0606A28B1B0
:105830002046A168FFF7B8F8074604E061692068D0
:10584000FFF747F8074607B998E0012F02D1022079
:10585000E071BDE7781C10B90120E071B8E767611D
:10586000206900B92761A07900F0400078B1216873
:105870004878012304F12801A269FEF7A1FD10B1C7
:105880000120E071A4E7A07920F04000A0716169D7
:105890002068FEF7CCFE064616B90220E07197E7B5
:1058A00056444FEA5529B9F1000F2CD00AEB0900F4
:1058B00021688978884203D920688078A0EB0A099A
:1058C000216848784B4632460199FEF779FD10B1C0
:1058D0000120E0717CE7A069801B48450ED2A069D9
:1058E000801B019A02EB40214FF4007204F1280062
:1058F000FEF7C6FDA07920F04000A07100E016E0A0
:105900004FEA49282AE0A069B0420FD0D4E9020149
:1059100088420BD2216848780123324604F12801DD
:10592000FEF725FD10B10120E07151E7A661208945
:10593000C0F30800C0F50078A84500D9A846218921
:10594000C1F3080204F12801501842460199FEF7FC
:1059500097FDA07940F04000A07100BF019840443D
:105960000190A0684044A060DBF800004044CBF800
:105970000000A5EB0805002D7FF43EAF00BFD4E981
:105980000201884201D9A068E060A07940F02000BF
:10599000A07100201CE72DE9F04104462046FFF7E6
:1059A0002CFD0746002F4CD1A07900F020000028E4
:1059B00047D0A07900F0400078B1216848780123F1
:1059C00004F12801A269FEF7FBFC10B10120BDE83B
:1059D000F081A07920F04000A071E1692068FEF715
:1059E000A9FD0746002F2CD1256AE87A40F0200057
:1059F000E872207B2877A089010A6977E068010CAA
:105A0000A977E068010EE97728462169FFF7FAF8DF
:105A1000FEF725FD0646AE75310AE975310C29768B
:105A2000310E69760020A8740021E974A07920F075
:105A30002000A0710120216808712068FEF793FD05
:105A400007463846C3E770B505462846FFF7A3FF6B
:105A5000044644B92846FFF7D0FC04460CB90020A0
:105A60002860204670BD2046FCE72DE9FE4F044625
:105A70000D462046FFF7C1FC0290029810B1029833
:105A8000BDE8FE8FE07908B1E079F9E7606A0028A7
:105A900071D0681C00283BD1D4F8248058F804AB9E
:105AA0004FF0020926693EB300BF00964FF0000B8D
:105AB00009F1020900BF01960BF1010B3146206884
:105AC000FEF7C2FD0646012E02D80220E071D7E79C
:105AD000701C10B90120E071D2E70198401C864289
