:020000040800F2
:100000008848002049020008E9220008E12200088F
:10001000E52200087F1F0008F92C000800000000FE
:100020000000000000000000000000005B0200086B
:1000300039210008000000005F020008E5250008E3
:1000400063020008630200086302000863020008FC
:1000500063020008630200086302000863020008EC
:1000600063020008630200086302000863020008DC
:1000700063020008630200086302000863020008CC
:1000800063020008630200086302000863020008BC
:10009000D52C000863020008630200086302000810
:1000A00063020008312700086302000863020008A9
:1000B000C92700085D280008F52800086302000829
:1000C000630200086302000863020008630200087C
:1000D00063020008B5290008192A00087D2A0008D3
:1000E00063020008630200086302000800F002F8DF
:1000F00000F09BF80AA090E8000C82448344AAF127
:100100000107DA4501D100F090F8AFF2090EBAE824
:100110000F0013F0010F18BFFB1A43F0010318473B
:10012000F04E0000104F0000103A24BF78C878C18C
:10013000FAD8520724BF30C830C144BF04680C60ED
:10014000704700000023002400250026103A28BF35
:1001500078C1FBD8520728BF30C148BF0B60704739
:100160006E2900F03085702900F08782662904F03E
:10017000D186652904F0CE86672904F0CB866129F3
:10018000AFF3008003681B0A28BF41F08001692992
:1001900000F0F881642900F0F581752900F0F28102
:1001A0006F2901F02B80782900F05382E92900F0B3
:1001B000C587E42900F0C287F52900F0BF87EF2941
:1001C00001F02880F82900F052820368DB0928BF7B
:1001D00041F08001632900F04687732900F04B87C6
:1001E000E32901F0DD80F32901F0E280002070476F
:1001F0001FB59DE8030000F01DFC00F022FB00F09D
:10020000F9FB04000020002104F006FD401C6060A2
:100210000020002104F016FDE06000F0D5FB1FBDBA
:1002200010B5002003F0CEFD10BD01F07DF91146A0
:10023000FFF7DEFF04F04EFB01F09BF903B4FFF77C
:10024000EFFF03BC01F06AF90948804709480047FD
:10025000FEE7FEE7FEE7FEE7FEE7FEE7FEE7FEE776
:10026000FEE7FEE704480549054A064B70470000D3
:10027000D1260008ED0000088842002088480020B0
:10028000884400208844002010B500F0B3FB001D16
:1002900010BD00BF8549000070B50446051F00F081
:1002A000A5FB0068002C14BF446870BD002C18BF6B
:1002B000AC423CBF20466468F8D301680A18AA42E1
:1002C00018BF456003D12A680546114401602868BB
:1002D0004119A1421CBF6C6070BD616869602168F2
:1002E0000844286070BD70B50D460646041F00F036
:1002F0007DFBD0F800C0C5B1E6B105F10B0020F0E0
:100300000703AB423CBF002070BD2068984238BF55
:10031000DCF8042013D3C11A08292FD3E01840F8C1
:10032000041B2360FFF7B8FF28E03046FFF7B4FF57
:10033000002070BD2846BDE8704000F0AABB002A2E
:1003400018BFA2423CBF94465268F8D301199142AB
:1003500016D111680844984212D3C11A08293CBF2B
:100360002060506808D35168E01841602168126825
:100370001144C91A01602360CCF80400201D70BD2F
:10038000181F00F086FB050007D021680A1F211DF9
:1003900000F0A3FA201DFFF77FFF284670BD53EA47
:1003A000020C00F069802DE9F04B4FF00006002BA5
:1003B0001FBFB3FA83F503FA05F424FA05F65E408D
:1003C00012BF1643B2FA82F502FA05F4C5F1200510
:1003D0001EBF22FA05FC44EA0C04203556EA044C00
:1003E0004FEA144418BF641C4FF000084FF0000996
:1003F000904271EB030C39D3002919BFB1FA81F790
:1004000001FA07F6B0FA80F700FA07F6C7F12007FD
:100410001EBF20FA07FC46EA0C062037B6FBF4FCA8
:10042000A7EB0507103F07F01F0BCBF120060CFAD6
:100430000BFB2CFA06F644BFB3460026202FA4BFC0
:100440005E464FF0000B5BEA060C08BF4FF0010B55
:1004500019EB0B09ABFB027C48EB0608C01B06FB43
:1004600002CC0BFB03CC71EB0C01C1E70B4602463F
:1004700041464846BDE8F08B13B54FF000004FF001
:100480000001AFF30080BDE81C4070477CB51D46FD
:1004900016460C00009001D02044401E074B7B44C0
:1004A0002A4669460190304600F0B3FD05461CB16E
:1004B0000020694600F0C0FD28467CBDA10B00006D
:1004C0001CB50C46064B7B4469460090204600F064
:1004D000A0FD04460020694600F0AEFD20461CBD8C
:1004E0006F0B000070B5044685690068C10601D530
:1004F000302600E02026C00707D070BDD4E90121D6
:1005000030469047206A401C20626D1EF6D570BDB3
:1005100070B5044685690078C00707D170BDD4E97D
:10052000012120209047206A401C20626D1EF6D5D4
:1005300070BD70B50C460546012A05D028788006A6
:1005400000D5EA69002302E0012305E05B1C934229
:1005500002D2E05C0028F9D1A869E618C01AA861A7
:10056000286A184428622846FFF7BCFF04E0D5E952
:10057000012114F8010B9047B442F8D32846FFF745
:10058000C7FF70BD2DE9F0410646002410687529AB
:10059000314616A510D000F0ABFA002802DA40422E
:1005A00013A507E031688A0701D512A502E04907C3
:1005B00004D511A5012401E000F0A3FA00210A22CC
:1005C00006F1240709E0B0FBF2FCB0FBF2F302FBFA
:1005D0001C00303078541846491C0028F3D12346BB
:1005E0002A463046BDE8F04100F094BA0000000011
:1005F0002D0000002B00000020000000F0B40D468C
:100600000188090502D5214C7C4402E01F4C7C4442
:100610000E34002100F1240608E002F00F07120951
:10062000E75D42EA03721B097754491C52EA03074B
:10063000F3D102780023120704D5702D06D009B13A
:10064000022311342246F0BC00F064BA01231034B6
:10065000F8E770B504460D462146106800F051FADF
:10066000024629462046BDE870400023C6E7D21D59
:1006700022F00703D3E90023C0E70368126843F0C0
:10068000200303600823C3610023B7E70C4900007F
:100690002DE9F05F894604464FF0000ADFF874B197
:1006A000FB44C0F820A02046E1688847002874D0A9
:1006B000252806D0D4E901219047206A401C2062F9
:1006C000F1E700265F462046E16888472028054676
:1006D00007DB312D05D2781910F8200C08B106433C
:1006E000F1E7B00701D526F00406C4F81CA00027E6
:1006F000C4F818A02A2D09D0284604F03BF838B3D6
:1007000004EB8708303DC8F8185019E059F8041B6D
:10071000204604EB87029161E1688847012F054676
:1007200018D1E069002820DA26F020061DE0D8F86C
:10073000180000EB800005EB40003038C8F81800C6
:100740002046E1688847054604F014F80028EED1F9
:10075000012F0AD02E2D08D12046E16888477F1C42
:100760000546022F46F02006C4DBA069002803DA04
:10077000404246F00106A061F00701D026F01006C5
:100780006C2D0BD0682D09D04C2D39D06A2D35D069
:10079000742D35D07A2D33D016E038E0E1682F463D
:1007A00020468847B842054609D16C2F26D04FF421
:1007B0008060E168064320468847054604E06C2FC8
:1007C0001AD04FF4807006430DB3A5F141001928EB
:1007D00002D8203546F400664A462946204626605F
:1007E0004E46FFF7BDFC80B101280BD0F61D26F068
:1007F000070000F1080956E74020E4E78020D8E729
:100800000020D6E706F104094DE7284652E7206AA2
:10081000BDE8F09F9C4800000B4910B5A1F17C0297
:100820000A4CC2E93712372106E000EB104342F8C8
:100830002130074B00FB03400B1EA1F10101F4DC4A
:1008400010BD0120E8E70000BC410020E119D66698
:10085000CD0D010040EA0103024630B59B0710D1DF
:100860004FF0013400E008C208C91D1B9D4315EA82
:10087000C41FF8D013F0FF0102F8011B0DD01B0AB2
:10088000F8E711F8013B002B02F8013B05D011F805
:10089000013B002B02F8013BF3D130BD10B5431CE6
:1008A00002E010F8011B71B18107FAD14FF001325B
:1008B00002C88C1A8C4314EAC211F9D0C01A0A0675
:1008C00003D0C01E10BDC01A10BD0A0401D0801E86
:1008D00010BD0902FCD0401E10BD10B5203AC0F07A
:1008E0000B80B1E81850203AA0E81850B1E8185031
:1008F000A0E81850BFF4F5AF5FEA027C24BFB1E86E
:100900001850A0E8185044BF18C918C0BDE81040DE
:100910005FEA827C24BF51F8043B40F8043B08BFE7
:100920007047D20728BF31F8023B48BF11F8012BAE
:1009300028BF20F8023B48BF00F8012B7047000099
:100940004FF0013C50F8042B51F8043B9A4221D15E
:10095000A2EB0C03934313EACC1317D150F8042BEA
:1009600051F8043B9A4215D1A2EB0C03934313EACE
:10097000CC130BD150F8042B51F8043B9A4209D107
:10098000A2EB0C03934313EACC13DBD04FF000002F
:10099000704700BFD01A01BAB1FA81F101F0180115
:1009A00022FA01F0CB40C1F12001DBB2C0B2C01A83
:1009B0002CFA01F3D11A914311EAC311E6D1704721
:1009C000704770477047000070B5064C7C44064D78
:1009D0007D4403E0206820448047241DAC42F9D1C7
:1009E00070BD00008C4700009C4700000048704725
:1009F0002C420020004870474442002000487047C5
:100A00005C420020704770477047704738B5044615
:100A10000A4600206946AFF30080002808BF38BDB1
:100A200002460099204600F012FC012038BD01204A
:100A300000F055BDF8B5AFF30080054600200C4628
:100A4000102000BF0646A819A0420DD932466946BB
:100A50000020AFF30080070008BF00F040FD0098C1
:100A6000A04218BF0546C419FFF7C0FF056007463E
:100A7000F01D20F007004619284600F0E1FBB442C3
:100A800008BFF8BDA21B31463868BDE8F84000F049
:100A9000DEBB70B50646FFF7A9FF056806F10B003F
:100AA00020F00704B4429CBF002070BD2B466A684A
:100AB000BAB11068A04210D304F1080188423CBFCB
:100AC0005068586007D35168101941601168091BBC
:100AD000016058601460101D70BD13465268002AF2
:100AE000E7D121462846FFF791FF0028DED170BDEF
:100AF00009684A0501D540B27047C905FCD500B266
:100B0000704709684A0501D5C0B27047C905FCD5D0
:100B100080B270472DE9F0470D469946924604464B
:100B200000F124080168880604D5E06921F010016D
:100B3000216000E00120A84201DD471B00E0002702
:100B4000A1697A1902EB0900081AA0612078C00691
:100B500002D42046FFF7C6FC002608E0D4E90121B4
:100B60001AF806009047206A401C761C20624E4509
:100B7000F4DB2078C0060AD52046FFF7B3FC06E078
:100B8000D4E9012130209047206A401C2062381EA1
:100B9000A7F10107F4DC07E0D4E9012118F805000A
:100BA0009047206A401C2062281EA5F10105F3DC55
:100BB0002046FFF7ADFC2078000602D50220BDE8F4
:100BC000F0870120FBE711680268006A530501D530
:100BD00008700AE0D30501D5088006E0130603D5A6
:100BE000C217C1E9000200E00860012070477047A9
:100BF0002DE9FF4F0C461E464FF0FF378BB0D2E970
:100C00000001DDF860800A908A46C1F30A5505B9F3
:100C10003D46002108464FF00000BAF1000F00F4F5
:100C2000400005DA00EB80004FF4400101EA50007B
:100C30004FEA9059B9F1010F00DDB9460A9850EA20
:100C40004A000ED044F61050A5F2FF3545432F144C
:100C5000B8F1000F1ED07542291E1EDDC9F1000239
:100C60001CE0B8F1010F4FF0000001D0302103E08B
:100C7000F24305E02154401CB042FBDB3046002229
:100C8000002121540B99C1F80880C1E900200FB060
:100C9000BDE8F08FBD1B6D1CDEE74A4600DA6942F5
:100CA00006A800F089FB06AB93E8070003AB83E8D6
:100CB000070050460A9900F0ABFC8DE80700A0F54C
:100CC00000501F3800900398002D09DD42F21F01EB
:100CD0004A46084403A90390684600F00AFF08E06A
:100CE000A0F500504A461F3803A90390684600F05B
:100CF00014FF8DE807000004000C03D04FF0FF3014
:100D0000410800E01046B8F1000F03D00022009225
:100D100015461EE0751E05D400F0B3FA3032625558
:100D20006D1EF9D5B3460122084302D000227F1C74
:100D300004E02078302801D100227F1E002A099784
:100D400086D01DE0112D07DA00F09BFA3032625593
:100D50006D1C50EA0102F5D1084302D00098C8B1D9
:100D60000EE00021681E05E0235C625C635422549F
:100D7000401E491C8142F7DBAB46A81B401E099070
:100D8000002004F80B000B98099AC0F80880C0E90D
:100D9000002B7CE711264FF0000859E72DE9F04FB2
:100DA00088460446D21D22F0070191B0D1E9000126
:100DB000CDE90A0102F0C7FF02460B98C00F01D02F
:100DC0002D2007E02068810701D52B2002E020219B
:100DD00001EAC000032A099001D0072A05DB034677
:100DE0004146204600F092FA0BE12078800601D5BA
:100DF000E06900E00620B8F1650F814606D0B8F141
:100E0000660F18D0B8F1670F70D131E00020B9F14A
:100E1000110F009001DB112301E009F101030AAA7F
:100E200001A90CA8FFF7E4FEDDE90C70002609F12A
:100E30000105834647E001204B4600904FF00047F4
:100E40000AAA01A90CA8FFF7D3FEDDE90DB00C99A1
:100E50005D46002610B909F101000D18B9EB050037
:100E600003D4C0F1FF3609F10105A5EB09002BE021
:100E7000B9F1010F01DA4FF001090020B9F1110FAA
:100E80000090484601DD112300E003460AAA01A9AB
:100E90000CA8FFF7ADFEDDE90C704D460026834639
:100EA000207800070AD4AB4500DA5D4601A8012D81
:100EB00004DD411911F8011C302907D04F4502DA31
:100EC00017F1040F04DA012082460FE06D1EEEE7F1
:100ED000002F02DCED1B3E4403E0781CA84200DD3D
:100EE0007D1CB81B00F1010A4FF000472078000775
:100EF00003D4AA4501DB4FF0FF3A0021B7F1004FC0
:100F00000DF143088DF8431024D002202B23002F2D
:100F100001DA7F422D230A21021EA0F1010000DC2C
:100F20005FB197FBF1FC97FBF1F201FB1C7C1746CC
:100F30000CF1300C08F801CDEEE7A8F101000370C8
:100F40002188090501D5452100E06521A0F10108AE
:100F500000F8011C09980FA9A1EB0807FF1D00B1BB
:100F60000120411901EBEA70A1693844081A401EBA
:100F7000A0612078C00602D42046FFF7B3FA099892
:100F800028B1D4E901219047206A401C20622078D2
:100F9000C00622D52046FFF7A5FA1EE0002E04DB8E
:100FA000B34502DD01A8805D00E03020D4E90121D5
:100FB0009047206A401C2062761CAAF101005FEA7B
:100FC000000A0AD1FFF716FDC0680168405CD4E949
:100FD00001219047206A401C2062281EA5F10105CE
:100FE000DCDC07E0D4E9012118F8010B9047206A06
:100FF000401C2062381EA7F10107F3DC2046FFF7F2
:1010000087FA032011B043E601694A1C026108789F
:10101000704700B58FB0CDE9013100210591054938
:101020007944CDE9031011466846FFF731FB0FB054
:1010300000BD0000E5FFFFFF0A6802F8010B0A602F
:101040007047D1E900239A4202D2531C0B60107002
:10105000704710B5436913B1AFF3008001E0FFF7AB
:1010600068FA012010BD127800F124010A700022F4
:101070004A700122EDE711684FF0FF32E9E7000006
:101080002DE9FF5F15468A460446DFF8AC80F84438
:101090000027D8E900103E46CDE9001010E03AF8EC
:1010A00016106A4602A800F0F5F9411C07D0217815
:1010B000890603D5E269391891420DD80744761C98
:1010C0002078800602D5E069B84205DDAE42E6DB55
:1010D0003AF816000028E2D1A069C01BA0612046A2
:1010E000FFF700FAD8E90010CDE90010002017E062
:1010F0003AF818106A4602A800F0CCF9B0F1FF3FA8
:1011000081460BD000250DF1080B05E0D4E9012143
:101110001BF8050090476D1C4D45F7D308F1010001
:10112000B0428046E4DB206A384420622046FFF764
:10113000EFF9BDE8FF9F0000C23E00002DE9F0413D
:101140008046D21D22F007020025D2E90002F529CF
:1011500015A614D0011E72F1000106DA0023D0EBAF
:10116000030063EB020211A608E0D8F800108B0719
:1011700001D50FA602E0490701D50EA601251146AB
:10118000002408F1240704E000F07BF830323A55DF
:10119000641C50EA0102F7D12B46324621464046F4
:1011A000BDE8F041FFF7B6BC000000002D000000D4
:1011B0002B0000002000000030B4002100F12404C6
:1011C00008E002F00705D208303542EA4372DB0836
:1011D0006554491C52EA0305F3D10468002310A2A8
:1011E000250708D504F020040C4304D0C46901236A
:1011F0000CA2641EC46130BCFFF78CBC10B5044661
:1012000021461068FFF77DFC02462046BDE81040ED
:101210000023D1E7D21D22F00701D1E90023CBE75B
:10122000000000003000000010B500F05FF9BDE8DC
:10123000104000F04FB900000048704724420020E1
:1012400000210160C0E9011070471020704703467B
:1012500040688C46002818BF88423CBF034640685F
:10126000F8D318681844884207D00CF1030020F026
:101270000700001D411A521A0146081D0A60FFF7B7
:101280000BB830B5B0F10A024FEA900E71F10003CD
:101290004EEA817EB0EB0E0061EB91014FEA101E29
:1012A0004EEA017E10EB0E0041EB11114FEA102EB9
:1012B0004EEA016E10EB0E0041EB11214FEA104E89
:1012C0004EEA014E10EB0E0041EB1141401841F186
:1012D00000014FEAD00040EA41704FEAD10110EB23
:1012E00080054FEA810444EA907444EB01046D19CF
:1012F00044EB0404521BA3414FF0000348BF0A32E1
:1013000000D530BD401C41F1000130BD2DE9F04158
:101310001F46044603260168072A01F4006004DB27
:1013200008B116A505E016A503E008B115A500E073
:1013300015A521F010002060A069C01EA0610FB1AA
:10134000401EA0612046FFF7CDF84FB1D4E901213E
:1013500038469047206A401C2062C01C206206E08C
:10136000206AFAE7D4E9012115F8010B9047761EAF
:10137000F8D22046FFF7CCF8BDE8F0814E414E0090
:101380006E616E00494E4600696E660010B5436995
:1013900013B1AFF3008001E0FFF772FE012010BD32
:1013A000128800F1240182840022C2840122EDE728
:1013B00011684FF0FF32E9E72DE9F0478146164604
:1013C0008AB0334878440DC88DE80D003048784421
:1013D000801C03AC0DC884E80D0041F69B30084426
:1013E000372190FBF1F290FBF1F5A5F1800501FBAF
:1013F00012041B3C02D56442012000E00020DFF80B
:1014000090A080460027FA44AAF1BE0A0DE0E0074A
:1014100009D03246684607EB47010AEB810100F02C
:101420007CFB8DE8070064107F1C002CEFD1184F67
:101430007F44AC3F18E0E80714D007EB04100DF12F
:10144000180A90E80E008AE80E00C068F04201D148
:1014500098190890324606A903A800F05EFB03AB7A
:1014600083E807006D10641C002DE4D13246694604
:10147000B8F1000F03A802D000F03BFB01E000F040
:101480004CFBC9E90001C9F808200AB0BDE8F087A3
:10149000103C000070B516460C460546FEF7F4FEFB
:1014A000036893F80101012806D0FF2C0FD8185DBE
:1014B00068B101202C7070BDD3F807013246214677
:1014C00003F2071303442846BDE8704018474FF065
:1014D000FF3070BD002801D000F020B8704710B573
:1014E00000F066F8BDE81040FFF7F4BF10B500212A
:1014F00002A000F044F8012010BD000053494750FD
:1015000056464E3A20507572652076697274756140
:101510006C20666E2063616C6C6564000149182064
:10152000ABBEFEE7260002007546FFF785FEAE461D
:1015300005006946534620F00700854618B020B5DF
:10154000FEF790FEBDE820404FF000064FF0000788
:101550004FF000084FF0000B21F00701AC46ACE85B
:10156000C009ACE8C009ACE8C009ACE8C0098D46C8
:1015700070470446AFF300802046FEF75FFE70B56B
:1015800005460C460A2000E06D1C00F039F835B124
:1015900028780028F8D102E0641C00F031F814B17A
:1015A00020780028F8D1BDE870400A2000F028B863
:1015B00010B5012805D0002103A0FFF7E0FF0120AE
:1015C00010BD09A1F8E7000053494752544D454D5D
:1015D0003A204F7574206F662068656170206D65D4
:1015E0006D6F7279000000003A2048656170206DCF
:1015F000656D6F727920636F7272757074656400C7
:1016000008B569468DF800000320ABBE08BD7047E1
:101610005FEA400C08BF91F0000F4FEA8C234FEABD
:10162000C12243EA51514FEA1C5018BF00F5F04067
:101630004FEA300018BF41F000415FEA6C5C00F0F7
:101640002980BCF1FF3F08BF40F080407047130C79
:1016500006BF12044FF0100C4FF0000C130E04BF25
:1016600012020CF1080C130F04BF12010CF1040C50
:10167000930F04BF92000CF1020CD30F04BF520071
:101680000CF1010C11464FF00002A0F11F00A0EB7D
:101690000C00704711F0004F08BF704731F0004157
:1016A0003FF4D5AF0B0C06BF09044FF0100C4FF000
:1016B000000C0B0E04BF09020CF1080C0B0F04BF49
:1016C00009010CF1040C8B0F04BF89000CF1020C12
:1016D000CB0F04BF49000CF1010CCCF12003A0EBAF
:1016E0000C0022FA03F302FA0CF241EA030100F1C2
:1016F0000100704720F07F4C80EA030023F07F4711
:10170000ACEB070303F57C5300F0004003F1FF034B
:101710002DE980494FEA154B09B44FEA144325EAF5
:101720000B4E24EA03480FF2042606EB1327490860
:101730003E785FEA320203FB0667C7F5000707FB46
:1017400006F64FEA54374FEAD64606F1020607FB83
:10175000066CCCF1005C4FEA1C472CEA074C07FBF7
:1017600006F40CFB06F504EB15464FEA961634BF5B
:1017700000204FF000404FEAD13706FB07FC4FEA4C
:101780001C4C0CFB0BF7D21B03FB0CF761EB0701A6
:101790000CFB0EF7B0EB074072EB17420CFB08F79F
:1017A00034BFA2EB0742B2EB074261EB17414FEAAD
:1017B0000C444FEA910706FB07FC4FEA1C4C0CFB5C
:1017C0000BF7B0EBC74072EB573203FB0CF734BF9B
:1017D000A2EBC742B2EBC74261EB57310CFB0EF7ED
:1017E000B0EBC70072EB57720CFB08F734BFA2EBEB
:1017F000C702B2EBC70261EB5771039F4FEA8161E9
:1018000041EA921104EBCC044FEAD1374FEA8262ED
:1018100006FB07FC42EA90124FEA80604FEA1C4C3C
:101820000CFB0BF7D21B03FB0CF761EB07010CFB66
:101830000EF7B0EB074072EB17420CFB08F734BF12
:10184000A2EB0742B2EB074261EB17414FEA8C551E
:101850004FEA910704EB9C2406FB07FC4FEA1C4C63
:101860000CFB0BF7B0EBC74072EB573203FB0CF7E6
:1018700034BFA2EBC742B2EBC74261EB57310CFB5E
:101880000EF7B0EBC70072EB57720CFB08F734BFD2
:10189000A2EBC702B2EBC70261EB577115EB4C2507
:1018A0004FEA816141EA92114FEA82624FEAD137F1
:1018B00042EA901206FB07FC44F100044FEA806004
:1018C0004FEA1C4C0CFB0BF7D21B03FB0CF761EB34
:1018D00007010CFB0EF7B0EB074072EB17420CFB55
:1018E00008F734BFA2EB0742B2EB074261EB1741A6
:1018F00015EB1C154FEA813141EA92414FEA8232E1
:1019000042EA90424FEA80304FEA0C7644F10004FC
:1019100048EA03434EEA0B484FF0000EB2EB080CC6
:1019200071EB030724BF624639464EEB0E0E4FF0B3
:10193000000B0018524149414BEB0B0BB2EB080C6A
:1019400071EB03077BF1000B24BF624639464EEB77
:101950000E0E4FF0000B0018524149414BEB0B0BA0
:10196000B2EB080C71EB03077BF1000B24BF62465E
:1019700039464EEB0E0E51EA020718BF46F001063B
:1019800016EB0E7655F1000254F1000103D5BDE8C7
:101990008901BDE80088BDE88901BDE80048B619A5
:1019A000524141EB0101A3F10103704780807F7E2A
:1019B0007D7C7B7A797877767675747372717170C5
:1019C0006F6E6E6D6C6C6B6A6A6968686766666577
:1019D0006464636362616160605F5F5E5E5D5D5C05
:1019E0005C5B5B5A5A595958585757565655555576
:1019F0005454535352525251515050504F4F4F4ED6
:101A00004E4D4D4D4C4C4C4B4B4B4A4A4A49494923
:101A10004848484747474746464645454544444465
:101A2000444343434342424242414141002B26D476
:101A3000770021D01CB54FEA370703B44FF01000F0
:101A40004FF010014FF000000FBCBDE810400BF14B
:101A5000010BBBF1010F08BF5FEA170722BF12F1AC
:101A6000010211F101014FF0004143F1000300F0C8
:101A7000004043EA00007047F9D35708DAE746EA26
:101A8000064613F1400F4FEA16461FDD13F1200FF3
:101A9000DFBF16430A46002120335B42C8D0C3F1A2
:101AA000200746EA064602FA07F74FEA164646EAD4
:101AB0000706C3F1200722FA03F201FA07F721FA19
:101AC00003F14FF0000342EA0702B1E746EA0206DB
:101AD00046EA06464FEA164646EA0106BCBF46EA13
:101AE0000646360C4FF000034FF000024FF00001A5
:101AF0009EE72DE9C048934630B491E8380007C806
:101B000031EA400C48BF34EA430C03D5FFF7F2FD3D
:101B1000FFF78CFFF0BCBDE800882DE9C048934674
:101B200030B491E8380007C810F0804F08BF13F0B8
:101B3000804F03D100F005F8FFF778FFF0BCBDE857
:101B4000008820F07F4780EA030023F07F4C07EBFA
:101B50000C03A3F57C5300F00040A3F1FE0392F0C8
:101B6000000F00F0B38095F0000F00F077802DE9B2
:101B700001494FEA11404FEA144621EA004800FBB0
:101B800006FC24EA064708FB06F607FB08F800FBFC
:101B900007F718EB06484CEB164C4FEA124B18EBC4
:101BA00007484FEA15464CEB174022EA0B4E0BFB59
:101BB00006FC25EA06470EFB06F607FB0EFE0BFBAE
:101BC00007F71EEB064E4CEB164C4FF000061EEBD3
:101BD000074E4CEB174B18EB0B0840F1000018EBCD
:101BE0000E0B58EB000840F100008F1A4FF0000177
:101BF0003CBFC943661B14BFB5EB040C00213CBFBE
:101C0000C943F61B4FEA17444EEA8E0E27EA0445F5
:101C10004FEA1C4704FB07622CEA074C05FB07F759
:101C20000CFB05F604FB0CFC16EB074642EB1742D7
:101C300016EB0C4642EB1C421BEB060658EB02026D
:101C4000414146EA9E0601D5BDE80189B6195241D7
:101C500041EB0101A3F10103BDE801894FEA1445FD
:101C60004FEA114724EA054621EA074C05FB07F431
:101C700006FB07F70CFB06F105FB0CFC11EB07411B
:101C800044EB17444FEA124711EB0C4144EB1C4460
:101C900022EA074C05FB07F206FB07F70CFB06F6EA
:101CA00005FB0CFC16EB074642EB174216EB0C4605
:101CB00042EB1C456A1854F1000148BF7047B61941
:101CC000524141EB0101A3F10103704795F0000F70
:101CD00037D04FEA11424FEA144721EA024624EA7C
:101CE000074C02FB07F106FB07F70CFB06F402FBAF
:101CF0000CFC14EB074441EB17414FEA154714EB7A
:101D00000C4441EB1C4125EA074C02FB07F506FB9E
:101D100007F70CFB06F602FB0CFC16EB074645EB3F
:101D2000174516EB0C4645EB1C42121951F1000108
:101D300048BF7047B619524141EB0101A3F10103BD
:101D400070474FEA14454FEA114724EA054621EA55
:101D5000074C05FB07F106FB07F70CFB06F24FF0FB
:101D6000000605FB0CFC12EB074241EB174112EB9E
:101D70000C4251EB1C4148BF7047921841EB0101E6
:101D8000A3F10103704770B504460025294620469B
:101D900002F06EFF00BF204670BD21B1826842F0A4
:101DA0000102826003E0826822F0010282607047D3
:101DB00021B1826842F48072826003E0826822F47A
:101DC000807282607047000010B504461248844259
:101DD00008D10121401500F007FB0021601500F03B
:101DE00003FB17E00D48844208D10121001500F0E3
:101DF000FBFA0021201500F0F7FA0BE008488442B6
:101E000008D10121C80300F0EFFA00214FF400408F
:101E100000F0EAFA10BD0000002401400028014053
:101E2000003C0140014600208A6802F004020AB129
:101E3000012000E000207047014600208A6802F07F
:101E400008020AB1012000E00020704730B50246C8
:101E50000020002350680F4C20400D790C6844EAA4
:101E600005242043506090680B4C2040D1E9025477
:101E70002C434D7944EA450420439060D06A20F415
:101E800070000C7C641EE4B2234340EA0350D0622D
:101E900030BD0000FFFEF0FFFDF7F1FFF0B5044696
:101EA0000D4600200021092D11DDE068A5F10A068C
:101EB00006EB4607072606FA07F18843A5F10A064E
:101EC00006EB460603FA06F10843E0600CE02069E1
:101ED00005EB4507072606FA07F1884305EB45069B
:101EE00003FA06F108432061072A0FDA606B561ED9
:101EF00006EB86071F2606FA07F18843561E06EBF7
:101F0000860605FA06F10843606322E00D2A0FDA1F
:101F1000206BD61F06EB86071F2606FA07F18843BB
:101F2000D61F06EB860605FA06F10843206310E08B
:101F3000E06AA2F10D0606EB86071F2606FA07F1F6
:101F40008843A2F10D0606EB860605FA06F1084362
:101F5000E062F0BD816841F008018160704721B105
:101F6000826842F4A002826003E0826822F4A00248
:101F700082607047816841F004018160704700BF52
:101F8000FEE721B9C26842F02002C26003E00269A4
:101F900042F020020261704721B1026842F0010262
:101FA000026004E002684FF6FE731A400260704758
:101FB00001684FF6FE72114001600021016041602E
:101FC0008160C1604B49884208D14A490839496853
:101FD00041F00F01474A083A51608AE045491431FF
:101FE000884208D143490839496841F0F001414A23
:101FF000083A51607DE03F492831884208D13D4987
:102000000839496841F470613A4A083A516070E011
:1020100038493C31884208D136490839496841F489
:102020007041344A083A516063E032495031884285
:1020300008D130490839496841F470212D4A083ADD
:10204000516056E02B496431884208D1294908394A
:10205000496841F47001274A083A516049E025492E
:102060007831884208D123490839496841F07061C4
:10207000204A083A51603CE01F49884206D1011FBE
:10208000096841F00F01021F116032E01A49143152
:10209000884208D11849091F096841F0F001164A21
:1020A000121F116025E014492831884208D11249D5
:1020B000091F096841F470610F4A121F116018E08E
:1020C0000D493C31884208D10B49091F096841F488
:1020D0007041094A121F11600BE0074950318842D4
:1020E00007D10549091F096841F47021024A121FEE
:1020F00011607047080002400804024010B5002239
:10210000026847F6F0739A430C6A8B6823430C69A4
:1021100023434C6923438C692343CC6923434C6A92
:1021200023438C6A23431A430260CB6843600B68E5
:1021300083604B68C36010BD70472DE9F0410246D3
:1021400000250026002000230024002791F803C06A
:102150000CF00F0591F803C00CF0100CBCF1000F4F
:1021600003D091F802C04CEA050591F800C0BCF11B
:10217000000F31D0146800202BE04FF0010C0CFA56
:1021800000F3B1F800C00CEA03069E4220D18300A0
:102190004FF00F0C0CFA03F7BC4305FA03FC4CEAB2
:1021A000040491F803C0BCF1280F06D14FF0010CD4
:1021B0000CFA00FCC2F814C00AE091F803C0BCF1AC
:1021C000480F05D14FF0010C0CFA00FCC2F810C00A
:1021D000401C0828D1D31460B1F800C0BCF1FF0F37
:1021E00034DD546800202EE000F1080C4FF00108A7
:1021F00008FA0CF3B1F800C00CEA03069E4221D1A4
:1022000083004FF00F0C0CFA03F7BC4305FA03FCF4
:102210004CEA040491F803C0BCF1280F05D100F189
:10222000080C08FA0CF8C2F8148091F803C0BCF14D
:10223000480F07D100F1080C4FF0010808FA0CF81C
:10224000C2F81080401C0828CED35460BDE8F0814D
:10225000F0B50A46002300240021002500F00046C6
:10226000B6F1004F02D11D4EF16901E01B4E7168BD
:10227000C0F3034583B200F44016B6F5401F08D101
:1022800021F07061154E766826F07066134F7E60FF
:1022900012E000F48016B6F5801F06D1032606FA78
:1022A00005F4A14341F0706106E0460D360103FAE2
:1022B00006F6B14341F0706122B1460D360103FAD2
:1022C00006F6314300F00046B6F1004F02D1034E4E
:1022D000F16101E0014E7160F0BD000000000140BD
:1022E00000BFFEE700BFFEE77047000070B50021A9
:1022F00000230F22C47804B3154C246804F4E0646E
:10230000C4F5E064210AC1F10403CA40447804FA28
:1023100003F184781440214309010E4C0678A1553D
:10232000047804F01F050124AC4005786D11AD0060
:1023300005F1E025C5F8004109E0047804F01F0527
:102340000124AC40044D0678761145F8264070BD56
:102350000CED00E000E400E080E100E00249014310
:10236000024A1160704700000000FA050CED00E021
:1023700001460020034A506820F440400843506062
:10238000704700000010024029B1064A526902431A
:10239000044B5A6104E0034A52698243014B5A617B
:1023A000704700000010024029B1064AD26902437A
:1023B000044BDA6104E0034AD2698243014BDA61DB
:1023C000704700000010024029B1064A926902439A
:1023D000044B9A6104E0034A92698243014B9A617B
:1023E000704700000010024029B1064AD26802433B
:1023F000044BDA6004E0034AD2688243014BDA609E
:10240000704700000010024030B500210022002477
:1024100000232D4D6D6805F00C0121B1042905D074
:10242000082923D105E0294D056022E0274D0560EC
:102430001FE0254D6D6805F47012234D6D6805F49D
:102440008034022505EB92421CB9214D55430560AD
:102450000BE01D4D6D6805F400351DB11C4D554355
:10246000056002E0194D5543056002E0174D056017
:1024700000BF00BF144D6D6805F0F0010909154D4E
:102480006B5C0568DD4045600F4D6D6805F4E061EB
:10249000090A104D6B5C4568DD4085600A4D6D682A
:1024A00005F46051C90A0B4D6B5C4568DD40C560A1
:1024B000054D6D6805F44041890B074D6B5CC5689F
:1024C000B5FBF3F5056130BD0010024000127A0043
:1024D00000093D00140000202400002010B500F089
:1024E00001F810BD0CB50020019000903148006843
:1024F00040F480302F49086000BF2E48006800F487
:10250000003000900198401C0190009818B9019883
:10251000B0F5A06FF1D12748006800F4003010B189
:102520000120009001E000200090009801283FD198
:102530002148006840F010001F4908600846006804
:1025400020F00300086008460068086019484068E9
:102550001849486008464068486008464068486036
:102560000846406820F47C1048600846406840F403
:10257000981048600846006840F08070086000BF0E
:102580000C48006800F000700028F9D00948406845
:1025900020F00300074948600846406840F0020008
:1025A000486000BF0348406800F00C000828F9D1DB
:1025B0000CBD00000010024000200240042808D199
:1025C0004FF0E021096941F004014FF0E022116170
:1025D00007E04FF0E021096921F004014FF0E0220B
:1025E0001161704710B50E4802684068521C40F1F6
:1025F00000000B490A6048600A4802880023086806
:102600004968FDF7CCFE00214A404B401A4305D1F2
:102610000548006810B104490868804710BD0000F3
:1026200078000020860000208000002010B50021E6
:1026300000200022214B5B6803F00C0121B104292A
:1026400006D0082928D107E01D4B1E4C236027E047
:102650001B4B1C4C236023E0184B5B6803F4701089
:10266000164B5B6803F48032022303EB904022B9DF
:10267000154B4343134C23600DE0104B5B6803F490
:10268000003323B1104B43430E4C236003E00C4B4B
:1026900043430C4C236003E0094B0A4C236000BF0A
:1026A00000BF064B5B68C3F30313084CE15C054BAA
:1026B0001B68CB40034C236010BD0000001002409B
:1026C00000127A000000002000093D0004000020F4
:1026D00010B51348006840F0010011490860084631
:1026E0004068104908400E494860084600680E4995
:1026F00008400B4908600846006820F48020086004
:102700000846406820F4FE0048604FF41F008860CF
:10271000FFF7E4FE4FF000600449086010BD0000C0
:10272000001002400000FFF8FFFFF6FE08ED00E099
:1027300010B50121224800F02CF901280BD12148C5
:102740000088401C1F490880002002F057FA012130
:102750001B4800F01BF90221194800F01AF9012862
:1027600006D1072002F04AFA0221154800F00EF9BE
:102770000421134800F00DF9012806D1082002F0C9
:102780003DFA04210E4800F001F908210C4800F040
:1027900000F9012806D1092002F030FA0821084882
:1027A00000F0F4F81021064800F0F3F8012806D1F3
:1027B0000A2002F023FA1021014800F0E7F810BDCA
:1027C000002C0140A400002010B50121880700F072
:1027D000E0F801280BD120480088401C1E490880E1
:1027E000012002F00BFA0121880700F0CFF8022146
:1027F000480700F0CEF8012806D10B2002F0FEF9C0
:102800000221480700F0C2F80421080700F0C1F8CF
:10281000012806D10C2002F0F1F90421080700F08C
:10282000B5F80821C80600F0B4F8012806D10D203B
:1028300002F0E4F90821C80600F0A8F81021880683
:1028400000F0A7F8012806D10E2002F0D7F91021D8
:10285000880600F09BF810BDA600002010B50121ED
:10286000224800F096F801280BD121480088401C2E
:102870001F490880022002F0C1F901211B4800F025
:1028800085F80221194800F084F8012806D10F20AC
:1028900002F0B4F90221480700F078F80421134847
:1028A00000F077F8012806D1102002F0A7F90421E2
:1028B0000E4800F06BF808210C4800F06AF8012877
:1028C00006D1112002F09AF90821084800F05EF8BC
:1028D0001021064800F05DF8012806D1122002F010
:1028E0008DF91021014800F051F810BD000400409E
:1028F000A800002010B50121224800F04AF8012864
:102900000BD121480088401C1F490880032002F099
:1029100075F901211B4800F039F80221194800F02F
:1029200038F8012806D1132002F068F90221154871
:1029300000F02CF80421134800F02BF8012806D1F0
:10294000142002F05BF904210E4800F01FF8082162
:102950000C4800F01EF8012806D1152002F04EF9AF
:102960000821084800F012F81021064800F011F87C
:10297000012806D1162002F041F91021014800F08B
:1029800005F810BD00080040AA000020CA430282DA
:10299000704730B50246002000230024158A05EA5E
:1029A0000103958905EA010413B10CB1012000E08F
:1029B000002030BD10B540F22551134800F0CAF890
:1029C00001280AD1114908680021114A126890476C
:1029D00040F225510C4800F08CF840F226610A487C
:1029E00000F0B8F801280DD100200A490870074905
:1029F00008680121064A1268904740F226610248A1
:102A000000F077F810BD000000380140A040002021
:102A10009C0000209400002010B540F2255113487E
:102A200000F098F801280AD1114948680021114A9C
:102A30001268904740F225510C4800F05AF840F2D5
:102A400026610A4800F086F801280DD100200A49C5
:102A50004870074948680121064A1268904740F2C9
:102A60002661024800F045F810BD00000044004017
:102A7000A04000209C0000209400002010B540F2EF
:102A80002551134800F066F801280AD111498868D9
:102A90000021114A1268904740F225510C4800F07D
:102AA00028F840F226610A4800F054F801280DD1B8
:102AB00000200A498870074988680121064A12687F
:102AC000904740F22661024800F013F810BD000064
:102AD00000480040A04000209C00002094000020FE
:102AE00001F40072B2F5007F00D100BFCA4302803A
:102AF000704710B50022002340F66A14A14200D1AD
:102B000000BF0A1201249440A3B2DC43048010BD2C
:102B100021B1828942F40052828104E082894DF61B
:102B2000FF731A40828170471AB1838A0B438382F4
:102B300002E0838A8B438382704702460020B1F50E
:102B4000007F00D100BF13880B400BB1012000E0D3
:102B50000020704770B502460024002300250020A5
:102B600040F66A16B14200D100BFC1F3421501F030
:102B70001F03012606FA03F3012D02D19689334083
:102B800006E0022D02D1168A334001E0968A3340D6
:102B90000C12012606FA04F41688344013B10CB165
:102BA000012000E0002070BDF0B50346002400269F
:102BB0000025002040F66A17B94200D100BF184630
:102BC000C1F3421401F01F06012707FA06F5012C94
:102BD00001D10C3004E0022C01D1103000E014309F
:102BE0001AB107682F43076002E00768AF43076028
:102BF000F0BD00002DE9F04786B005460E460024E2
:102C0000A24600BFA1460027B08900B100BF2F46F1
:102C10002C8A4CF6FF700440F08804432C82AC8967
:102C20004EF6F3100440B088318908437189084397
:102C30000443AC81AC8A4FF6FF400440B0890443A2
:102C4000AC8201A8FFF7E0FB1F48874202D1DDF804
:102C500010A001E0DDF80CA0A88900F4004040B10C
:102C60000AEBCA0000EB0A1031684900B0FBF1F82A
:102C700007E00AEBCA0000EB0A1031688900B0FBDC
:102C8000F1F86420B8FBF0F004012009642101FB95
:102C90001089A88900F4004040B1322000EBC9003F
:102CA000B0FBF1F000F00700044308E0322000EB35
:102CB00009106421B0FBF1F000F00F0004432C81F7
:102CC00006B0BDE8F087000000380140C1F30802FB
:102CD0008280704710B50548006805490968884733
:102CE00000210448FFF74DF910BD00008C000020C2
:102CF000900000200064004000BFFEE710B50446CD
:102D00002046FDF789FD10BD0948016809480162A8
:102D10000748001D01680748C16105480830006880
:102D20000449886102480838008888847047000098
:102D3000E8F7FF1F7040002010B50F4800F0ADFB12
:102D400004460E490E4A12688C540A2C0DD10021FB
:102D50000A4A0B480068401C11541146094800F00B
:102D60002CFD00200649086004E005480068401C6E
:102D70000349086010BD0000EC050020D437002096
:102D8000480000203406002010B50F4800F085FBF5
:102D90000446E1B20D4800F0B2FC0D490D4A12683C
:102DA0008C540A2C09D10021094A0A480068401CA9
:102DB000115400200849086004E007480068401CDE
:102DC0000549086010BD000034060020EC05002015
:102DD000D43B00204C0000204800002010B586B0F5
:102DE0000446FFF723FC01A8FFF70EFB0198606083
:102DF0000298A0600498E0600398206106B010BDBE
:102E000000B58BB00F48FFF7D3F80F4800900F487C
:102E10000190002002901020039000200490802058
:102E20000590400006908000079020200890000246
:102E3000099000200A9069460248FFF75FF90BB03D
:102E400000BD0000080002404C240140B4400020B6
:102E500000B585B04848FEF7B7FF0020009001207C
:102E60008DF804008DF805004FF4602002900020DA
:102E7000039010208DF8100069463F48FEF7E6FFEA
:102E80000323012200213C48FFF708F80323022214
:102E900001213948FFF702F803231A460221364878
:102EA000FEF7FCFF0323042219463348FEF7F6FF22
:102EB0000323052204213048FEF7F0FF03230622F6
:102EC00005212D48FEF7EAFF0323072206212A48A1
:102ED000FEF7E4FF0323082207212748FEF7DEFF61
:102EE0000323092208212448FEF7D8FF03230A22DE
:102EF00009212148FEF7D2FF03230B220A211E4895
:102F0000FEF7CCFF03230C220B211B48FEF7C6FF64
:102F100003230D220C211848FEF7C0FF03230E22C5
:102F20000D211548FEF7BAFF03230F220E21124888
:102F3000FEF7B4FF032310220F210F48FEF7AEFF68
:102F400001210D48FEF734FF01210B48FEF725FF54
:102F50000948FEF7FFFF00BF0748FEF76DFF002896
:102F6000FAD10548FFF706F800BF0348FEF75AFFFD
:102F70000028FAD105B000BD002401402DE9FE4F24
:102F800001F024FC01224FF4E131474800F08BFAB4
:102F900001224FF4E131454800F085FA002244490E
:102FA000414800F0FBFB00224249404800F0F6FB9C
:102FB00041F28830002101F0E4FB3FA13B4800F0E2
:102FC000FCFB4FF47A70002101F0DBFB3BA137489A
:102FD00000F0F3FB4FF47A70002101F0D2FB39A12D
:102FE000324800F0EAFB41F28830002101F0C9FBD1
:102FF00038A12E4800F0E1FB4FF47A70002101F077
:10300000C0FB6C4637A52946204600F036FE044634
:1030100000BFA2463649504600F086FE814635A1E3
:1030200000F06CFE8046344900F07EFE074633A176
:1030300000F064FE064631461C4800F085FD8346DC
:103040006C46204600F02BFE044642F21070002130
:1030500001F097FB2AA1154800F0AFFB4FF47A70FE
:10306000002101F08EFB2AA1104800F0A6FB4FF4CE
:103070007A70002101F085FB29A10C4800F09DFB2E
:1030800041F28830002101F07CFB31A1074800F0BB
:1030900094FB42F21070002101F073FB2FA1034852
:1030A00000F08BFBBDE8FE8FEC050020340600200D
:1030B000392D0008892D00082B2B2B0041540D0AB7
:1030C0000000000041542B524553544F52450D0A05
:1030D0000000000041542B43574D4F44453D310DF6
:1030E0000A00000041542B43574A41503D22000042
:1030F000BC370020222C2200C8370020220D0A00F5
:1031000041542B4349504D55583D300D0A000000A5
:1031100041542B4349504D4F44453D310D0A000069
:1031200041542B534156455452414E534C494E4BFA
:103130003D312C223132312E34322E3138302E3383
:1031400030222C383238322C22544350220D0A00BF
:1031500041542B5253540D0A000000007B224D2293
:103160003A22636865636B696E222C224944223AD5
:1031700022313132222C224B223A2263383830332A
:1031800036663963227D0D0A0000000010B501216A
:103190004802FFF719F94FF40040FFF7E9F8012161
:1031A0000846FFF7F1F8FFF753FEFFF729FE01216C
:1031B0000348FEF7D4FE01210248FEF7EDFE10BDE4
:1031C00000240140080002402DE9F04104460E466B
:1031D000174604F110054FF000084146284601F05B
:1031E00047FD00BFA5F110046660A7602046BDE85A
:1031F000F08110B50024047401608260436010BD4A
:103200000160027170472DE9F04104460D461646F3
:103210001F46DDF818800020207265600D213046C1
:1032200000F00CF80D21384600F008F80D2140465A
:1032300000F004F82046BDE8F081000038B50446EF
:103240000D46594A6068811A904223D009DC5749DB
:10325000084480B1B0F5806F12D0B0F5006F2DD169
:1032600013E0B1F5806F1AD0B1F5006F1CD0B1F545
:10327000406F23D11DE001210420FFF7A5F81DE0D8
:1032800001210820FFF7A0F818E001211020FFF726
:103290009BF813E001212020FFF796F80EE00121B2
:1032A0004020FFF791F809E001218020FFF78CF81A
:1032B00004E001210802FFF787F800BF00BF102DCE
:1032C00061D2DFE805F024282C181C20080C10140B
:1032D00030384048505800208DF8030057E0042053
:1032E0008DF8030053E028208DF803004FE04820BC
:1032F0008DF803004BE014208DF8030047E0142004
:103300008DF8030043E014208DF803003FE0102007
:103310008DF803003BE010208DF8030037E010200B
:103320008DF8030033E001210846FFF74DF81C201B
:103330008DF803002BE001210846FFF745F81C201B
:103340008DF8030023E001210846FFF73DF81C201B
:103350008DF803001BE001210846FFF735F818201F
:103360008DF8030013E001210846FFF72DF818201F
:103370008DF803000BE001210846FFF725F818201F
:103380008DF8030003E004208DF8030000BF00BFA8
:103390002089ADF8000003208DF8020069466068BE
:1033A000FEF7CBFE38BD00000014014000F8FEBF60
:1033B00070B50B461446436004811C4E9A1BB34201
:1033C0001AD009DC1A4A1A4482B1B2F5806F0FD0C4
:1033D000B2F5006F18D10DE0B2F5806F0ED0B2F5E6
:1033E000006F0DD0B2F5406F0ED10BE000210DE063
:1033F00001210BE0022109E0032107E0042105E09F
:10340000052103E0062101E0002100BF00BF0022EA
:1034100006E00689164116B9561EF5B202E0521CA6
:103420000F2AF6DD05EB0112027070BD0014014099
:1034300000F8FEBF2DE9F04105460E462F4606EB8B
:10344000460107F1180000EBC104606920B920684B
:1034500010B12068804709E0606930B1206820B170
:10346000211D62692068904700E000BFBDE8F0813F
:1034700070B504460E461546E068FEF799FDA06853
:10348000001DE1688860E068C660E068456042F25F
:103490009900E1680860284670BD01468868808808
:1034A000C0F3080070477CB505460E4614464FF041
:1034B0007E50002308223146CDE90004284600F062
:1034C00001F87CBD2DE9FF5F04460E4691469A4601
:1034D000DDF83CB084F814B0207D012803D101212F
:1034E0000846FEF751FF6A4AA068811A904227D029
:1034F00006DC6849084488B1B0F5806F2CD116E02D
:10350000B1F5806F22D0B1F56C4F25D10121880330
:10351000FEF75AFF6048E06000251DE001214804E5
:10352000FEF742FF5C483C30E060012514E00121D9
:103530008804FEF739FF58482838E06002250BE080
:103540000121C804FEF730FF032505E0012108052D
:10355000FEF72AFF042500BF00BF22464F49284638
:1035600001F034FB0096B9F1080F03D0B9F1090F4F
:1035700009D103E00020ADF8040008E04FF48050CA
:10358000ADF8040003E00020ADF8040000BF00BF68
:10359000BAF1000F06D0BAF1010F07D0BAF1020F4D
:1035A0000ED108E00020ADF808000DE04FF4806077
:1035B000ADF8080008E04FF4C060ADF8080003E083
:1035C0000020ADF8080000BF00BF0E9801F0F0FB2E
:1035D00007460022324B01F05BFB04D14FF48050D0
:1035E000ADF8060021E04FF07E510E9801F018FC76
:1035F00003D10020ADF8060017E00E9801F0D8FBCB
:1036000007460022274B01F043FB04D14FF4405002
:10361000ADF8060009E04FF080410E9801F000FC83
:1036200003D14FF40050ADF806000020ADF80C00B7
:103630000C20ADF80A006946A068FFF7DBFA1A49CA
:10364000A068884208D013494942A068884203D044
:103650001649A068884207D1207D012804D10122A3
:103660008021A068FFF760FA0121A068FFF750FAF7
:103670000121204600F010F940F22661A068FFF712
:1036800038FA402103484042FFF72AFABDE8FF9F7D
:10369000004C004000BCFFBF44000240353400082D
:1036A0000000E03F0000F83F0038014000480040C3
:1036B00070B504460E461546204600F05FF92069B5
:1036C00010B1206901F07AF8204600F0B5F82846DC
:1036D00001F0F8F82061206908B9002070BD0020D1
:1036E00004E016F8011B22691154401CA842F8D3CB
:1036F000AAB22046216900F013F82846EEE770B51B
:1037000004460D4600BF8021A068FFF716FA002886
:10371000F9D02946A068FFF7D9FA012070BD000052
:1037200070B504460D4616461949A068884201D175
:10373000012000E00020174AA168914201D1012137
:1037400000E000210843144AA168914201D10121FF
:1037500000E00021084340B1207D012805D1324618
:1037600029462046FFF784FE11E00BE000BF8021D0
:10377000A068FFF7E2F90028F9D015F8011BA0684E
:10378000FFF7A4FA301EA6F101018EB2EED170BD92
:1037900000380140004400400048004070B5044635
:1037A0000D46164645B106EB460204F1180101EB41
:1037B000C200294601F05CFA70BD0FB4F8B50446AA
:1037C00000254FF48076204600F0D8F8206910B12B
:1037D000206900F0F3FF204600F02EF808A80090C2
:1037E00000BF304601F06EF82061206910B9F8BCC6
:1037F0005DF814FB20693146009B079AFCF746FEF2
:103800000546681C08B1B54205D980364FF0FF3532
:10381000206900F0D3FF681C0028E2D02069009ADC
:103820000799FCF74DFE00200090AAB220462169BE
:10383000FFF776FF00BFDAE7144B8168CA1A994296
:1038400019D006DC124A114469B1B1F5806F1AD162
:103850000DE0B2F5806F12D0B2F56C4F13D101219B
:103860000C4A11700FE001210A4A51700BE001214E
:10387000084A917007E00121064AD17003E0012156
:10388000044A117100BF00BF70470000004C0040A7
:1038900000BCFFBF9400002038B504460D462A4600
:1038A00040F22551A068FFF77FF92A4640F22661D1
:1038B000A068FFF779F940F22661A068FFF719F9CF
:1038C00040212B48FFF70CF92A4AA068811A904240
:1038D00031D006DC28490844A8B1B0F5806F42D148
:1038E0001DE0B1F5806F32D0B1F56C4F3BD1252092
:1038F0008DF8000000208DF801008DF802000120F5
:103900008DF803002FE026208DF8000000208DF8B0
:1039100001008DF8020001208DF8030023E027202C
:103920008DF8000000208DF801008DF802000120C4
:103930008DF8030017E034208DF8000000208DF88A
:1039400001008DF8020001208DF803000BE0352006
:103950008DF8000000208DF801008DF80200012094
:103960008DF8030000BF00BF6846FEF7BFFC38BDFE
:1039700000440040004C004000BCFFBF70B504464E
:1039800001F01EF90546544AA068811A904266D09B
:1039900006DC5249084430B3B0F5806F22D141E0D3
:1039A000B1F5806F79D0B1F56C4FF7D115E040F2E9
:1039B00026614B48FFF7CEF801280ED10020494977
:1039C0000870494908680121484A1268904740F246
:1039D00026614348FFF78DF803E04248007801284C
:1039E000E5D000BF76E017E040F226613B48404258
:1039F000FFF7B0F801280FD100203A4948703A4942
:103A000048680121394A1268904740F226613348DC
:103A10004042FFF76EF803E0324840780128E3D0D7
:103A200000BF57E015E040F226613148FFF792F8F9
:103A300001280ED100202B4988702B49886801216C
:103A40002A4A1268904740F226612948FFF751F848
:103A500003E0244880780128E5D000BF3AE016E072
:103A600040F226611C48FFF775F801280FD10020AD
:103A70001C49C8701C49C86801211C4A126890473B
:103A800040F226611448FFF734F804E005E01548D9
:103A9000C0780128E4D000BF1CE015E040F22661A8
:103AA0001448FFF757F801280ED100200D4908717E
:103AB0000D49086901210D4A1268904740F22661BC
:103AC0000C48FFF716F803E0064800790128E5D016
:103AD00000BF00BF00BF70BD004C004000BCFFBF76
:103AE0000038014094000020A04000209C000020ED
:103AF00000480040005000402DE9F04104460D46CA
:103B000016461F4620460D49216000BF04460C485A
:103B10002060022318220B4904F1180000F040F93C
:103B2000A0F11804A5600D213046FFF787FB07219F
:103B30003846FFF783FB2046BDE8F08108500008B7
:103B4000F84F0008871D00082DE9F04104460D4696
:103B500000BF2E6800BFAF6800BF20683A463146FC
:103B6000436820469847BDE8F0812DE9F0410546BD
:103B70000C461646002709E014F8011B2868026865
:103B80002846904708B17F1C00E003E03000A6F112
:103B90000106F1D100BF3846BDE8F0810160027135
:103BA0004271704710B50446206810B12068FCF7D8
:103BB00073FB00202060A060606010BD70B50446FB
:103BC0000D46691C2068FCF78EFB06461EB1266078
:103BD0006560012070BD0020FCE770B504460E460C
:103BE00015462946204600F030F820B92046FFF758
:103BF000D9FF204670BDA56031462068FCF72AFE3B
:103C00002046F7E7002101604160816070472DE99F
:103C1000F04104460E461546A068471916B9002023
:103C2000BDE8F0810DB90120FAE73946204600F0E1
:103C30000CF808B90020F3E7A2682168881831461B
:103C4000FCF708FEA7600120EAE770B504460D46C0
:103C5000206820B16068A84201D3012070BD2946C8
:103C60002046FFF7ABFF30B1A06810B900202168F3
:103C700008700120F2E70020F0E770B505460C4619
:103C80002846FFF7BFFF44B12046FCF707FE064673
:103C9000324621462846FFF7A0FF284670BD10B5E2
:103CA00004462068FCF7F8FA204610BD00210160A8
:103CB000416070474160026070470160826043600C
:103CC00070472DE9F04104460E4604F138050027FF
:103CD0003946284600F0CCFF00BFA5F138046660E5
:103CE0004FF6FF70E081012020820220207000202A
:103CF000A061E06160612046BDE8F0812DE9F041FE
:103D000005460C462E464CB12046FCF7C7FD07463B
:103D10003A4621463046FFF77AFF10B93046FFF7A2
:103D200041FF3046BDE8F08170B505460C462E4691
:103D30003046A2682168FFF76AFF10B93046FFF7E6
:103D400031FF304670BD490050EAC12018BF042041
:103D50004A0D18BF40F0010040F2FF72B2EB515F14
:103D600008BF40F00200012808BF052070472DE978
:103D7000F041074690460E4600251020FCF789FECC
:103D800004000BD0C4F80C80C4E90176FCF736FEC1
:103D90000168216004602846BDE8F0810125FAE74A
:103DA0002DE9F0411C4617460E00804607D0054617
:103DB00002E02846B0473D442046641EF9D2404602
:103DC000BDE8F0812DE9F0410646FCF717FE80467C
:103DD00013E026B1E068B04201D025460EE020682D
:103DE0002860D4E90101D8F8007088472046FCF724
:103DF00053FAD8F80000B84200D045462C68002C91
:103E0000E7D1BDE8F0810020FDF70EBA08B5012228
:103E1000FD49FE48FFF7CCFA0222FB49FC48FFF7B8
:103E2000C7FA0422F849FB48FFF7C2FA0822F6490C
:103E3000F948FFF7BDFA1022F349F848FFF7B8FA3E
:103E40002022F149F648FFF7B3FA4022EE49F5483F
:103E5000FFF7AEFA8022EC49F348FFF7A9FA4FF4D6
:103E60008072E949F148FFF7A3FA4FF40072E6497E
:103E7000EF48FFF79DFA4FF48062E349ED48FFF702
:103E800097FA4FF40062E049EB48FFF791FA4FF4DC
:103E90008052DD49E948FFF78BFA4FF40052DA49C6
:103EA000E748FFF785FA4FF48042D749E548FFF726
:103EB0007FFA4FF40042D449E348FFF779FA012230
:103EC000E249E348FFF774FA0222E049E148FFF7CC
:103ED0006FFA0422DD49E048FFF76AFA0822DB495D
:103EE000DE48FFF765FA1022D849DD48FFF760FA8F
:103EF0002022D649DB48FFF75BFA4022D349DA4853
:103F0000FFF756FA8022D149D848FFF751FA4FF40B
:103F10008072CE49D648FFF74BFA4FF40072CB4976
:103F2000D448FFF745FA4FF48062C849D248FFF7FA
:103F30003FFA4FF40062C549D048FFF739FA4FF411
:103F40008052C249CE48FFF733FA4FF40052BF49BE
:103F5000CC48FFF72DFA4FF48042BC49CA48FFF71E
:103F600027FA4FF40042B949C848FFF721FA012265
:103F7000C749C848FFF71CFA0222C549C648FFF7DF
:103F800017FA0422C249C548FFF712FA0822C049AD
:103F9000C348FFF70DFA1022BD49C248FFF708FADF
:103FA0002022BB49C048FFF703FA4022B849BF4866
:103FB000FFF7FEF98022B649BD48FFF7F9F94FF443
:103FC0008072B349BB48FFF7F3F94FF40072B04970
:103FD000B948FFF7EDF94FF48062AD49B748FFF7F4
:103FE000E7F94FF40062AA49B548FFF7E1F94FF449
:103FF0008052A749B348FFF7DBF94FF40052A449B8
:10400000B148FFF7D5F94FF48042A149AF48FFF717
:10401000CFF94FF400429E49AD48FFF7C9F901229C
:10402000AC49AD48FFF7C4F90222AA49AB48FFF7F3
:10403000BFF90422A749AA48FFF7BAF90822A549FF
:10404000A848FFF7B5F91022A249A748FFF7B0F931
:104050002022A049A548FFF7ABF940229D49A4487A
:10406000FFF7A6F980229B49A248FFF7A1F94FF478
:1040700080729849A048FFF79BF94FF40072954968
:104080009E48FFF795F94FF4806292499C48FFF7EC
:104090008FF94FF400628F499A48FFF789F94FF47E
:1040A00080528C499848FFF783F94FF400528949B0
:1040B0009648FFF77DF94FF4804286499448FFF710
:1040C00077F94FF4004283499248FFF771F90122D2
:1040D00091499248FFF76CF902228F499048FFF707
:1040E00067F904228C498F48FFF762F908228A4950
:1040F0008D48FFF75DF9102287498C48FFF758F982
:10410000202285498A48FFF753F94022824989488D
:10411000FFF74EF9802280498748FFF749F94FF4AD
:1041200080727D498548FFF743F94FF400727A4960
:104130008348FFF73DF94FF4806277498148FFF7E4
:1041400037F94FF4006274497F48FFF731F94FF4B3
:10415000805271497D48FFF72BF94FF400526E49A8
:104160007B48FFF725F94FF480426B497948FFF708
:104170001FF94FF4004268497748FFF719F9012207
:1041800076497748FFF714F9022274497548FFF71A
:104190000FF9042271497448FFF70AF908226F49A0
:1041A0007248FFF705F910226C497148FFF700F9D2
:1041B00020226A496F48FFF7FBF8402267496E48A2
:1041C000FFF7F6F8802265496C48FFF7F1F84FF4E5
:1041D000807262496A48FFF7EBF84FF400725F495A
:1041E0006848FFF7E5F84FF480625C496648FFF7DE
:1041F000DFF84FF4006259496448FFF7D9F84FF4EB
:10420000805256496248C5E000080140AC000020D9
:10421000B8000020C4000020D0000020DC000020F6
:10422000E8000020F4000020000100200C01002024
:104230001801002024010020300100203C01002052
:10424000480100205401002060010020000C0140C2
:104250006C010020780100208401002090010020E2
:104260009C010020A8010020B4010020C001002012
:10427000CC010020D8010020E4010020F001002042
:10428000FC0100200802002014020020200200206F
:10429000001001402C0200203802002044020020BF
:1042A000500200205C0200206802002074020020FE
:1042B000800200208C02002098020020A40200202E
:1042C000B0020020BC020020C8020020D40200205E
:1042D000E002002000140140EC020020F80200205F
:1042E00004030020100300201C03002028030020EA
:1042F00034030020400300204C030020580300201A
:1043000064030020700300207C0300208803002049
:1043100094030020A003002000180140AC030020FB
:10432000B8030020C4030020D0030020DC030020D9
:10433000E8030020F4030020000400200C04002007
:104340001804002024040020300400203C04002035
:10435000480400205404002060040020001C014098
:104360006C040020780400208404002090040020C5
:104370009C040020A8040020B4040020C0040020F5
:10438000CC040020D8040020E4040020F004002025
:10439000FC040020FFF70CF84FF400526249634818
:1043A000FFF706F84FF480425F496148FFF700F8D5
:1043B0004FF400425C495F48FEF7FAFF01225E4974
:1043C0005E48FEF7F5FF02225B495D48FEF7F0FF0D
:1043D000042259495B48FEF7EBFF082256495A4828
:1043E000FEF7E6FF102254495848FEF7E1FF20226D
:1043F00051495748FEF7DCFF40224F495548FEF728
:10440000D7FF80224C495448FEF7D2FF4FF4807208
:1044100049495248FEF7CCFF4FF4007246495048D4
:10442000FEF7C6FF4FF4806243494E48FEF7C0FFD7
:104430004FF4006240494C48FEF7BAFF4FF48052F7
:104440003D494A48FEF7B4FF4FF400523A49484804
:10445000FEF7AEFF4FF4804237494648FEF7A8FF0B
:104460004FF4004234494448FEF7A2FF434B444A0C
:1044700044494548FFF740FB444B454A45494648B7
:10448000FFF73AFB454B464A46494748FFF734FB9E
:10449000464B474A47494848FFF72EFB474B484A97
:1044A00048494948FFF728FB4848494B494A4A4987
:1044B00000904A48FEF7A7FE49484A4B4A4A4B49F2
:1044C00000904B48FEF79FFE4A484B4B4B4A4C49E5
:1044D00000904C48FEF797FE3C4B3D4A3D494A4808
:1044E000FFF7EBFB494B4A4A4A494B48FEF781FE2E
:1044F0002A4B2B4A49494A48FEF77BFE354A49492F
:104500004948FFF7D7FB414A41494848FFF7D2FBEA
:10451000224A23494648FFF7CDFB464A46494748C9
:10452000FEF752FE08BD0000001C014008050020F7
:104530001405002020050020002001402C0500204B
:104540003805002044050020500500205C050020AF
:104550006805002074050020800500208C050020DF
:1045600098050020A4050020B0050020BC0500200F
:10457000C8050020D4050020E0050020240100200B
:104580001801002000380140EC050020D000002078
:10459000C40000200044004034060020F001002048
:1045A000E4010020004800407C060020B00200200A
:1045B000A4020020004C0040C40600200403002098
:1045C000BC020020005000400C0700200001002029
:1045D000F4000020E80000200030014054070020D3
:1045E00020020020140200200802002000380040B1
:1045F00060070020A80100209C01002090010020FD
:10460000003C00406C07002078070020C00100201B
:10461000B4010020005400408C07002000580040E6
:10462000A0070020DC000020B4070020C407002001
:10463000D40700203C01002030010020E4070020C6
:1046400010B5044C04F58060FFF730FBA0F58064E2
:1046500010BD0000942F002010B502490248FFF75A
:1046600030FB10BD6C010020202F002070B501220E
:1046700017491848FEF7C4FD012217491748FEF7ED
:10468000BFFD012216491748FFF788FA1648174957
:10469000174A184B184C8161C2610362C46200BFA3
:1046A0001648174922464160826000BF15481649E6
:1046B000164A174B174C184D8160C2600361446164
:1046C000856100BF15481649016000BF70BD00003C
:1046D000CC0100205C000020D801002064000020F4
:1046E0000C010020F43F002008400020C8020020F8
:1046F000D4020020E00200206007002038400020A3
:10470000FC0100204C400020A8010020B401002042
:104710009C01002090010020540700206C00002024
:10472000A007002010B509A10B48FFF7A6FA044620
:104730000A4A0B49FFF71BFB0AA10D48FFF79DFA38
:104740000446064A0649FFF712FB10BD4641535482
:104750005F53584D00000000BC37002000000008E7
:104760009F3C00086C6378313233343536000000EA
:10477000C837002030380A2801D2012070470020B5
:1047800070472DE9F04104460D4600F0E3F94FF47F
:104790007A734FF0000CA4FB032805FB038304FB92
:1047A0000C3382185941D61E61EB0C0700BF00F094
:1047B000D1F9801BB941FAD3BDE8F08110B50446A8
:1047C0000021204600F09AF8002410BD70B537484B
:1047D000FEF704FBFEF798FA53203449091F81F8CD
:1047E000260054213148001F80F82710002180F84E
:1047F000281080684FF47A72B0FBF2F1B1F1807F3B
:1048000000D31DE021F07F40401E4FF0E0225061B8
:1048100050170F22002807DA13071D0E244B00F053
:104820000F04241F1D5503E013071C0E214B1C54BD
:1048300000BF00204FF0E02290610720106100BF10
:104840000420FDF7BBFE00201849091F08601A4A22
:104850001060506000BF1548001F0068401C1349DD
:10486000091F0860144802684068643A70F100004B
:10487000F1D30846006800EB800040000860FEF7B6
:1048800085FC4FF4A060FDF769FD01210846FDF7A6
:104890009BFD01210948FDF7DBFC4FF47A7000F025
:1048A0009FF907490888FEF729FA70BD7440002077
:1048B00018ED00E000E400E0780000200002300085
:1048C000B440002010B504460021204600F0C8F88E
:1048D00010BD0000FEF752FB02A10748FEF76DFF76
:1048E00000BFFEE7756172743120746F20756172CC
:1048F0007432204F4B210000EC0500202DE9F041DF
:1049000006460D463746012D01DBBDE8F081CEB1EC
:10491000083F3C460C4960680968084090B120682F
:1049200080B909496068096888436060074850F8A1
:10493000250061680844054941F8250029462046BC
:1049400000F054F800BFE0E7440000203C000020E5
:1049500070B51F4D55F820401E4D55F8201001F040
:1049600007053DB1C91D21F007011A4D55F820502A
:104970004D1B641B0B46184D45F830300025164E74
:1049800006EBC00675601919083921F00701134DAF
:1049900045F820100025114E56F8206075600F4E26
:1049A00056F8206035601A468D1A55600B4D55F843
:1049B000205015600A4E556846F82050094E55683B
:1049C00046F820504FF00045074E356070BD00009E
:1049D000280000202C00002030000020380000209B
:1049E000400000203C0000204400002030B502467A
:1049F0000B46194C04EBC30000E0006804689442C5
:104A0000FBD3014644680C44944204D14468556881
:104A10002C4444600246114654680C440568AC427C
:104A200013D10E4D55F823500468AC4208D0546899
:104A300005686D682C44546004682468146006E0BE
:104A4000064C54F82340146001E00468146090425E
:104A500000D0026030BD000030000020380000208F
:104A60002DE9F04705460E464FF00009012E02DB06
:104A70000020BDE8F087324850F8260010B93046D3
:104A8000FFF766FF2F4800682840002855D14DB138
:104A9000083505F0070028B105F00700C0F108004F
:104AA000054400BF002D48D0274850F82600A842F2
:104AB00043D3264800EBC60750F8364001E02746AE
:104AC00024686068A84202D220680028F7D11C48F8
:104AD00050F82600A04230D0386800F1080920685C
:104AE00038606068401B10280AD904EB050860682C
:104AF000401BC8F80400656031464046FFF776FF6A
:104B0000114850F826006168401A0F4941F8260004
:104B1000084650F826000E4951F82610884205D262
:104B2000094850F826000A4941F8260005496068FE
:104B300009680843606000202060484699E700004B
:104B400038000020440000203C00002030000020FD
:104B500040000020F0B54FF0E020006900F4803004
:104B600060B100BFEFF3108040B1124803684068A5
:104B70005A1C40F100000F490A6048600E488068E6
:104B80000E49B0FBF1F04FF0E0218969B1FBF0F084
:104B9000C0F57A700021074A136854684FF47A759B
:104BA000A3FB052704FB057403FB0143801859414F
:104BB000F0BD0000780000207040002040420F004F
:104BC000014908684968704778000020024B196065
:104BD000024B43F8202070479C000020A04000209A
:104BE0004FF47A7191FBF0F1024A1180024908807A
:104BF00070470000860000208400002010B50446A5
:104C0000034951F8240003490968884710BD000092
:104C1000D4400020A000002010B500290AD0087858
:104C2000002807D005487844FBF78AFE002801D009
:104C3000002010BD0248784410BD00000A040000A6
:104C40000204000010B500290AD00878002807D017
:104C500005487844FBF774FE002801D0002010BD01
:104C60000248784410BD0000EE040000E604000095
:104C70000160002242617047491058BFC1F14041B4
:104C80005B1058BFC3F140438B42EFF30080704785
:104C900051EA030C17D41CF5801F58BFBCF5801FC8
:104CA00000F10680994218BF704708BF90427047D4
:104CB00007D711F5801F58BF13F5801F19D49942EB
:104CC0007047894270471CF5801F08D5BCF5801FCE
:104CD000F7D58B4218BF704708BF824270474FF428
:104CE000001C1CEB410F38BF1CEB430F01D28B4261
:104CF000704770B500F008F8922449004FF0005159
:104D00004FF08053FFF7B8BF0EF1020E2EF0030EE6
:104D10005EF8046B364205D4012A43EB030515F512
:104D2000001F12D8012841EB010C1CF5001F0CD804
:104D30000ED14FEAD17C15F5001F0CEB4C0C0CF199
:104D4000020C08BF4CEBD37C04E04FF0080C01E0F0
:104D50004FEAD37C0CEB4C0526FA05F606F0070665
:104D6000B6F1040C06D20EEB860CBDE870404CF098
:104D7000010C6047DFE80CF0090B02024FF0004124
:104D80004FF00000A1F5002170BD19461046012822
:104D900051EB010418BFD4F5001484BF002001F0CA
:104DA000004170BD0808A0F500114FEA31017047BD
:104DB00043004FEAD30C4FEA3C0C43401FBF40076F
:104DC0000CF1605113F0FE4F70471CF0006F03D1DF
:104DD00000200CF0004170470CF0004343EA507093
:104DE00010B540EACC0000F04FF800BF0000009280
:104DF0004FEA0001FFF7D6BF4FF000414FF000002F
:104E0000A1F500217047401058BFC0F14040491043
:104E100058BFC1F140418142EFF30080704700006C
:104E200050EA010C00F113801CF5000F58BFBCF5CF
:104E3000000F01D48842704707D710F5000F58BF04
:104E400011F5000F15D488427047894270471CF550
:104E5000000F04D5BCF5000FF7D5814270474FF025
:104E6000807C1CEB400F38BF1CEB410F01D281420C
:104E7000704710B500F008F8922449004FF0005038
:104E80004FF08051FFF7BFBF0EF1020E2EF0030E60
:104E90005EF8044B244204D44FEA4102B2F17F4F42
:104EA00011D84FEA4003B3F17F4F0CD80ED14FEA2F
:104EB000D07CB2F17F4F0CEB4C0C0CF1020C08BF14
:104EC0004CEBD17C04E04FF0080C01E04FEAD17CC0
:104ED0000CEB4C0324FA03F404F00704B4F1040CC3
:104EE00006D20EEB840CBDE810404CF0010C60477C
:104EF000DFE80CF0070802024FF00040A0F5800048
:104F000010BD0846420018BFD2F1807288BF00F081
:104F1000004010BDFBF742BF3031323334353637F5
:104F200038394142434445464030580030313233ED
:104F300034353637383961626364656640307800ED
:104F40000400000800000000000000020001000052
:104F500010000000000000000000000002400000FF
:104F6000000000A00000000005400000000000C894
:104F7000000000000C4000000000409C0000000009
:104F8000194000000020BCBE0000000034400000BA
:104F9000BFC91B8E00000004B5400000504BCFD0AD
:104FA0006607E2CF010000006C4100003E8251AA7A
:104FB000DFEEA73401000000D9420000DCB5A0E21A
:104FC0003A301F97FFFFFFFFB4450000FD25A0C842
:104FD000E9A3C14FFFFFFFFFFF3F0000000000807B
:104FE00000000000FF3F0000000000800000000003
:104FF0000000000000000000FF360008B136000885
:105000000000000000000000073E00086B3B0008A5
:105010007051000800000020AC00000028010008CA
:105020001C520008AC000020DC47000044010008CE
:105030001001000043000000F8FFFFFF0040404067
:10504000404040404040414141414140404040405B
:105050004040404040404040404040404005020207
:1050600002020202020202020202020202202020C6
:105070002020202020202002020202020202909022
:105080009090909010101010101010101010101020
:105090001010101010101010020202020202888874
:1050A0008888888808080808080808080808080880
:1050B0000808080808080808020202024000000068
:1050C00000000000000000000000000000000000E0
:1050D00000000000000000000000000000000000D0
:1050E00000000000000000000000000000000000C0
:1050F00000000000000000000000000000000000B0
:10510000000000000000000000000000000000009F
:10511000000000000000000000000000000000008F
:10512000000000000000000000000000000000007F
:10513000000000000000000000000000000000006F
:105140001C00000043000000F8FFFFFF0C000000FF
:105150000E0000000F0000002E000000B1ECFFFF69
:10516000F9F4FFFFDDF4FFFFBDF5FFFF01F5FFFFE1
:1051700000366E0100000000000000000102030480
:1051800006070809000000000102030401020304ED
:10519000060708090204060810270000100800206E
:1051A00000000000000000000000000000000000FF
:1051B00000000000000000000000000000000000EF
:1051C00000000000000000000000000000000000DF
:1051D00000000000000000000000000000000000CF
:1051E00000000000000000000000000000000000BF
:1051F00000000000000000000000000000000000AF
:10520000000000000000000000000000000000009E
:0C52100000000000000000000000000092
:04000005080000ED02
:00000001FF
