:020000040800F2
:1000000050140020010100080D0F0008BF0D00086A
:100010000B0F0008930C00084115000800000000B9
:1000200000000000000000000000000009120008AD
:10003000950C000800000000B90F0008B512000878
:100040001B0100081B0100081B01000851110008DA
:100050001B0100081B0100081B0100081B01000810
:100060001B0100081B0100081B0100081B01000800
:100070001B0100081B0100081B0100081B010008F0
:100080001B0100081B0100081B0100081B010008E0
:100090001B0100081B0100081B0100081B010008D0
:1000A0001B0100081B0100081B0100081B010008C0
:1000B0001B0100081B0100081B0100081B010008B0
:1000C0001B0100081B0100081B0100081B010008A0
:1000D0001B010008BD1300081B0100081B010008DC
:1000E0001B010008E11000081B010008DFF80CD01C
:1000F00000F042FD00480047A921000850140020EC
:100100000648804706480047FEE7FEE7FEE7FEE7B1
:10011000FEE7FEE7FEE7FEE7FEE7FEE7B9120008AE
:10012000ED000008A0F14101192900D820307047E6
:10013000004870474C2A000840EA01039B0703D09F
:1001400009E008C9121F08C0042AFAD203E011F816
:10015000013B00F8013B521EF9D27047D2B201E0D8
:1001600000F8012B491EFBD270470022F6E710B5BC
:1001700013460A4604461946FFF7F0FF204610BD15
:10018000421C10F8011B0029FBD1801A704710B5E2
:10019000002200E0521C835C8C5CA34201D1002B46
:1001A000F8D1D8B2E1B2401A10BD30B505460020F2
:1001B000034600E05B1C934205D2EC5CC85C201A4D
:1001C00001D1002CF6D130BD2DE9FF4F087881B068
:1001D0009946FF2805D0491C2D2804D0002400236F
:1001E00008E000230BE00124F9E703EB830300EBB5
:1001F0004303491C0878FF28F7D104B15B42002073
:100200000090147801462D2C01D02B2C04D1521CC7
:100210002D2C12D00024009400251678FF2E0ED02D
:100220000A24A0FB04C801FB0481002700FB07117E
:10023000521C16EB0C006941EFE70124EBE79944EF
:1002400050EA01020ED00024AA4D2646DFF8A8820B
:1002500000F051FC82468B46B9F1000009DAC9F181
:1002600000071BE001980021C0E9001105B0BDE8BE
:10027000F08F074612E0F80707D022462B4630469B
:10028000414600F057FB0646884622462B4610465C
:10029000194600F04FFB04460D467F10002FEAD1AF
:1002A000B9F1000F324643465046594602DA00F093
:1002B000B3FB01E000F03EFB009A0AB181F000417F
:1002C000019AC2E90001D1E72DE9FF4F1F468DB029
:1002D000D7E901464FF0FF382E2045464FF0000980
:1002E0000B90B9696D1C0E988847396A8246884719
:1002F0000028F6D1BAF1FF3F0AD024F4D064002ED2
:1003000011DDBAF12B0F08D0BAF12D0F0BD102E09D
:10031000404611B0ABE744F48064B9696D1C0E9897
:1003200088478246761E6946600501D52D2000E08B
:100330002B208DF8000001F1010B0DF1200809E0E0
:10034000B9696D1C0E98884782460F9844F4007472
:10035000761E0560002E02DDBAF1300FF0D00B9949
:100360008A453ED144F0800406E00F99681CA9F14B
:10037000010944F400740860B9696D1C761E0E987A
:10038000884782463028F0D02BE00B998A4505D16A
:10039000200603D444F08004761E18E0504601F095
:1003A000F9F908B30DF11301761E44F400748B457E
:1003B00008D2AAF130000BF8010B200607D5A9F1ED
:1003C000010003E0200602D409F101008146A005E6
:1003D00002D50F99681C0860B9696D1C0E98884792
:1003E0008246002ED1DC53E0002E51DDBAF1650FBC
:1003F00002D0BAF1450F4BD1A00549D5B9696D1CA2
:1004000024F44074761E0E9888478246002E0CDD38
:100410002B2804D0BAF12D0F07D144F48074B969A8
:100420006D1C0E9888478246761EE00501D52D2169
:1004300000E02B2108F8011BCDF82C8021E00DF104
:100440002901761E44F4007488450CD2AAF13000CC
:1004500010F0FF0088F8000002D10B99884509D9F7
:1004600008F1010806E0E00501D5244801E042F268
:100470000F708146B9696D1C0E98884782460F98A7
:100480000560002E04DD504601F084F90028D6D125
:10049000F9690E988847FF208BF8000088F8000063
:1004A0000020069007904B466A4608A906A8FFF769
:1004B0008BFEA00502D46FF001002AE714F0240F90
:1004C0000AD0E00714D1DDE906123868031D3B604D
:1004D0000068C0E900120BE0DDE9060100F02FFB27
:1004E0000146E00704D13868021D3A6000680160E7
:1004F00028460EE7000024400000F03FF1D8FFFF3F
:1005000070B5C1F30A5201F000450024C1F3130194
:1005100040F2FF3341F480119A4201DA002070BDAD
:1005200040F233439A42A2F2334203DC524200F0DB
:100530007EF800E090402C43F1D0404270BD0000B6
:1005400030B5041E71F1000404DB4FF0004440425A
:1005500064EB0101141E73F1000405DB1C464FF02F
:100560000043524263EB04038B4208BF824230BD1A
:1005700030B5041E71F1000404DB4FF0004440422A
:1005800064EB0101141E73F1000405DB1C464FF0FF
:100590000043524263EB0403994208BF904230BDCE
:1005A00030B50B46014600202022012409E021FA43
:1005B00002F59D4205D303FA02F5491B04FA02F540
:1005C0002844151EA2F10102F1DC30BD2DE9F05FD7
:1005D0000546002092469B468846064681464024B2
:1005E0001BE0284641464746224600F020F8534685
:1005F0005A46C01A914110D311461846224600F0BF
:10060000CDFA2D1A67EB01084F4622460120002142
:1006100000F0C4FA17EB00094E41201EA4F10104BA
:10062000DFDC484631462A464346BDE8F09F202A93
:1006300004DB203A21FA02F00021704721FA02F38C
:10064000D040C2F1200291400843194670474268E9
:1006500042B1016811F8013B23B1521EC0E90012FA
:10066000184670470121C160881E704742685AB120
:10067000C368016843B983688B4205D0491E521C88
:10068000C0E90012002070474FF0FF3070470000B3
:100690000FB4002300B589B00CA900910B996FF03D
:1006A0000042CB601E4B06931E4B07930423CDE9FB
:1006B00001321D4A089202466B460020FFF704FEF5
:1006C00009B05DF814FB70B586B006464FF0FF30F8
:1006D0000091CDE90101002015460C4604903246F8
:1006E000694604A8FFF7D4FF03460498211825B1F2
:1006F00008B10A4600E022462A6000280DD0002BEF
:1007000002DD0098884208D0081B0094CDE901045E
:100710003246694604A8FFF7BBFF06B070BD000073
:100720004F0600086D060008DF0B000810B5141E08
:1007300073F1000408DA401C41F1000192185B419A
:100740001A4301D120F0010010BD2DE9F04D924671
:100750009B4611B1B1FA81F202E0B0FA80F2203288
:10076000904600F01BFA04460F4640EA0A0041EAB0
:100770000B0153465A46084313D0114653EA010071
:1007800019D0C8F140025046FFF751FF05460E460A
:1007900050465946424600F001FA084305D0012070
:1007A00004E020463946BDE8F08D0020054346EAC6
:1007B000E0762C4337430A986305E40AA0EB08006F
:1007C0000022FD0A44EA47540A3002D500200146BF
:1007D000E9E7010510196941DDE90845001969419A
:1007E000BDE8F04DA2E72DE9FE4F804681EA030007
:1007F000C00F0C46009021F0004123F00045B8EBFB
:100800000200A94105D24046214690461C460B46AF
:10081000024623F00040104347D0270DC7F30A00DB
:10082000C3F30A510290401A019040286BDAC3F3D7
:10083000130040F4801B0098924620B10023D2EBB5
:10084000030A63EB0B0B01985946C0F14002504676
:1008500000F0A4F906460D4650465946019A00F0AC
:10086000ACF910EB08006141002487EA115284EAD8
:10087000E7731A4340D0009A62B3019A012A4FEA03
:10088000075215DC001B61EB02014FF0004202EA47
:100890000752CDE90042001C41F5801132462B463B
:1008A000FFF753FF03B0BDE8F08F40462146F9E75C
:1008B000001B61EB0201001C41F5801300185B4135
:1008C0002018A2F5001747EB030140EAD570B619CE
:1008D0006D4111E06D084FEA360645EAC0754FEAF2
:1008E0000752001B61EB0201001C41F58011490811
:1008F0004FEA30000019514132462B4603B0BDE8A3
:10090000F04FFFF713BF0098012240000023D0EB07
:10091000020263EBE073009821464FEAE074B8EB03
:10092000000061EB0401E9E783F000435BE781F03D
:10093000004158E72DE9FE4F81EA030404F000442A
:1009400021F0004100944FF0000B23F0004350EAE7
:1009500001045ED052EA03045BD0C3F30A54C1F32E
:100960000A552C44A4F2F3340194A0FB0254C1F3C1
:10097000130141F48011C3F3130343F4801301FB0B
:10098000024400FB034E840A970A44EA815447EA72
:100990008357A4FB076802958D0A05FB07854FEA7C
:1009A000932C04FB0C542705029D4FEA065847EA96
:1009B0001637B5EB08056EEB070C870E920E47EA6B
:1009C000811742EA8312A7FB0201B6EB0B0164EB2D
:1009D00000042B0D43EA0C335E1844EB1C50DA463E
:1009E0005146E7FB0201C5F313044FEA0B3343EA18
:1009F00014534FEA0432019C43EA0603A4F10C04A9
:100A00000294009CCDE900B4FFF79FFE03B0BDE85F
:100A1000F08F00200146F9E72DE9F04D81EA03044B
:100A200004F0004B21F0004514464FF0000A23F07B
:100A3000004150EA050220D054EA01021DD0C5F35E
:100A40000A570246C5F31303C1F31300C1F30A5654
:100A500040F4801543F48013A7EB0608101BD6461C
:100A600008F2FD3873EB050002D308F1010801E03C
:100A700092185B41B8F1000F03DA00200146BDE88F
:100A8000F08D00204FF48011064684460EE0171BBF
:100A900073EB050705D3121B63EB050306434CEA12
:100AA000010C49084FEA300092185B4150EA0107F7
:100AB000EDD152EA030012D082EA040083EA050174
:100AC000084305D0101BAB4106D20122002306E0EB
:100AD00000224FF0004302E06FF0010253101AEBC6
:100AE00006004CEB085110EB0A0041EB0B01BDE88E
:100AF000F04DFFF71BBE0EB540F2334202920022CA
:100B0000CDE900221346FFF720FE03B000BDC1F37C
:100B10000A52C1F3130140F2FF3341F480119A42AB
:100B200002DA00200146704740F233439A42A2F2B3
:100B3000334202DC5242FFF77ABD00F02FB801F0D9
:100B4000004330B421F0004150EA010206D00A0D02
:100B5000A2F56072C1F31301002A02DC30BC002050
:100B60007047440F44EAC104C100E01830BC00EBF8
:100B7000C25000F039B80000064C074D06E0E068AE
:100B800040F0010394E8070098471034AC42F6D3D4
:100B9000FFF7B0FADC2A0008FC2A0008202A04DB50
:100BA000203A00FA02F1002070479140C2F1200380
:100BB00020FA03F3194390407047202A06DBCB1735
:100BC000203A41FA02F043EAE07306E041FA02F308
:100BD000D040C2F120029140084319467047C0B28C
:100BE0004FF4F05100F038B80029A8BF7047401CFE
:100BF000490008BF20F00100704710B4B0FA80FC33
:100C000000FA0CF050EA010404BF10BC704749B16F
:100C1000CCF1200421FA04F411FA0CF118BF0121DF
:100C200021430843A3EB0C01CB1D4FEA00614FEABF
:100C3000102042BF002010BC704700EBC35010448E
:100C40000029A4BF10BC7047401C490008BF20F019
:100C5000010010BC704700007F2801D9002208E085
:100C6000064A02EB5002C007127800D1120902F0C6
:100C70000F0201209040084070470000842A0008BD
:100C800010B5012000F0B2F9BDE81040002000F0DE
:100C9000ADB9FEE7704700000149086070470000E9
:100CA0001404014030B51A498379026853B30B68C4
:100CB00093430B600A1D13680468A3431360027911
:100CC0000A441368046823431360114A0832136806
:100CD0000468A3431360131D1C680568AC431C60C3
:100CE0004479102C05D021440A68006802430A6048
:100CF00030BD116804682143116019680068014320
:100D0000196030BD0079084401689143016030BD2D
:100D100000040140F0B5CA78002502F00F03D206A6
:100D200001D58A7813430A784FF00F0E12F0FF0FA7
:100D30004FF001021CD004680F8802FA05F6374014
:100D4000B74211D14FEA850C0EFA0CF724EA0707D7
:100D500003FA0CF43C43CF78282F02D0482F02D05E
:100D600002E0466100E006616D1C082DE4D30460DA
:100D70000C88FF2C1ED944685FF0000606F10807B6
:100D800002FA07F50F882F40AF420FD14FEA860CC9
:100D90000EFA0CF7BC4303FA0CF73C43CF78282F2C
:100DA00000D14561CF78482F00D10561761C082E0F
:100DB000E4D34460F0BD4161704701617047FEE7D4
:100DC00038B50121102000F005F94FF46040ADF86E
:100DD000000001208DF802001020064C8DF8030061
:100DE00069462046FFF796FFBDF800102046FFF742
:100DF000E4FF38BD00100140094A012808D002284C
:100E000009D003280AD14FF400411046FFF7D5BF9F
:100E10004FF40051F9E74FF48041F6E770470000C6
:100E200000100140094A012808D0022809D00328EF
:100E30000AD14FF400411046FFF7BDBF4FF40051F7
:100E4000F9E74FF48041F6E77047000000100140D9
:100E5000FEB50121084600F0BDF84FF4C06000F077
:100E600089F829208DF8080001248DF80940002513
:100E70008DF80A508DF80B4002A800F049F866047E
:100E80003046FFF709FF8DF8045008208DF8050063
:100E900000968DF806406846FFF704FF01214FF0E9
:100EA000C05000F08BF8012000F06EF8012000F037
:100EB00079F8012825D0FFF7E3FE012000F0FCF8C7
:100EC000612000F0E1F80028FAD04FF4007000F043
:100ED000FFF8012000F0F6F800F08AF900F080F940
:100EE0000121022000F050F900F07AF9202000F0F2
:100EF00067F900F075F9002000F052F900F070F980
:100F0000FEBD012000F046F8D7E7FEE7704700007D
:100F100070B50F23C47801780122F4B1144C246811
:100F2000457804F4E064C4F5E064240AC4F10406DE
:100F3000E3408478B5401C402C4301F1E0212301BB
:100F400081F80034007800F01F018A4040098000D9
:100F500000F1E020C0F8002170BD01F01F008240C8
:100F60004809800000F1E020C0F8802170BD000039
:100F70000CED00E002490843024908607047000098
:100F80000000FA050CED00E001490862704700001E
:100F900000000E4202490A6842EA80000860704779
:100FA00000700040034A0146002052680A4200D007
:100FB000012070470070004070470000044A00297B
:100FC000D16901D0014300E08143D1617047000045
:100FD00000100240044A0029916901D0014300E059
:100FE0008143916170470000001002400149086090
:100FF000704700004004424230B51F494A6812F071
:101000000C031E4A03D0042B01D0082B21D0026010
:101010004A680F231A4C03EA1212A35C0268DA40F2
:1010200042604B68072505EA1323E35C22FA03F3C9
:1010300083604B6805EAD323E35CDA40C260496809
:10104000032303EA9131231F595CB2FBF1F10161E3
:1010500030BD4A684B6802F470124FF0020413F47A
:10106000803F04EB924202D04B689B0301D5054BB5
:1010700000E0024B5A43CAE70010024000127A0017
:101080003000002000093D000246002053090949B4
:10109000012B0BD0022B0BD0D1F8241002F01F0231
:1010A000012393400B4200D0012070470968F5E707
:1010B000096AF3E700100240014908607047000028
:1010C0008004424201490860704700003C044242EB
:1010D00002490A6A02430A62704700000010024097
:1010E00010B5022000F024F8002808D04FF400309A
:1010F000FFF7D2FDBDE81040022000F001B810BD9E
:1011000002490A8882430A80704700000428004090
:101110000248018841F01001018070470428004016
:101120000248018821F01001018070470428004026
:1011300006490988C2B21140044A121F12880242AD
:1011400002D009B1012070470020704704280040F8
:1011500010B50220FFF7ECFF012808D00120FFF7AF
:10116000E7FF01280ED1BDE81040FFF7C9BF4FF4DB
:101170000030FFF791FD0220FFF7C2FFBDE81040ED
:1011800000F02EB810BD0000044A0029118801D0DB
:10119000014300E0814311807047000000280040B7
:1011A00000B50246FFF7B4FF0449100C0880081D83
:1011B00002805DF804EBFFF7B3BF00001828004081
:1011C00000B50246FFF7A4FF0449C2F303400880BC
:1011D000081D02805DF804EBFFF7A2BF082800405D
:1011E000024801888906FCD57047000004280040A9
:1011F0000448018821F00801018001880907FCD515
:101200007047000004280040704700000CB5002122
:10121000264801910091026842F4803202604FF446
:10122000A063026802F400320092019A521C0192FB
:10123000009A12B9019A9A42F3D10268920333D507
:10124000012100911A490A6842F010020A600A68F6
:1012500022F003020A600A6842F002020A60416852
:10126000416041684160416841F48061416041688A
:1012700021F47C114160416841F4A811416001688A
:1012800041F08071016001688901FCD5416821F05D
:1012900003014160416841F0020141604168C1F3CE
:1012A00081010229FAD10CBD00910CBD0010024051
:1012B00000200240704700000F4810B5016841F05F
:1012C0000101016041680D4A1140416001680C4A0A
:1012D00011400160016821F480210160416821F41E
:1012E000FE0141604FF41F018160FFF78FFF054948
:1012F0004FF00060086010BD001002400000FFF8D1
:10130000FFFFF6FE08ED00E030B587B0012144F2A2
:101310000400FFF75FFE4FF4A060FFF72BFE2520CF
:101320008DF8140000248DF8164001208DF8170068
:1013300005A8FFF7EDFD4FF40070ADF81000182080
:101340008DF8130003201B4D8DF8120004A92846C8
:10135000FFF7E0FC2815ADF8100004208DF813000D
:1013600004A92846FFF7D6FC4FF4E130ADF804405D
:101370000090ADF80640ADF80840ADF80C400C20E8
:101380000D4CADF80A006946204600F07FF80122B6
:1013900040F22441204600F060F8012240F225513D
:1013A000204600F05AF80121204600F02DF807B041
:1013B00030BD0000000801400038014070B50E4CFF
:1013C00040F22551204600F029F8251D30B12A8829
:1013D0000B480A4B01785A54491C017040F22441D1
:1013E000204600F01BF8002804D0208828880549F2
:1013F0000120087070BD0000003801404C00002042
:1014000000000020010000200029818902D041F461
:10141000005101E021F400518181704730B501F0A5
:101420001F0201240025C1F3421304FA02F2012B2A
:101430000FD0022B0FD0838A4FEA1121008813426C
:1014400004FA01F400EA040001D000B101252846A5
:1014500030BD8389F0E7038AEEE710B5C1F342138C
:1014600001F01F040121A140012B07D0022B07D05E
:101470001430002A026805D00A4304E00C30F8E773
:101480001030F6E78A43026010BD000030B5044614
:10149000008A85B00D464CF6FF710840E98801438B
:1014A0002182A1894EF6F3100140A8882A891043B1
:1014B0006A890A431043A081A08A4FF6FF41084081
:1014C000A9890143A1826846FFF796FD1948844225
:1014D00001D1039800E00298A189090400EBC00142
:1014E00001EB0010296801D5490000E08900B0FB3C
:1014F000F1F06422B0FBF2F109010B096FF018055D
:101500006B4300EB8300A3891D044FF0320306D523
:1015100003EBC000B0FBF2F000F0070005E003EBC6
:101520000010B0FBF2F000F00F000843208105B07E
:1015300030BD000000380140C1F3080181807047D0
:10154000FEE700000FB4054B10B503A9044A02984A
:1015500000F028F910BC5DF814FB0000C120000861
:101560004000002030B528B1144C031F0020216832
:101570000A4605E0084630BD9A4203D81046526834
:10158000002AF9D1002800D041680BD00468A3EBF1
:101590000005A54204D11B681C440346046002E018
:1015A000436000E023603AB11C68D51AA54203D11C
:1015B00015682C441C6052685A6030BD44000020FD
:1015C0002DE9F04782460F4C10480D4E0E4F001B80
:1015D0004FF0000820F007054FF0010900221146E6
:1015E000504600F0B9FD002802D1306810B100204B
:1015F000BDE8F0873C60C4E90058C6F80090EDE70C
:101600004800002054040020440000205010002016
:1016100002E008C8121F08C1002AFAD170477047BB
:10162000002001E001C1121F002AFBD17047000019
:101630002DE9FF5FDDE90220010DDDF838B002433E
:1016400018D044F61050A1F2FF3141430D140F9809
:10165000012820D0A5EB0B00401C5FEA000A4FF0E8
:101660000004474EDFF81C91A046504616D5CAF13B
:10167000000728E00F98012443A2012808D0002188
:1016800000980F9BC0E90021C0E90243BDE8FF9F1D
:101690006FEA0B01F4E7CBF10000DEE7074612E04A
:1016A000F80707D02246334640464946FFF742F93D
:1016B000804689462246334610461946FFF73AF9D6
:1016C00004460E467F10002FEAD1DDE90201BAF18F
:1016D000000F42464B4602DAFFF72CF901E0FFF714
:1016E0009BF904460E460022284BFEF741FF03D823
:1016F0004FF0FF30014607E00022254B20463146DF
:10170000FFF771F8FFF703FA102409E0002C0ADB59
:101710000A220023FEF75AFF019B30321A55641E3D
:1017200050EA0102F2D1641C019AC4F1110314447D
:101730000F9A012A03D0012208430DD10AE0084381
:1017400004D000204FF0110B0F9080E7A3EB0B05A6
:101750006D1E0DE05B4504DD4FF0000205F1010553
:1017600004E003DA4FF00002A5F10105002AECD0F5
:1017700000980F99C0E90231C0E9004586E70000F2
:10178000000024400000F03F300000000000F04363
:101790000000E03F30380A2801D2012070470020C5
:1017A000704700002DE9FF4F95B09B4689460646DD
:1017B00000250FE2252877D100242746F84A012189
:1017C000059400E0044316F8013F203B01FA03F0C2
:1017D0001042F7D130782A2811D06FF02F033078DB
:1017E000A0F13002092A16D8059A44F0020402EB4F
:1017F000820203EB42021044761C0590EFE759F891
:10180000042B0592002A03DA504244F40054059058
:1018100044F00204761C30782E2816D116F8010FF9
:1018200044F004042A280DD06FF02F023078A0F184
:101830003003092B09D807EB870302EB4303C718D2
:10184000761CF3E759F8047B761C30786C280FD0AF
:1018500006DC4C2817D068280DD06A2814D104E083
:10186000742810D07A280FD10DE044F400140AE057
:1018700044F4801401E044F440147278824202D1AE
:1018800004F58014761C761C307866280BD013DCA7
:10189000582877D009DC002875D04528F6D046288E
:1018A000F4D047281AD19DE118E0632835D0642888
:1018B00079D0652812D195E1702873D008DC6728AB
:1018C000F1D069286FD06E280DD06F2806D1B5E011
:1018D00073282CD0752875D0782874D05A4617995B
:1018E00090476D1C75E1C4F30250022809D003280B
:1018F0000DD0D9F8001004280DD00D6009F10409AD
:1019000067E1D9F80010EA17C1E90052F6E7D9F803
:1019100000100D80F2E70D70F0E719F8041B8DF848
:10192000001000208DF80100EA46012003E059F87C
:1019300004AB4FF0FF3061074FF0000102D40DE01F
:1019400008F101018846B9420FDA8045F8DB1AF840
:1019500008100029F4D108E008F10101884681420D
:10196000FADB1AF808100029F6D105985B46A0EBBF
:10197000080721463846179A00F094FA284400EBED
:10198000080507E04DE029E10DE01AF8010B5A4681
:1019900017999047B8F10108F7D25B4621463846BF
:1019A000179A13E142E00A220092C4F302524FF068
:1019B000000A022A08D059F804CB032A4FEAEC7136
:1019C0000AD00DE029E02AE009F1070121F0070221
:1019D000F2E802C1914609E00FFA8CFC4FEAEC7183
:1019E000042A03D14FFA8CFC4FEAEC71002907DA84
:1019F0000A460021DCF1000C61EB02012D2202E01D
:101A0000220504D52B228DF80420012203E0E207F1
:101A100001D02022F7E7904659E00A2102E0102287
:101A20000DE010214FF0000A00910BE010224FF062
:101A3000000A44F004040827009203E008224FF053
:101A4000000A0092C4F30252022A05D059F804CBCE
:101A50000021032A08D009E009F1070121F007025B
:101A6000F2E802C1914605E01FFA8CFC042A01D17C
:101A70000CF0FF0C4FF00008220728D5702806D084
:101A8000009B83F0100353EA0A0305D00EE04022C6
:101A90008DF80420012208E05CEA010206D0302221
:101AA0008DF804208DF8050002229046009B83F0FB
:101AB000080353EA0A030AD15CEA010201D1620772
:101AC00005D530228DF804204FF001087F1E5828DC
:101AD00004D034A003900EA802900DE036A0F9E7E0
:101AE00053466046009AFEF771FD84460398825C77
:101AF0000298401E029002705CEA0100F0D1029848
:101B000006A9081A00F1200A600702D524F48034DF
:101B100000E00127574502DDA7EB0A0000E00020A6
:101B200000EB0A01009005984144401A0590E0033B
:101B300006D45B462146179A059800F0B3F9054490
:101B4000002706E001A85A46C05D179990476D1C12
:101B50007F1C4745F6DBE0030CD55B462146179A10
:101B6000059800F09FF9054404E030205A46179983
:101B700090476D1C0099481E00900029F5DC08E094
:101B8000029802995A460078491C02911799904789
:101B90006D1CBAF10001AAF1010AF1DC65E1000057
:101BA0000928010030313233343536373839616233
:101BB00063646566000000003031323334353637F7
:101BC00038394142434445460000000000F058F9CE
:101BD0000544761C307800287FF4ECAD19B0284617
:101BE000BDE8F08F620700D4062709F1070222F052
:101BF000070CFCE80223E14603F000485FEA080C0A
:101C000002D00FF2702C0DE05FEA045C02D50FF2F7
:101C1000682C07E05FEAC47C02D00FF2602C01E080
:101C2000AFF2700C4FF0FF3823F00043CDF850C0F6
:101C300065280CD006DC452809D046281DD0472849
:101C40003DD13DE0662818D067287ED138E00021DC
:101C5000112F01DB112000E0781CCDE9000106A95D
:101C60000EA8FFF7E5FCDDE90F010E9A03910021B4
:101C7000009207F1010A04914DE04FF000400097F7
:101C8000CDE9011006A90EA8FFF7D2FCDDE90F028D
:101C900003920E9B11990022DDF80CA00093049290
:101CA00011B9791C00EB010AB7EB0A0004D4C0F1AA
:101CB000FF3007F1010A0490AAEB0700019044E00D
:101CC000012F00DA01270021112F01DD112000E092
:101CD0003846CDE9000106A90EA8FFF7A9FCDDE909
:101CE0000F010E9A0391002104910092BA46210738
:101CF0000CD40399514500DA8A46BAF1010F05DD8B
:101D0000009AAAF10101515C302908D0B84202DAE8
:101D100010F1040F06DA0121CDE9011015E0AAF156
:101D20000101E9E7002805DC049901440491AAEBCC
:101D3000000102E0411C514500DD8A460499401A29
:101D4000401C01904FF000400290200704D40198FD
:101D5000504501DBCDF8048000208DF84F0002983B
:101D60000DF14F07B0F1004F25D02B200E900298B7
:101D70004FF0020800280CDA404202902D200E900D
:101D800007E00A210298FEF70BFC3031029007F8B9
:101D9000011DB8F10001A8F10108F2DC0298002849
:101DA000EFD1791E0E980870307800F0200040F0D6
:101DB000450007F8020D12A8C01B00F1070814988F
:101DC000007800B1012000EB0A01019801EBE071FD
:101DD00005984144401A401E0590E00306D45B4636
:101DE0002146179A059800F05DF80544149800788C
:101DF00018B15A46179990476D1CE00324D55B46ED
:101E00002146179A059800F04DF805441CE0049807
:101E1000002807DBDDE90301884203DD0098405C10
:101E2000179901E0179930205A469047049805F118
:101E30000105401C04900198401E019004D12E2001
:101E40005A46179990476D1CBAF10001AAF1010A90
:101E5000DDDC05E017F8010B5A46179990476D1C19
:101E6000B8F10001A8F10108F4DC5B462146179A9D
:101E70000598ABE62D0000002B00000020000000BC
:101E80002DE9F041044600251E461746880404D477
:101E900005E039462020B0476D1C641EF9D5284660
:101EA000BDE8F0812DE9F041044600251E4690462C
:101EB000C80301D5302700E02027880404D505E0B9
:101EC00041463846B0476D1C641EF9D52846BDE82A
:101ED000F08110B588B103687BB142688168914296
:101EE00006D25C5C202C03D8491C81600028F5D107
:101EF000914201D1491E816010BD002010BD00003B
:101F000070B504460F4E19E0A0892568C0050AD4B3
:101F1000A06820B1FFF7F4FFA089C00503D42069B1
:101F200008B171688847A089800503D4206A08B188
:101F3000716888477168204688472C46002CE3D199
:101F400070BD000020000020002200F0CDB810B5C8
:101F5000016828208847040002D02821FEF705F9EF
:101F6000204610BD00221146AFF300802DE9F0435A
:101F700087B00E46044691461C216846FEF7F5F8E8
:101F80002748002505604560A4B320460094FEF76D
:101F9000F7F8401CDFF88880CDE90105D8E9021286
:101FA000D8F810000491CDE9052008F10800FFF7EA
:101FB000CEFF070018D06846FFF78BFF0146384672
:101FC00000F038FB68B1B9F1000F14D06846FFF794
:101FD00080FFDDE90101814203D202990098405C53
:101FE00048B13846FFF78CFFDDE9011088420BD27B
:101FF00005460CE011E01EB10299009808443060DB
:10200000384607B0BDE8F083080000D0451E16B181
:102010006019306001E0C8E900450020F1E70000E8
:102020001800002001A0FFF78DBA00007B224D228E
:102030003A22737461747573227D0A000248D0E9F4
:10204000041202A0FFF77EBA000000207B224D227E
:102050003A22636865636B696E222C224944223AF6
:10206000222573222C224B223A222573227D0A003C
:102070000248D0E9041202A0FFF764BA0000002071
:102080007B224D223A22636865636B6F7574222C44
:10209000224944223A222573222C224B223A22251D
:1020A00073227D0A0000000042F6DF6303E0194658
:1020B000491E89B2FCD2401E80B2F8D2704700009F
:1020C00070B5054C0546C1B22046FFF735FA2088A9
:1020D0000006FCD5284670BD0038014010B5FEF75B
:1020E00027F80068007810BD2DE9F041884628B136
:1020F000B8F1000F02D0846822B90CE00020BDE8DE
:10210000F081246834B34046216AFEF740F8002885
:10211000F7D11FE02468ECB1266A5FEA0805F9D020
:10212000002EF7D0B54215D002E098B16D1C761C98
:102130002878FDF7F7FF07463078FDF7F3FF874271
:102140002878F2D0FDF7EEFF05463078FDF7EAFF7C
:102150008542DFD12046D2E72DE9F0410B3020F057
:102160000706104D19E02068B04215D3B0420AD9D5
:10217000871B201DD4F80480FDF7DEFFA019C0E9FD
:102180000078286004E060682860201DFDF7D4FF17
:10219000201D2660BDE8F081251D2C68002CE2D1B1
:1021A0000020F7E74400002000F0CEFB124F134C54
:1021B00049F64046002500BF00F024F86168401A47
:1021C000B04200D821B9FFF739FF00F01BF860607A
:1021D00000F018F8A168401AB84204D9FFF722FFAE
:1021E00000F010F8A06060780128E5D1657004481F
:1021F00000F09EFA2570DFE7A086010000000020B5
:102200004C000020034800880249091F098800EBA0
:10221000014070471C2800402DE9F0410746002589
:10222000C8680C462E46B0F57A7F59D2401CE06053
:102230002168A068095C5B2952D1401CA06020463F
:10224000FFF747FE4CB1D4E90110884203D222685F
:10225000125C5D2A33D0884203D3A068401EA06080
:102260003EE0401E04F11008A0604046FFF76FFEFC
:1022700088B30DB3306046600646A068401CA0607D
:102280002046FFF726FE2146304600F0D3F920B362
:102290002046FFF71EFE04B3D4E90110884203D2A2
:1022A0002168095C2C29E0D06268904215D221682F
:1022B000085C5D2811D102E005462E46DDE7E068A6
:1022C000401EE0602020C7E90250A068401CA060CA
:1022D0000120BDE8F081FFE715B12846FFF710FEA9
:1022E0000020F6E7034610B500200246995CA1F1F4
:1022F0003004092C01D830380AE0A1F14104052C42
:1023000001D8373804E0A1F16104052C08D857380A
:102310000844032A00D20001521C042AE6D310BD4F
:10232000002010BD2DE9F04192B000250C46064674
:102330001095FFF7D3FE03460020E4B32168D1B324
:102340006A4627E027683944415C34291BD00ADCFF
:10235000A1F12B07092F23D2DFE807F0152215176B
:1023600022151515150038290DD006DC35290AD09F
:10237000362908D0372913D105E0392903D045295A
:1023800001D065290CD1115400E01354401C3F28A2
:1023900006D22CB1A168D4F804C00F186745D1D378
:1023A0001554904610A9104600F0D7FA0F46109920
:1023B0000546884503D1002012B0BDE8F081C6E98A
:1023C0000657114A114B28463946FEF7D1F802D874
:1023D0006FF000400DE000220D4B28463946FEF715
:1023E000AFF802D84FF0004003E028463946FEF728
:1023F00087F870610820F060109AA168A2EB0800CD
:102400000844A0600120D7E70000C0FFFFFFDF41C4
:102410000000E0C12DE9F04107460026C8680C46DF
:102420003546B0F57A7F76D2401CE060002C72D041
:10243000D4E9011088426ED22168095C7B296AD1F7
:10244000401CA0602046FFF744FDD4E901108842FB
:1024500003D22268125C7D2A4CD08842A0F1010090
:10246000A06058D204F110084046FFF770FDE8B3B1
:10247000F6B1286045600546A068401CA060204673
:10248000FFF727FD2146284600F048F878B320469C
:10249000FFF71FFD28692862002028613CB3D4E9BA
:1024A0000110884234D22168095C3A2930D102E017
:1024B00006463546E0E7401CA0602046FFF709FDD0
:1024C0002146284600F0B6F888B12046FFF701FD06
:1024D000D4E90110884203D22168095C2C29C3D0B9
:1024E0006268904214D22168085C01E00FE00FE0BE
:1024F0007D280DD1E068401EE0604020C7E9026001
:10250000A068401CA0600120BDE8F08103E016B186
:102510003046FFF7F5FC0020F6E700002DE9F84310
:1025200080460E46086889684FF000094318CDF8C8
:102530000090415C5D1C5C1C222975D100227168F1
:1025400009E000BFBCF15C0F04D17F1C8F426BD24D
:10255000521C641C641C271A8F4204D294F800C0D9
:10256000BCF1220FEED1201A88425DD220782228B9
:102570005AD1E01A801A3169401C8847070053D0AD
:1025800000973DE029785C2905D000986D1C00F883
:10259000011B009034E00221601B012840DB6878B9
:1025A000662814D008DC22281DD02F281BD05C28D8
:1025B00019D0622834D108E06E280ED072280ED0CF
:1025C00074280ED075282BD112E0082200E00C22CE
:1025D000009800F8012B009011E00A22F8E70D2284
:1025E000F6E70922F4E7009A02F8010B009206E0F0
:1025F0006A462146284600F0BFF9010010D00D447C
:10260000A542BFD3009981F800901021C8E90317B3
:102610003068201A401CB0600120BDE8F88303E058
:1026200017B171693846884715B13068281AB0600B
:102630000020F2E770B50C0005465ED02068002847
:102640005BD0A16863680A1D9A4205D80844042239
:1026500031A1FDF7AAFD78B3A0686268411D01268B
:10266000914206D82168052208442DA1FDF79DFD61
:1026700028B3A0686268011D914206D8216804222F
:10268000084429A1FDF791FDE8B1D4E90101814297
:1026900003D22268525C222A1DD0814221D22268B4
:1026A000525C2D2A02D0303A092A1AD821462846EF
:1026B000BDE87040FFF736BE0420E86006E0EE603B
:1026C000A068401D04E002206E61E860A068001D63
:1026D000A060012070BD21462846BDE87040FFF78C
:1026E0001DBF814203D22268525C5B2A07D081421F
:1026F00003D22068405C7B2807D0002070BD2146B3
:102700002846BDE87040FFF787BD21462846BDE852
:102710007040FFF77FBE00006E756C6C000000001B
:1027200066616C73650000007472756500000000DE
:10273000F0B589B0FFF716FC04000AD03DA1FFF701
:1027400003FC066907223CA13046FDF72EFD18B1B7
:1027500009E0002009B0F0BDFFF78AFC3220FFF746
:10276000A3FCFFF76BFC092235A13046FDF71DFDE8
:1027700030B9FFF77DFC3220FFF796FCFFF75EFCD7
:10278000052232A13046FDF710FD68B931A120467F
:10279000FFF7DAFB056924222FA16846FDF7CCFC80
:1027A0006946284600F0BAF8032234A13046FDF706
:1027B000FCFC002839D1FFF725FD314DE968401AAE
:1027C0000A2832D92FA12046FFF7BEFB076921A1B5
:1027D0002046FFF7B9FB0669FFF714FDE860042205
:1027E00029A13846FDF7E1FC30B1042228A1384682
:1027F000FDF7DBFC58B118E027A007C88DE80700FB
:102800000120FEF70FFB0220FEF70CFB09E025A2DA
:1028100007CA8DE807000120FEF7EEFA0220FEF756
:10282000EBFA6946304600F079F82046FFF768FB7E
:1028300001208FE74D00000057454C434F4D4500A8
:10284000636F6E6E65637465640000006C6F67692A
:102850006E000000494400004465617220667269A0
:10286000656E642C2077656C636F6D6520746F20D6
:10287000424947494F54202100000000736179000C
:102880000000002043000000706C6179000000002F
:1028900073746F70000000006C656420706C617967
:1028A000656400006C65642073746F70656400007B
:1028B0002DE9F04704008A4616D054F8047CD4F879
:1028C00000903E1F564500D956462046FEF74AFE68
:1028D00005468846324621465046FFF73DFC40B14A
:1028E000C0F80090BDE8F087BDE8F0470846FEF765
:1028F00067BE44E9017955B129686A18211F8A42E7
:1029000002D9611B091F2960C5F80480EAE7024A61
:10291000C2F80080E6E70000440000200A460146B5
:1029200001A0FEF70FBE00007B224D223A22736108
:1029300079222C224944223A222573222C22432236
:102940003A222573227D0A0010B5FEF739FAFEF708
:10295000DBFCBDE81040FEF77BBA00B583B00A4649
:102960000021CDE9001101466846FDF7ACFEDDE926
:10297000000103B000BD00002DE9F0470546002727
:10298000481B1646894606285DDBA81CFFF7AAFCF3
:102990000446A0F55C414FF48060814253D3A4F516
:1029A0005841824651451AD2A81DA9EB00014FF0AB
:1029B0000C08062947DB01785C2944D14178752948
:1029C00041D1801CFFF78EFCA0F55C4151453AD205
:1029D000C4F3090161F39F2000F5803002E04FF05D
:1029E00006082046802801D2012110E0B0F5006FD2
:1029F00002D20221C0270AE0B0F5803F02D20321B3
:102A0000E02704E0B0F5881F1DD20421F0274A1EFC
:102A100008E000BF00F0BF03346843F08003800982
:102A2000A354521E12F0FF02F4D1012901D93843F8
:102A300001E000F07F0032681070306808443060B8
:102A40004046BDE8F0870020FBE70000D42A0008DC
:102A5000D82A0008D82A0008D82A0008D82A00084E
:102A6000D82A0008D82A0008D82A0008D82A00083E
:102A7000D82A0008FFFFFFFFFFFFFFFFFFFFFFFF58
:102A8000FFFF0000DDDDDDDDDCBBBBDDDDDDDDDD31
:102A9000DDDDDDDD98888888888888887777777796
:102AA0007788888885555556666666666666666662
:102AB000666888888333333222222222222222220D
:102AC0002228888D343533003566653539376132D3
:102AD000620000002E00000000000000FC2A000838
:102AE000000000204C00000010160008482B0008D1
:102AF0004C00002004140000201600080000000014
:102B0000000000000000000000000000C42A0008CF
:102B1000C82A00080000000000000000C1150008DD
:102B200065150008B128000802040608000000002E
:102B30000102030401020304060708090000000063
:082B400000000000000000008D
:04000005080000ED02
:00000001FF
